:020000040800F2
:1000000088390020E9EE0008292C00082B2C000874
:100010002F2C0008332C0008372C000800000000AB
:100020000000000000000000000000003B2C000861
:100030003D2C000800000000F3A000087B9D000894
:1000400003EF000803EF000803EF0008895D0008D4
:1000500003EF000803EF000803EF000803EF0008B8
:1000600003EF000803EF000803EF000803EF0008A8
:1000700003EF000803EF000803EF000803EF000898
:1000800003EF000803EF000803EF00083F2C00080F
:1000900003EF000803EF000803EF000803EF000878
:1000A00003EF000803EF000803EF000803EF000868
:1000B00003EF000803EF000803EF000803EF000858
:1000C00003EF000803EF000803EF000803EF000848
:1000D00003EF0008C756000803EF000803EF00080D
:1000E00003EF000803EF000803EF0008DFF80CD06F
:1000F0000FF06EFA004800478D0100088839002093
:100100007047344800F0704000F10070314900EB56
:100110004110891E8863481C00F0704000F1007097
:10012000491C00EB4110491E0863C81C00F07040D8
:1001300000F10070C91C00EB4110C91E48637047F4
:1001400010B5012002F0A1FD05F0E8FE05F000FD6C
:1001500003F06BF805F014FB02F07AFE02F0A9FF41
:1001600010BD10B5FFF7CDFF0CF01BFFFFF7E8FF48
:100170001948AFF27301026B0220904710BD10B511
:1001800000214FF000600CF0F8FF10BD10B5FFF734
:10019000F6FF09F00CFDFFF7E4FF05F0D2FE00F0DA
:1001A0005CFC0D48C1680D4888470D4908700A4835
:1001B000C1680C4888470C4908700748C1680B485B
:1001C00088470B49087006F099F80349486880474A
:1001D000002010BD26020020500700200D0400085A
:1001E00000000020FB05000802000020EF060008C8
:1001F0000100002010B5044601209D4948709D482B
:1002000004709D4800789B4948705A2088709B482C
:100210004FF06D4142699A480078904710BD70B523
:100220000546012092494870924C21202070287880
:10023000A0706888A080A88800B2E080288900B2F9
:100240002081A88A00B2E081A88900B26081288A52
:1002500000B2A0818848806820615A2020758748B4
:100260004FF06D41426986480078904770BD2DE996
:10027000F04105460E46174601207D4948707D4CE9
:1002800022202070182060706680A780E5807A4860
:10029000806B007B20725A20607278484FF06D416D
:1002A0004269774800789047BDE8F08110B5012099
:1002B0006F4948706F4C302020706F480078607034
:1002C0006D48408AA0806C48808AE0806A48C08A75
:1002D00020816948007CA0705A20A07267484FF0C6
:1002E0006D41426966480078904710BD01460B8910
:1002F000614AD3828B885382CB8893828A785E4B03
:100300001A7400221A705F4A12680AB9012200E0CA
:1003100000225C4B1A600022554B5A707047014610
:100320004A689311544AD3618A689311524A1362FE
:10033000CA689311504A53628B69D3620B69936206
:100340000A7D4D4BDA700A7F1A764E4A12680AB956
:10035000012200E000224B4B1A600022444B5A70ED
:10036000704730B504460D462078252823D00EDC92
:1003700022281BD006DC112816D012282CD02128C8
:100380003AD112E0232812D0242835D110E02828B1
:1003900012D004DC26280CD027282DD10AE03028E2
:1003A00012D0FF2828D11FE000BF00BF00BF00BF50
:1003B00000BF00BF00BF00BF2046FFF7B0FF002016
:1003C0002B49087048701FE02046FFF7A8FF002067
:1003D00027490870487017E02046FFF787FF002084
:1003E0002349087048700FE0122021490870084620
:1003F0000089401C088107E010201D49087008464C
:100400008088401C888000BF00BF30BD08B503F065
:100410004BF807E0642002F024FC282246211AA0B1
:1004200006F060FB03F0A6F80028F3D100F0C0F955
:100430000020114908701220FFF7DCFE0D4800F083
:10044000F8F900BF0A4840780128FBD00EE00B48BD
:1004500001690520884700909DF80300ED2803D12D
:10046000044800F0E6F900E000BF00BFEFE700003D
:10047000FE0200209C0200202402002050070020E1
:10048000000000209C8123424E4F204E52463234C1
:100490004C303100704710B500206749886027E074
:1004A0006548007800B910BD6348C07800B1FAE72C
:1004B00062484078C0B96048007E052810DA00F034
:1004C00040FBA8B95E495F4800F0F6FD80B94FF4E3
:1004D00078415B4800F0D0FF5948FFF7A0FE07E0E5
:1004E0001120FFF787FE03E0574881690520884700
:1004F0005148006B40680028D2D100BFD3E770B5E7
:1005000088B0044651A00068079024F07F4040F076
:10051000005508200CF0D1FD06463046696A0EF001
:100520006BFD07A930460EF034FD3046696C0EF0C5
:1005300030FD03223146464800680BF099F94549E1
:10054000087030460CF0ADFD4248007800284FD1CD
:1005500001203949096BC8603749096B8860364901
:10056000096B486000203C4908603C49088001F064
:100570003FFD00F0BCFA01202F49096B08610BE038
:1005800000F0DFFA40B969462E4800F095FD4FF4BF
:10059000FC61684600F070FF2748006B4068002847
:1005A000EED100212A4800680BF08FFC2949087021
:1005B0000020294908602949088001201E49096B4B
:1005C000C8601D49096B88601B49096B486000F0D1
:1005D0008EFA01201849096B08611120164908702C
:1005E0001948AFF24D120A21436A0120984702E0F0
:1005F00000201149087008B070BD08B5FFF74AFF28
:1006000019E0114801690020884700909DF8030017
:10061000082804D0DE2805D0DF280AD105E000989C
:10062000804707E001F027F804E00098FFF767FF34
:1006300000E000BF00BFE4E724020020FE0200202B
:100640000C03002028030020500700205C0000005D
:10065000100000202000002034000020380000207E
:1006600070B505460C46434907232246C86929460A
:1006700006F079FA04F110018AB23E490723086AAC
:10068000294606F070FA04F120018AB2394907239D
:10069000486A294606F067FA05F1500291B2354AD8
:1006A0000523906A224606F05EFA04F110039AB21E
:1006B00005F1500399B22F4BD86A052306F053FA7F
:1006C00004F120039AB205F1500399B2294B187E28
:1006D000052306F048FA70BD10B5142006F072FB31
:1006E00025490860084600682449086110BD08B51E
:1006F000FFF7F2FF00F050FF00F0BDFF39E02048A7
:1007000001696420884700909DF80300082806D0FE
:10071000EC280AD0FB2805D0FF280BD10BE000986D
:10072000804708E000F0A7FF05E096211420FFF7BE
:1007300097FF00E000BF00BF1248007820B10128F9
:1007400010D0142813D106E000F0E4FF9621AA206F
:10075000FFF786FF0CE001F072FA96211420FFF7F4
:100760007FFF05E00A211420FFF77AFF00E000BFB9
:1007700000BFC4E724020020040000202C07002052
:1007800050070020080000207B4890F8410038B94D
:100790000120794981F84100002081F8400006E0FD
:1007A0000020754981F84100012081F84000704720
:1007B00010B500207149087002F06DFF10BD10B532
:1007C000044600206D49488002F08BFF6C48816927
:1007D00001208847204602F018FF202820D102F08F
:1007E0005AFF13E0664881690220884763484088C1
:1007F000401C6249488008464088052806DB1320D3
:10080000087008464088401C488010BD5A4802F0D5
:1008100028FF0028E6D15B495748FFF7A2FD06E014
:100820001120564908700846C088401CC88000BF87
:10083000EBE710B5044600205049087014E04F481B
:10084000007870B15048C068401C4F49C8604D489E
:10085000007840F080004B490870494881690A20BF
:1008600088472046FFF7ABFF444840780028E6D190
:1008700010BD002112E0404890F840003E4A02EBD3
:100880004010405C92F841203B4B03EB4212525C1B
:10089000904201D000207047481CC1B22029EADBF9
:1008A0000120F8E710B520203449087002F0F3FE6B
:1008B00010BD10B531480078202859D12E4991F843
:1008C00040102D4A02EB411002F0CBFE00284FD120
:1008D00002F007FF284890F84000274901EB40103C
:1008E000007800F0800060B3FFF7C3FFE8B1224852
:1008F00090F84000204901EB4010007800F08000A3
:10090000212812D1112091F840101B4A02EB41110D
:100910000870114691F8401002EB41101949FFF799
:1009200020FDA1201749087016E0134991F84010E6
:10093000114A02EB41101349FFF713FDFFF724FFA3
:100940000AE00D4991F840100B4A02EB41100D49A5
:10095000FFF707FDFFF718FF0A4802F056FE2028B0
:1009600003D101200949086002E00020074908601E
:1009700002F091FE10BD0000BC020020FE0200202B
:10098000500700209C02002024020020988123426E
:1009900010B54FF40D700CF090FB914908604FF4C6
:1009A0000A700CF08AFB8F4908604FF40A700CF053
:1009B00084FB8D49086024200CF07FFB8B49086084
:1009C0004FF480600CF079FB894908608448006826
:1009D00068B18448006850B18348006838B18348E2
:1009E000006820B10846006808B1002010BD012051
:1009F000FCE710B57F4890F8560050B101280CD0A4
:100A0000022802D0032810D10BE07BA00EF07CFE60
:100A10000BE07FA00EF078FE07E083A00EF074FEDE
:100A200003E087A00EF070FE00BF00BF714890F891
:100A30002C1089A00EF068FE6E48B0F854108DA0FE
:100A40000EF062FE6B48816C8EA00EF05DFE694870
:100A5000016D92A00EF058FE10BD10B51E22114679
:100A600094A006F03FF832221E2198A006F03AF832
:100A70003222822198A006F035F846223C2199A026
:100A800006F030F8FFF784FF93A290A19CA00EF02F
:100A90003BFE5348016800200AF0D2FEA1490870CD
:100AA000A14880690122C1684E4800680AF0E0FE52
:100AB0009C4908700846007828B96E2246219BA000
:100AC00006F010F804E06E2246219CA006F00AF819
:100AD000444800680BF0E9F9924908704FF47A70C5
:100AE00002F0BFF89049488805F01CFD10BD10B514
:100AF0009848006B806818B33A480068C068964907
:100B00000968401AB0F5007F02D94FF4007405E07F
:100B100034480068C06890490968441A8F4B2246DF
:100B2000334801682F4800680AF07BFF7D49087050
:100B30002F4800688A49086000208649096B886050
:100B400010BD10B5012449E085480068007885494A
:100B5000085583480068401C814908607E48006849
:100B6000401C7D49086080480088401C7E49088000
:100B700008460088B0F5007F08D101207549096B4F
:100B80008860FFF7B4FF00207749088015480068A7
:100B9000C0687149096888420BD100206D49096B12
:100BA00048607048047000210246601C1154002007
:100BB00010BD6C48005D0A2807D16A480470002106
:100BC0000246601C11540020F2E7601CC4B2402CA5
:100BD00004DB0020634908700120E9E7B4E7000066
:100BE0000C00002010000020140000202C00002029
:100BF00024000020E00300204361726420547970D7
:100C0000653A20534448432056322E300D0A0000E6
:100C10004361726420547970653A205344534320F1
:100C200056312E310D0A00004361726420547970F0
:100C3000653A20534453432056322E300D0A0000AB
:100C40004361726420547970653A204D4D432043CE
:100C50006172640D0A00000043617264204D616E90
:100C600075666163747572657249443A2025640D36
:100C70000A00000043617264205243413A20256417
:100C80000D0A0000436172642043617061636974FE
:100C9000793A202564204D420D0A000043617264B8
:100CA00020426C6F636B53697A653A2025640D0AA4
:100CB0000D0A0000536F66747761726520436F6D93
:100CC00070696C65642054696D653A004A616E20F4
:100CD000313920323031390031363A31333A333418
:100CE000000000005344206361726420496E6974FF
:100CF00069616C697A65202E2E2E2E2E2E00000042
:100D0000536F66747761726520436F6D70696C65AF
:100D1000642054696D653A2025732C2025732E0DAF
:100D20000A000000200000202C07002047424BD77B
:100D3000D6BFE2B4F2BFAAD5FDB3A30047424B3100
:100D4000322E464F4E206F70656E2046616C736583
:100D500000000000240200203400002018000020C1
:100D60003000002028030020380000202DE9F04F3B
:100D70008BB080468946924600270025AB4600206E
:100D80000990089099F8000000EB080414F8016B32
:100D90002D2E04D10120089014F8016B03E02B2EB6
:100DA00001D114F8016B23E0A6F13000C6B2092E80
:100DB00014DC0BF1010000F0FF0BBBF1080F08DCA5
:100DC000099808B1681C45B207EB870006EB40079D
:100DD0000CE0099850B9681E45B207E0FE2E04D118
:100DE000099810B90120099000E002E014F8016BA5
:100DF000DAE700BFBBF1000F03D100200BB0BDE864
:100E0000F08F022D1BDDA81E0EF087FA02460B465E
:100E1000CDE900010020FA490EF038FECDE90401C9
:100E200038460EF07AFACDE90201DDE904230EF02E
:100E300005FACDE906010EF08EFA07461DE0022DF7
:100E40001BDAC5F102000EF068FA02460B46CDE946
:100E500000010020EA490EF019FECDE904013846F0
:100E60000EF05BFACDE90201DDE904230EF074F91E
:100E7000CDE906010EF06FFA0746089818B17842DE
:100E8000CAF8000001E0CAF80070A4EB0800401E98
:100E900089F800000120B1E72DE9F04F8BB08046C2
:100EA000894692469B460027002500200A9009901B
:100EB000089099F8000000EB080414F8016B2D2E3F
:100EC00004D10120089014F8016B03E02B2E01D10E
:100ED00014F8016B23E0A6F13000C6B2092E14DC31
:100EE0000A98401CC0B20A900A98082808DC0998A1
:100EF00008B1681C45B207EB870006EB40070CE021
:100F0000099850B9681E45B207E0FE2E04D1099831
:100F100010B90120099000E002E014F8016BDAE753
:100F200000BF0A9818B900200BB0BDE8F08F022D61
:100F30001BDDA81E0EF0F1F902460B46CDE90001BB
:100F40000020AF490EF0A2FDCDE9040138460EF0B5
:100F5000E4F9CDE90201DDE904230EF06FF9CDE9F2
:100F600006010EF0F8F907461CE0022D1ADAA81E59
:100F70000EF0D3F902460B46CDE900010020A0494E
:100F80000EF084FDCDE9040138460EF0C6F9CDE936
:100F90000201DDE904230EF051F9CDE906010EF05E
:100FA000DAF907460898D8B17842CAF8000000225A
:100FB0004FF08043104692490EF068FDCDE90401E0
:100FC00078420EF0AAF9CDE90201DDE904230EF022
:100FD00035F9CDE906010EF0BEF9CBF8000019E0B5
:100FE000CAF8007000224FF08043104684490EF08A
:100FF0004DFDCDE9040138460EF08FF9CDE902012F
:10100000DDE904230EF01AF9CDE906010EF0A3F98B
:10101000CBF80000A4EB0800401E89F80000012076
:1010200082E72DE9F04106460F4690461D46069C94
:1010300002E02078401C20702078285C2028F8D01E
:101040002078285C58B12078285C3B2807D020788D
:10105000285C0A2803D02078285C0D2802D10020C3
:10106000BDE8F0812078285C30703078412802DBC0
:1010700030785A2804DD0220624908710020EFE729
:101080002078401C207043463A4621462846FFF708
:1010900003FFE5E770B504460D465A48806B40688B
:1010A00038B14FF06632584B204629460EF054F8BE
:1010B00070BD20462946FBE72DE9F04786B0814602
:1010C0000C46012005904FF0000A00204D490871A0
:1010D0001C22002120460BF05AFF99F801003B2802
:1010E00007D099F80100282803D099F80100252895
:1010F00003D1002006B0BDE8F08742488068401C5C
:1011000040498860E0E09DF81000472804D04D2851
:1011100068D04E28FFD1D0E0608840F001006080A8
:101120000298282853D012DC112851D006DC05285B
:1011300054D2DFE800F02124272A2D0014282AD0D9
:1011400015282DD01C2830D01E2847D13DE05B2823
:1011500033D008DC31283FD0402837D050283CD04D
:101160005A283BD124E05C282CD05E2831D061285D
:1011700031D0622832D12DE00120207030E00220F1
:1011800020702DE0032020702AE00420207027E04A
:101190000520207024E001201A49896B48601FE077
:1011A00000201849896B48601AE01C20207017E065
:1011B00001201449896B886012E000201149896B75
:1011C00088600DE05C2020700AE000BF00BF00BF17
:1011D00000BF00BF00BF00BF00BF01E0032089E7E0
:1011E00000BF6AE0608840F001006080029831280A
:1011F0004FD01EDC08284ED00EDC072859D205E05F
:10120000000024402402002066663940DFE800F038
:1012100031323338513B4E00182838D004DC0928CD
:101220003AD0172845D131E01E2825D0302840D1AA
:1012300030E06E2835D00EDC6A282FD006DC34284A
:1012400026D03C2819D0692833D126E06B2826D037
:101250006C282ED124E08C2825D004DC702807D0FF
:10126000712826D11EE08D281ED08E2821D11CE0A9
:1012700000BF00BF00BF00BF00BF162020701AE0F3
:101280006720207017E06920207014E000BF00BFC5
:1012900000BF00BF00BF00BF00BF00BF00BF00BF56
:1012A00000BF00BF00BF00BF00BF00BF63480079A0
:1012B00020E703201EE700BF00BF00BF5F480079A2
:1012C00010B15E48007915E705A84B4602AA03A9AC
:1012D000009004A8FFF7A5FE00287FF414AF57483C
:1012E000007910B15548007904E70120059096E097
:1012F00003980EF012F80746FFF7CCFE05460E469F
:101300009DF810004538162874D2DFE800F06A6BAB
:101310007073596169737271736C736F6D737373EA
:10132000730B253F4FF0010A4448806B806828B159
:10133000284631460EF00FF860600CE060680DF052
:10134000ECFF2A463346CDE900010DF05EFE07466C
:101350000EF001F860604FE04FF0020A3748806BF2
:10136000806828B1284631460DF0F5FFA0600CE0FA
:10137000A0680DF0D2FF07462A4633460DF045FE21
:10138000CDE900010DF0E7FFA06035E04FF0030A62
:101390002A48806B806828B1284631460DF0DBFF73
:1013A00060610CE060690DF0B8FF07462A463346DD
:1013B0000DF02BFECDE900010DF0CDFF60611BE0CB
:1013C0004FF0050A284631460DF0C5FFE06013E0F6
:1013D0004FF0060A284631460DF0BDFF20610BE0B4
:1013E0000AE009E008E000BF06E003E000BF00BF3C
:1013F00000BF01E005207DE600BFBAF1000F0DD06F
:10140000608840FA0AF000F0010008B1012071E69E
:101410006088012101FA0AF10843608000BF05A835
:101420004B4602AA03A9009004A8FFF7FAFD002882
:101430007FF45EAF014800795CE6000024020020E2
:1014400001464548007C4843C823B0FBF3F2C82A54
:1014500000D3C82290B2704730B505460C462846E6
:10146000FFF7EEFF3D4908802046FFF7E9FFC0F196
:10147000C8003A49488030BDF8B504460D46A0780A
:10148000C0F3400028B16068FFF7DAFF33494860D5
:1014900003E03248008831494860A078C0F38000FA
:1014A00038B1A068FFF7CCFFC0F1EF002B4988608E
:1014B00003E02A484088294988602078012806D01E
:1014C00002281BD003282DD0042840D12BE04FF652
:1014D000FF70401B214E00903689B3B21F4EB68874
:1014E000B2B21E4E7188308805F07AF83046808896
:1014F0003146088008460089488029E0174E00954B
:101500003689B3B2154EB688B2B2144E718830889F
:1015100005F066F830468088314608800846008924
:10152000488015E000BF0D4E00953689B3B20B4ED2
:10153000B688B2B2094E7188308805F051F830464D
:1015400080883146088008460089488000E000BF56
:1015500000BF0020F8BD0000240200206803002026
:1015600010B503E0764881690120884775484078C6
:101570000128F7D02820FEF73DFE10BD10B503E08E
:101580006F488169012088476E4840780128F7D06C
:101590002520FEF72FFE10BD10B500206A49886295
:1015A000097888000EF03CFA674948626748496A42
:1015B000086000206449496A48606349496A886054
:1015C0006149496AC8606049496A08615E49496A77
:1015D00048615D49097888000EF022FA5A49C862CC
:1015E0000020C96A08605A485749C96A4860594882
:1015F0005549C96A886000205349C96AC860AFF27A
:101600009F005149C96A0861AFF28F004E49C96A0B
:1016100048614E49097888000EF002FA4B49486249
:101620000020496A08604949496A48604749496A4F
:1016300088604649496AC8604449496A0861424825
:1016400042498862097888000EF0EAF93F49C86289
:101650004148C96A086041483C49C96A48604048F5
:101660003A49C96A886000203849C96AC860374960
:10167000C96A086110BD38B53A4C00203A49087073
:101680003A49086904F066FE3948384988612822D9
:10169000462138A005F026FA3A48344988610823E3
:1016A0000A220869502106F0A7FD20602F4908236F
:1016B0000A220869962106F09FFD60603148216882
:1016C000C8606168C8603049206806F026FE2E496F
:1016D000C91C606806F021FE8C2024490090A023DC
:1016E000462208691E2106F045FAA0601649A06846
:1016F00006F0AAFA00202549087003E01048816925
:10170000012088470F4840780128F7D01120FEF7C4
:1017100071FD38BD10B5134C1B49206806F0FDFD66
:101720001949C91C606806F0F8FD1848007828B906
:101730000448407810B91120FEF75CFD10BD000090
:1017400050070020FE02002044000020740000200A
:101750007F180008CD1C0008752900087B250008AB
:10176000CB21000860020020080000202C07002088
:101770002C010020BBB6D3ADCAB9D3C3B5F1BFCCE1
:10178000BBFA00001C010020E00000202402002021
:101790000020FE490870FE490870FE490870087074
:1017A00070470020F94908700120F9490870704716
:1017B0000020F64908700220F549087070470020A3
:1017C000F24908700320F249087070470020EF4981
:1017D00008700420EE49087070470020EB4908703B
:1017E0000520EB49087070470020E8490870062082
:1017F000E749087070470020E44908700720E44971
:10180000087070470020E14908700820E04908701E
:1018100070470020DD4908700F20DD4908707047CF
:101820001220DA4908700020D94908707047112049
:10183000D64908700020D649087070471F20D34948
:1018400008700020D249087070470120D249896B86
:10185000C86070470020D049896BC860704710B5D8
:1018600003E0CE48816901208847CD4840780128AF
:10187000F7D02720FEF7BEFCFFF7FDFE10BD38B500
:101880000020C4490870C2490870C0490870C249A4
:10189000896BC86003E0C148816901208847C0485E
:1018A00040780128F7D02620FEF7A4FCBD4CBE49A5
:1018B000488804F037FEBC49086905F0C6FA1420D0
:1018C000BA490870B849009028233C2208691421BD
:1018D00005F024FC2061B6A2B5A1206905F074FCD6
:1018E000AFF2411021698861AFF25B102169086293
:1018F0000220216908751420AB49009028233C225E
:101900000869462105F00AFCA060ABA2AAA1A06864
:1019100005F05AFCAFF26710A1688861AFF28F1032
:10192000A16808620220A168087514209E490090F1
:1019300028233C220869782105F0F0FB60619FA212
:101940009EA1606905F040FCAFF28D10616988616D
:10195000AFF2C31061690862022061690875142042
:101960009149009028235A220869142105F0D6FBDA
:10197000206094A293A1206805F026FCAFF2B3107A
:1019800021688861AFF2F71021680862022021689F
:10199000087514208449009028235A22086946219A
:1019A00005F0BCFB206288A287A1206A05F00CFC30
:1019B000AFF2A110216A8861AFF22B20216A086280
:1019C0000220216A087514207749009028235A22A2
:1019D0000869782105F0A2FB60607DA27CA16068A7
:1019E00005F0F2FBAFF20D2061688861AFF25F2075
:1019F0006168086202206168087514206A490090D5
:101A0000282378220869142105F088FBA06171A2BF
:101A100070A1A06905F0D8FBAFF23320A1698861FD
:101A2000AFF29320A16908620220A1690875142011
:101A30005D490090282378220869462105F06EFB55
:101A4000E06066A265A1E06805F0BEFBAFF2592038
:101A5000E1688861AFF2C720E16808620220E168AE
:101A600008751420504900902823782208691146EF
:101A700005F054FBE0615AA259A1E06905F0A4FB0E
:101A8000AFF27F20E1698861AFF2FB20E169086273
:101A90000220E169087514204349009028233C2264
:101AA0000869BE2105F03AFBE0624FA24EA1E06A50
:101AB00005F08AFBAFF28920E16A8861AFF22F302E
:101AC000E16A08620220E16A087514203649009034
:101AD000282378220869BE2105F020FB206343A259
:101AE00042A1206B05F070FBAFF2CB20216B886127
:101AF000AFF26330216B08620220216B087514205D
:101B00002949009028235A220869BE2105F006FBC6
:101B100060632DA22CA1606B05F056FB0220616B67
:101B20000875AFF2E720616B8861AFF29B30616BA3
:101B3000086214201C4900903C2378220869FA218D
:101B400005F0ECFAA0632AA229A1A06B05F03CFBEA
:101B5000AFF2F520A16B88611420134900903C235B
:101B60001A460869FA2105F0D9FA606222A222A178
:101B7000606A05F029FB0220616A0875AFF2353012
:101B8000616A886114200849009039E0A6000020AD
:101B9000A5000020A40000202402002050070020FF
:101BA000FE020020600200202C0700200800002018
:101BB000D7F3C9CF00000000C9CF0000D3D2C9CFEE
:101BC00000000000D7F30000D4ADB5E30000000032
:101BD000D3D20000D7F3CFC200000000CFC2000074
:101BE000D3D2CFC2000000005A2B00005A2D0000B3
:101BF000B7B5BBD800000000D6F7D6E1BFAA0000F9
:101C00003C235A220869FA2105F088FAA06222A230
:101C100021A1A06A05F0D8FA0220A16A0875AFF2E6
:101C2000CB30A16A88611E481E4988611E22462168
:101C30001DA004F057FF18201F49087038BD10B5CB
:101C40001D480078182824D11C48007810B91C4879
:101C5000007820B11B480078401C1A4908701948C8
:101C60000078C82802DBC82016490870124800789E
:101C700000B910BD1048C07800B1FAE712484078AA
:101C800038B90F4802780D4801780E480078FEF701
:101C9000EEFA00BFEDE70000D6F7D6E1B9D80000B4
:101CA0001C0100202C070020B5F1BFCCBBFAB6A860
:101CB000CEBBB2D9D7F7000024020020A500002037
:101CC000A6000020A4000020FE02002038B50D4C24
:101CD0001E200D4908700D49488804F023FC0B496B
:101CE000086905F0B2F8EF2008490090EF230022C0
:101CF0000869114606F0DEFB20600548007821687F
:101D0000C86438BD60020020080000202C070020B5
:101D10000200002010B5C24CA06805F09CF9E068F4
:101D200005F0A7F9206905F0A4F91020BD49087055
:101D300010BD10B5BA4CA06805F09BF9E06805F03D
:101D400098F9206905F087F9B6480078122803D081
:101D50001220B449087002E01320B249087010BD87
:101D600010B5AF4CA06805F084F9E06805F081F982
:101D7000206905F070F91120AA49087010BD10B54E
:101D8000A74CA06805F075F9E06805F064F92069D2
:101D900005F06FF90020A34908706069407840F0B1
:101DA000020061694870E069407840F00200E16932
:101DB0004870606A407840F00200616A487010BD67
:101DC0007047704710B59748006BC06860B100203D
:101DD00094490870944800680AF067F893490870BD
:101DE000002090494870087000208E490870272014
:101DF000FEF700FAFFF73FFC10BD704738B5054607
:101E0000874C8B49488804F08DFB8949086905F0A7
:101E10001CF887490123D22208694FF4827107F028
:101E20005BFA206082490223DE2208694FF4827146
:101E300007F052FA606014207D49009032230A2294
:101E400008694FF4877105F069F9206279A279A1D8
:101E5000206A05F0B9F9AFF29300216A88617748EA
:101E60000078216A087514207149009032232322DA
:101E700008694FF4877105F051F9606170A270A193
:101E8000606905F0A1F925B1AFF29100616988613F
:101E900003E0AFF27F10616988616848007861698A
:101EA000087514206249009032233C2208694FF4DF
:101EB000877105F033F9A06163A263A1A06905F001
:101EC00083F9AFF24510A16988615C480078A16987
:101ED00008751420564900903223552208694FF4A2
:101EE000877105F01BF9E06159A259A1E06905F07D
:101EF0006BF9AFF29310E169886150480078E169AD
:101F0000087514204A49009032236E2208694FF464
:101F1000877105F003F960624FA24FA1606A05F076
:101F200053F9AFF2F110616A8861616AC861434890
:101F30000078616A087514203D4900903223872299
:101F40000869510005F0EAF8E06245A244A1E06AA0
:101F500005F03AF9AFF29710E16A886137480078E6
:101F6000E16A08751420324900903223A0220869E2
:101F70004FF4877105F0D2F8A0623AA239A1A06AA5
:101F800005F022F9AFF2C510A16A88612B480078EC
:101F9000A16A0875264923220869FA2105F02EF85E
:101FA000A06023493C220869FA2105F027F8E06087
:101FB0001F4955220869FA2105F020F820611120F7
:101FC00018490870A06805F054F8E06805F051F869
:101FD000206905F040F803E0234881690120884723
:101FE000224840780128F7D02620FEF703F938BDB3
:101FF00010B501201E4908700020FFF7FFFE10BD3C
:1020000010B501201A490870FFF7F8FE10BD10B591
:10201000034C044AD178206807F097F910BD0000FE
:102020006002002024020020100000202000002078
:102030002C070020B7B5BBD800000000010000202D
:10204000BFAACABC00000000CDA3D6B900000000A2
:10205000D4DDCDA300000000B5A5B2BD0000000096
:102060005A2B00005A2D000050070020FE020020CD
:102070000800002010B50020D7498870FFF7FBFA50
:1020800010BD10B5D5480078401CD4490870D4481C
:10209000D4490978405CD1490978884205DAD048AA
:1020A000D0490978405CCD49087002236422B921E7
:1020B000CA48007804F028FD10BD10B5C748007864
:1020C000012803DA0120C549087004E0C3480078FC
:1020D000401EC249087002236422B921BF4800781B
:1020E00004F012FD10BD10B5BE4800780C2803DBCB
:1020F0000C20BC49087004E0BA480078401CB9497B
:102100000870022364227321B648007804F0FCFCB6
:1021100010BD10B5B3480078012803DA0120B14999
:10212000087004E0AF480078401EAE4908700223F2
:1021300064227321AB48007804F0E6FC10BD10B5B2
:10214000A9480078632803DD0120A749087004E04E
:10215000A5480078401CA4490870022364222D2160
:10216000A148007804F0D0FC10BD10B59E4800785E
:10217000012803DA01209C49087004E09A4800789D
:10218000401E99490870022364222D219648007848
:1021900004F0BAFC10BD1CB5934800789349087050
:1021A0009048007848708D480078887008464079DB
:1021B00009798E4CCDE90010E378A2786178207817
:1021C00003F0F6FDFFF756FF1CBD38B5884C0E2016
:1021D000884908708548807880490870834840782D
:1021E00080490870814800787F4908708249488892
:1021F00004F098F98049086904F027FE142246216A
:102200007EA004F06FFC14207B490090322346220C
:1022100008691E2104F082FF20607BA27AA1206859
:1022200004F0D2FFAFF2E900216888612168C8613B
:10223000764800782168087514206F490090322391
:10224000782208691E2104F069FF606070A270A105
:10225000606804F0B9FFAFF2ED0061688861616801
:10226000C8616A4800786168087514206249009066
:10227000322346220869642104F050FFA06062A264
:1022800061A1A06804F0A0FFAFF2A510A168886169
:10229000A168C8615D480078A16808751420564996
:1022A0000090322378220869642104F037FFE0604F
:1022B00057A257A1E06804F087FFAFF2A910E168C8
:1022C0008861E168C86151480078E16808751420A8
:1022D00049490090322346220869AA2104F01EFFD2
:1022E000206149A248A1206904F06EFFAFF26D2081
:1022F000216988612169C8614448007821690875AD
:1023000014203D490090322378220869AA2104F064
:1023100005FF60613EA23EA1606904F055FFAFF287
:102320006520616988616169C861384800786169C0
:1023300008751420304900903223B42208691946E8
:1023400004F0ECFEA06133A232A1A06904F03CFFCE
:10235000AFF2BD10A16988612C480078A1690875A9
:102360001420254900903223B4220869962104F0F4
:10237000D5FEE06129A229A1E06904F025FFAFF2B2
:102380000B30E169886121480078E16908752D22E8
:10239000114624A004F0A6FB144908780223642205
:1023A0002D2104F0B1FB2D2273211FA004F09AFB14
:1023B0000E49487802236422732104F0A5FB2D22E4
:1023C000B9211AA004F08EFB084988780223642200
:1023D000B92104F099FB38BD24020020A900002097
:1023E0003A050108A8000020A7000020E000002016
:1023F00060020020080000202C070020C8D5C6DAA3
:10240000D0DEB8C4000000002B0000000100002056
:102410002D000000C8B7B6A800000000C8A1CFFB7F
:1024200000000000C4EA0000D4C20000C8D50000CB
:1024300010B50020DA498870FFF71DF910BD10B5FE
:10244000D8480078182803DB1820D649087004E023
:10245000D4480078401CD3490870022364222D21FF
:10246000D048007804F050FB10BD10B5CD4800787E
:10247000012803DA0120CB49087004E0C94800783C
:10248000401EC8490870022364222D21C5480078E7
:1024900004F03AFB10BD10B5C34800783C2803DBBC
:1024A0003C20C149087004E0BF480078401CBE4988
:1024B0000870022364227321BB48007804F024FBD7
:1024C00010BD10B5B8480078012803DA0120B649DC
:1024D000087004E0B4480078401EB3490870022335
:1024E00064227321B048007804F00EFB10BD10B5D3
:1024F000AE4800783C2803DD0120AC49087004E0B8
:10250000AA480078401CA949087002236422B92116
:10251000A648007804F0F8FA10BD10B5A34800787A
:10252000012803DA0120A149087004E09F480078DF
:10253000401E9E49087002236422B9219B480078FE
:1025400004F0E2FA10BD1CB5964800789849C870AE
:102550009548007808719548007848710846407998
:102560000979934CCDE90010E378A278617820785E
:1025700003F01EFCFFF75CFF1CBD38B58D4C0D2031
:102580008D4908708A48C078864908708848007963
:102590008549087086484079844908708749488889
:1025A00003F0C0FF8549086904F04FFC14208349FB
:1025B00000903223462208691E2104F0AFFD2060FE
:1025C00014207E4900903223782208691E2104F0ED
:1025D000A5FD6060142079490090322346220869E5
:1025E000642104F09BFDA060142074490090322304
:1025F00078220869642104F091FDE06014206F499D
:102600000090322346220869AA2104F087FD206148
:1026100014206A490090322378220869AA2104F024
:102620007DFD60611420654900903223B422086961
:10263000194604F073FDA061142060490090322314
:10264000B4220869962104F069FDE0611422462154
:102650005BA004F047FA2D2211465CA004F042FA78
:102660005349C878022364222D2104F04DFA2D220B
:10267000732157A004F036FA4D49087902236422E9
:10268000732104F041FA2D22B92152A004F02AFA54
:102690004749487902236422B92104F035FA4EA251
:1026A0004DA1206804F090FD4CA24CA1606804F09C
:1026B0008BFD49A248A1A06804F086FD47A247A16E
:1026C000E06804F081FD44A243A1206904F07CFD90
:1026D00042A242A1606904F077FD41A240A1A06935
:1026E00004F072FD40A240A1E06904F06DFDAFF27C
:1026F000B12021688861AFF28D2061688861AFF2F6
:102700006920A1688861AFF24520E1688861AFF275
:10271000212021698861AFF2FD1061698861AFF203
:10272000E1202168C861AFF2BD206168C861AFF2E5
:102730009920A168C861AFF27520E168C861AFF265
:1027400051202169C861AFF22D206169C861AFF2E3
:102750000920A1698861AFF22730E16988612448C6
:10276000007821680875224800786168087520485B
:102770000078A16808751E480078E16808751C4853
:102780000078216908751A48007861690875184849
:102790000078A169087516480078E169087538BDA8
:1027A00024020020AA000020AB000020AC00002082
:1027B000E000002060020020080000202C0700201C
:1027C000C8D5C6DAD0DEB8C400000000CAB1000027
:1027D000B7D60000C3EB00002B0000002D00000066
:1027E000C8B7B6A800000000C8A1CFFB00000000D9
:1027F0000100002010B5F248C08A401C81B2F048A8
:10280000C182C08A322802DD3221ED48C182EC4902
:10281000C88A03235F22372104F076F910BD10B572
:10282000E748C08A0A2803DC0A21E548C18205E09E
:10283000E348C08A401E81B2E148C182E049C88AAB
:1028400003235F22372104F05FF910BD10B5DC4887
:10285000408A401C81B2DA484182408A322802DD37
:102860003221D7484182D649488A03235F22782102
:1028700004F04AF910BD10B5D148408A0A2803DC9B
:102880000A21CF48418205E0CD48408A401E81B2EE
:10289000CB484182CA49488A03235F22782104F049
:1028A00033F910BD10B5C648808A401C81B2C448B7
:1028B0008182808A322802DD3221C1488182C0496A
:1028C000888A03235F22B92104F01EF910BD10B5D8
:1028D000BB48808A0F2803DC0F21B948818205E0BC
:1028E000B748808A401E81B2B5488182B449888A3F
:1028F00003235F22B92104F007F910BD10B5B048D9
:10290000007C401CAE4908740846007C142801DD98
:1029100014200874AA49087C03235F22FA2104F0DA
:10292000F3F810BD10B5A648007C012803DC012097
:10293000A349087404E0A248007C401EA049087422
:102940009F49087C03235F22FA2104F0DDF810BDC3
:1029500010B500209A490870FDF7A8FC03E09948DB
:10296000816901208847984840780128F7D0FEF710
:1029700082FE10BD38B5954C0B20954908709549DD
:10298000086904F062FA9349488803F0CBFD924845
:102990009049886114223C2190A004F0A3F8944847
:1029A0008C4988619622322192A004F09BF89622ED
:1029B000732192A004F096F89622B42191A004F01D
:1029C00091F89622F52190A004F08CF8142081490A
:1029D00000902823462208692D2104F09FFB2061E6
:1029E0008AA28AA1206904F0EFFBAFF2F7102169F7
:1029F00088612169C86114207649009028237822D3
:102A000008692D2104F08AFB606181A280A16069C0
:102A100004F0DAFBAFF2F910616988616169C8619D
:102A200014206C4900902823462208696E2104F086
:102A300075FB206075A275A1206804F0C5FBAFF29C
:102A4000F310216888612168C861142061490090F1
:102A50002823782208696E2104F060FB60606CA274
:102A60006BA1606804F0B0FBAFF2F510616888619B
:102A70006168C861142057490090282346220869DC
:102A8000AF2104F04BFBA06060A260A1A06804F03D
:102A90009BFBAFF2EF10A1688861A168C8611420A8
:102AA0004C490090282378220869AF2104F036FBB6
:102AB000E06057A256A1E06804F086FBAFF2F11087
:102AC000E1688861E168C8611420424900903223BE
:102AD00046220869F02104F021FBA0614BA24BA122
:102AE000A06904F071FBAFF2EB10A1698861A169E4
:102AF000C861142037490090322378220869F021F8
:102B000004F00CFBE06142A241A1E06904F05CFB2F
:102B1000AFF2EF10E1698861E169C86114202D49C5
:102B200000903223B4220869642104F0F7FA20628D
:102B300038A238A1206A04F047FBAFF2EB10216AFB
:102B400088611420234900903223B4220869C821E7
:102B500004F0E4FA606231A230A1606A04F034FB50
:102B60003048616A88610020154908701220FDF71D
:102B700041FB03E0134881690120884712484078EF
:102B80000128F7D00E49C88A03235F22372103F0BA
:102B9000BBFF0B49488A03235F22782103F0B4FF6F
:102BA0000749888A03235F22B92103F0ADFF044956
:102BB000087C03235F22FA2103F0A6FF38BD000042
:102BC0002402002050070020FE02002060020020A6
:102BD000080000202C0700202C010020B5E7BBFADC
:102BE000CFB5CDB3B2CECAFDD0DEB8C40000000070
:102BF0001C010020BFECCBD9000000005859D6E1E1
:102C0000000000005AD6E100544654002B0000009A
:102C10002D000000C8B7B6A800000000C8A1CFFB77
:102C20000000000077160008704700BFFEE700BFF5
:102C3000FEE700BFFEE700BFFEE770477047704742
:102C400000BF011EA0F10100FBD1704700B5034693
:102C500002E00820FFF7F4FF181EA3F10103F8D1EA
:102C600000BD00B5034603E04FF4FA50FFF7E8FF5C
:102C7000181EA3F10103F7D100BD0146102902DAA5
:102C80006F48405C70473020FCE7014649066D4ABA
:102C9000926942F001026B4B9A616B4A526822F0D2
:102CA000E062694B5A601A4652680A435A6070479C
:102CB000014600BF704700BF644A128802F040021C
:102CC000002AF9D0C2B2614B1B1D1A80704772B640
:102CD000704762B67047F8B506460C4615460121A6
:102CE00028460AF08FFF28208DF80300ADF8004039
:102CF000694630460AF064FCF8BDF8B506460C4655
:102D00001546012128460AF07DFF48208DF8030072
:102D1000ADF80040694630460AF052FCF8BDF8B5FF
:102D200006460C461546012128460AF06BFF042092
:102D30008DF80300ADF80040694630460AF040FCCB
:102D4000F8BDF8B506460C461546012128460AF09E
:102D500059FF10208DF8030002208DF80200ADF815
:102D60000040694630460AF02BFCF8BDF8B506462F
:102D70000C461546012128460AF044FF18208DF81C
:102D8000030002208DF80200ADF80040694630468D
:102D90000AF016FCF8BDF8B506460C4615460121AA
:102DA00028460AF02FFF10208DF8030001208DF82F
:102DB0000200ADF80040694630460AF001FCF8BD5B
:102DC000F8B506460C461546012128460AF01AFFBA
:102DD00018208DF8030001208DF80200ADF80040A6
:102DE000694630460AF0ECFBF8BDF8B506460C46DD
:102DF0001546012128460AF005FF10208DF8030032
:102E000003208DF80200ADF80040694630460AF014
:102E1000D7FBF8BDF8B506460C46154601212846F5
:102E20000AF0F0FE18208DF8030003208DF8020050
:102E3000ADF80040694630460AF0C2FBF8BD00001C
:102E4000B0040108001002400000014000380140B9
:102E500070B500241FE004EB4403104D55F8232007
:102E600004EB440305EB8303198904EB440305EBEE
:102E700083035868FFF765FF04EB44022B4603EB1E
:102E80008202118904EB440203EB820250680AF0CB
:102E900044FC601CC4B2042CDDDB70BDC00401081E
:102EA00070B5002412E004EB4403874D55F823204D
:102EB00004EB440305EB8303198904EB440305EB9E
:102EC00083035868FFF707FF601CC4B2042CEADBD9
:102ED00070BD70B504467D480078082800DB70BDE1
:102EE000FF2544EA05617A484269784800789047AE
:102EF00000BFF4E710B50024D0E0764800EB4400B2
:102F0000407805287AD2DFE800F00317417AAD0057
:102F100004EB44026C4B03EB8202118904EB440284
:102F200003EB820250680AF0DEFB20B901206949F8
:102F300001EB44014870AEE004EB4402624B03EB4A
:102F40008202118904EB440203EB820250680AF00A
:102F5000CAFB78B902205F4901EB440148700020A8
:102F60005C4901F814005C49095D41F48070FFF789
:102F7000B0FF0AE00020574901EB44014870564970
:102F8000095D41F48060FFF7A4FF84E004EB440294
:102F90004D4B03EB8202118904EB440203EB8202E6
:102FA00050680AF0A0FBD0B94A4810F8141010F885
:102FB0001400401C474A02F8140028291DDB032096
:102FC000114601EB440148700020114601F814003D
:102FD0004149095D41F40070FFF77BFF0DE00020DF
:102FE0003C4901F81400042001EB440148703A49BF
:102FF000095D41F48060FFF76CFF4CE045E004EBB5
:103000004402314B03EB8202118904EB440203EBCF
:10301000820250680AF067FBA8B92E4810F8141015
:1030200010F81400401C2B4A02F814000A2918DB7F
:103030000020114601F814002749095D41F4007091
:10304000FFF747FF0DE00020224901F8140004209B
:1030500001EB440148702049095D41F48060FFF7AD
:1030600038FF18E01B4810F814000A2807DA19483E
:1030700010F81400401C174901F8140004E0002067
:10308000144901EB4401487005E00020114901EBAF
:103090004401487000BF00BF601CC4B2042CFFF69E
:1030A0002CAF10BD0D490870704710B5FFF722FF17
:1030B00010BD10B5FFF7F4FE0548AFF21101026B29
:1030C0000320904710BD0000F0040108EA00002032
:1030D00050070020B500002020050108B4000020A2
:1030E00022204FF0D8410880704770474FF0D841F8
:1030F00048807047012803DB0121E54A116002E0A6
:103100000021E34A1160704708B5012108020AF066
:103110006CFD01214FF4F2700AF074FD18208DF857
:10312000030003208DF802004CF20370ADF800009C
:103130006946D8480AF044FA4FF68070ADF80000AE
:103140006946D5480AF03CFA0120ADF8000069460E
:10315000D2480AF035FA3020ADF800006946CD4873
:103160000AF02EFA4FF48050ADF8000018208DF8C8
:10317000030003208DF802006946C9480AF020FACE
:103180000220ADF8000010208DF8030003208DF818
:1031900002006946C3480AF013FA0221C1480AF046
:1031A000BCFA08BD00B597B0FFF7AEFF0320019051
:1031B000002002900320039001200490002005903D
:1031C0000690079006200890002009900A90102091
:1031D0000B9000200C900E900F9010904FF48050A8
:1031E00011900020129013900D90149001A815904A
:1031F000169008A80BF0E4F9012106200BF048FB1B
:1032000017B000BD4FF0D842108051807047014682
:103210004FF0D84001804088704722204FF0D842BC
:103220001080104641884088704770B50120FFF734
:1032300061FFFFF7B7FF3220FFF713FD01210020E8
:10324000FFF7E0FF3220FFF70CFD3220FFF709FD0A
:103250004FF0D840458848F6891085427ED121211B
:103260000720FFF7CFFF01210020FFF7CBFF23212D
:103270000720FFF7C7FF00211020FFF7C3FF322010
:10328000FFF7EFFC33210720FFF7BCFF46F2680190
:103290001120FFF7B7FF4FF4C0610220FFF7B2FF24
:1032A00040F604010320FFF7ADFF00210C20FFF7DB
:1032B000A9FF40F60C010D20FFF7A4FF4FF42451A5
:1032C0000E20FFF79FFFB8211E20FFF79BFF42F65D
:1032D0003F310120FFF796FF00211020FFF792FFFA
:1032E00000210520FFF78EFF00210620FFF78AFF4F
:1032F0004EF61C711620FFF785FF03211720FFF7FC
:1033000081FF40F233210720FFF77CFFC0210B2013
:10331000FFF778FF00210F20FFF774FF0021412005
:10332000FFF770FF00214220FFF76CFF00214820CB
:10333000FFF768FF40F23F114920FFF763FF0021CC
:103340004A20FFF75FFF00214B20FFF75BFF4FF4A0
:103350006F414420FFF756FF002100E04EE045207A
:10336000FFF750FF40F23F114620FFF74BFF40F2BE
:1033700007713020FFF746FF4FF401713120FFF74E
:1033800041FF4FF401713220FFF73CFF40F2025140
:103390003320FFF737FF40F207513420FFF732FFA9
:1033A0004FF401713520FFF72DFF4FF401713620E6
:1033B000FFF728FF40F202513720FFF723FF40F2CA
:1033C00002313A20FFF71EFF40F202313B20FFF7A7
:1033D00019FF00212320FFF715FF00212420FFF70C
:1033E00011FF4FF400412520FFF70CFF00214F2073
:1033F000FFF708FF00214E20FFF704FF4CF2503486
:1034000001E0601E84B2002CFBDC70BD2DE9F047AA
:1034100004460D4616461F46C7F1EF00C5F1EF0101
:1034200040EA01201FFA80F8A146B246294620460C
:103430000CF05CF941464420FFF7E4FE4946452084
:10344000FFF7E0FE51464620FFF7DCFEBDE8F087BF
:1034500070B504460D46294620460CF047F9FFF7A3
:10346000DCFE70BD70B504460D461646B4F5A07F6F
:1034700001DCF02D00DD70BD294620460CF036F948
:1034800022204FF0D84108800846468000BFF2E76E
:10349000840121420014014000180140001C014039
:1034A000002001400008014010B510222021A24850
:1034B000FFF79BFC8022D100A048FFF796FC4FF459
:1034C0008072D1019E48FFF718FC01209D490860D9
:1034D000082201039C48FFF788FC01209B49C1F8A2
:1034E000B00100219A4800F0FBF9012099490860D9
:1034F0000020086001209849086010BD2DE9F041C6
:1035000005460E4617460020934908602946904814
:1035100000F0BEF98046002406E0FF218C4800F050
:10352000B7F93055601CC4B2BC42F6DB01208A49B1
:1035300008604046BDE8F0812DE9F04105460C46A3
:1035400016460020844908602946814800F0A0F909
:103550008046002706E014F8011B7D4800F098F92A
:10356000781CC7B2B742F6DB01207B4908604046B1
:10357000BDE8F0811FB579A103C9CDE9020105229B
:1035800002A93020FFF7D8FF052269461020FFF777
:10359000B5FF002406E01DF80400A52800D003E0D4
:1035A000601CC4B2052CF6DB00BF052C02D0012044
:1035B00004B010BD0020FBE770B504460D460020A6
:1035C000654908602146624800F062F906462946CE
:1035D0005F4800F05DF901206249C1F8A80130465A
:1035E00070BD70B5044600205B490860214658480C
:1035F00000F04EF9FF21564800F04AF90546012037
:103600005849C1F8A801284670BD70B5054600208C
:103610005049086020222946A020FFF78DFF012095
:103620005149C1F8940100BF46488038006800281D
:10363000FAD10720FFF7D5FF044621462720FFF7E0
:10364000BBFF04F0100028B1FF21E120FFF7B4FF19
:10365000102070BD04F0200008B12020F9E7FF2001
:10366000F7E770B504460720FFF7BBFF054629467C
:103670002720FFF7A1FF05F0400050B1202221468E
:103680006120FFF73BFFFF21E220FFF795FF0020BD
:1036900070BD0120FCE710B500202E49086005220E
:1036A00032492A20FFF748FF01212120FFF784FF3C
:1036B00001212220FFF780FF0A212520FFF77CFF50
:1036C00020213120FFF778FF0F212620FFF774FF1C
:1036D0000F212020FFF770FF01202349C1F894013A
:1036E00010BD10B500201B4908600522204930207C
:1036F000FFF722FF05221D492A20FFF71DFF0121A8
:103700002120FFF759FF01212220FFF755FF7A21E1
:103710002420FFF751FF0A212520FFF74DFF0F213D
:103720002620FFF749FF0E212020FFF745FF01204B
:103730000D49C1F8940110BD00100140001C01406A
:1037400000200140BC012442000C014000802142C5
:103750000038004094012242A8812342A5A5A5A5D6
:10376000A500000000802342000022422905010834
:103770002405010808B5012108030AF043FA0121D4
:1037800008460AF03FFA012104200AF03BFAE02043
:10379000ADF8000018208DF8030003208DF802001A
:1037A0006946834809F00CFF08BD08B5012188036C
:1037B0000AF035FA012108460AF024FA012108200E
:1037C0000AF020FA4FF46040ADF8000018208DF8A0
:1037D000030003208DF802006946764809F0F0FEE8
:1037E00008BD08B50121C8030AF019FA01210846ED
:1037F0000AF008FA012108200AF004FA3820ADF88E
:10380000000018208DF8030003208DF8020069469F
:10381000684809F0D5FE08BD02884FF6C7731A4004
:10382000028011B9028802802DE0012904D10288AA
:1038300042F00802028026E0022904D1028842F008
:10384000100202801FE0032904D1028842F018020E
:10385000028018E0042904D1028842F0200202808C
:1038600011E0052904D1028842F0280202800AE012
:10387000062904D1028842F03002028003E0028867
:1038800042F038020280028842F040020280704713
:1038900070B505460E46002405E0601CC4B2C82C75
:1038A00001DD002070BD022128460AF002FC00283C
:1038B000F3D0314628460AF0A9FB002405E0601C3D
:1038C000C4B2C82C01DD0020ECE7012128460AF033
:1038D000F0FB0028F3D028460AF09AFBC0B2E1E7DB
:1038E00030B585B004460D463348844201D1FFF718
:1038F00041FF3248844201D1FFF757FF30488442EC
:1039000001D1FFF76EFF002120460AF04EFB002098
:10391000ADF800004FF48270ADF80200ADF804502D
:103920000020ADF80600ADF808004FF40070ADF8C7
:103930000A001020ADF80C000020ADF80E000720A2
:10394000ADF81000694620460AF08AFA01212046A7
:103950000AF02BFBFF212046FFF79AFF05B030BD90
:103960002DE9F04180460E461446002506E0775DBD
:1039700039464046FFF78CFF681CC5B2A542F6DB0E
:103980002046BDE8F0812DE9F04180460F461446FF
:10399000002607E000214046FFF77AFF0546BD55A7
:1039A000701CC6B2A642F5DB2046BDE8F0810000DF
:1039B00000080140000C0140003001400038004088
:1039C000003C004001460020012900D011B9FE4B07
:1039D000197000E0262070470146FC4A506820F02C
:1039E000FF0008435060704770B5044605E0F74893
:1039F000456B05F0450000B100E0F8E700BF04208A
:103A00000BF05DF920B104200BF063F9032070BDC9
:103A100001200BF054F920B101200BF05AF90120DC
:103A2000F5E7EA480069A04201D01020EFE740F234
:103A3000FF50E64988630846406908210840C0B243
:103A4000E5E72DE9FC4107460D460026002400204D
:103A5000009001900820DE49086010204860402056
:103A600088600020C8604FF48060086108460BF051
:103A7000AFF81020FFF7B8FF044614B12046BDE8A8
:103A8000FC81D44800880004D14908603720486090
:103A9000402088600020C8604FF4806008610846BC
:103AA0000BF096F83720FFF79FFF04460CB1204635
:103AB000E5E74FF0FF30C849086008204860302033
:103AC00088600220C8600020086101204861084623
:103AD0000BF0A7F80020BE49086033204860402062
:103AE00088600020C8604FF48060086108460BF0D1
:103AF0006FF83320FFF778FF04460CB12046BEE78D
:103B00000CE04FF400100BF0DAF838B10BF0ABF822
:103B10004DF82600761C022E00D306E0AB48406B21
:103B200040F22A6108400028EBD000BF08200BF0CB
:103B3000C6F820B108200BF0CCF804209FE7022043
:103B40000BF0BDF820B102200BF0C3F8022096E77D
:103B500020200BF0B4F820B120200BF0BAF806209A
:103B60008DE74FF400700BF0AAF828B14FF4007005
:103B70000BF0AFF8072082E740F2FF500BF0A9F8F6
:103B800000980006009901F47F4140EA0120009965
:103B900001F47F0140EA1120009940EA1160686059
:103BA00001980006019901F47F4140EA0120019942
:103BB00001F47F0140EA1120019940EA1160286078
:103BC00020465CE77CB5054600240020009001906B
:103BD00000260DB1022600E000267C48406900F076
:103BE000007008B10E207CBD7A49098888B2694608
:103BF000FFF727FF04460CB12046F4E7019800F4D4
:103C0000802060B373480088000471490860372041
:103C10004860402088600020C8604FF480600861E0
:103C200008460AF0D5FF3720FFF7DEFE04460CB148
:103C30002046D8E76648066006206549486040206F
:103C400088600020C8604FF48060086108460AF070
:103C5000BFFF0620FFF7C8FE04462046C3E7252025
:103C6000C1E770B5044600255C480078032801D1FF
:103C7000272070BD5948007838B15848007801288D
:103C800003D056480078022818D1022C01D32720EF
:103C9000EFE7E0B2FFF796FF05467DB94B48406875
:103CA00020F4C0504949486008464068A1B240EA43
:103CB000C120464948600846406848602846D8E721
:103CC00010B504464248046007204149486040203E
:103CD00088600020C8604FF48060086108460AF0E0
:103CE00077FF0720FFF780FE10BDF0B501460020EA
:103CF00000223A4B1B7881F85630364B1B88A1F8CE
:103D00005430374B1B681A0E93090B70C2F38303B0
:103D10004B7002F003038B70314B1B68C3F30742F7
:103D2000CA702F4B1B88C3F307220A712C4B1A78D9
:103D30004A715B681A0E1301CB80294B5B68C3F391
:103D40000742CB8843EA1213CB8002F00F030B72B9
:103D5000234B9B88C3F30722D3094B72C2F3801312
:103D60008B72C2F34013CB72C2F300130B730023A8
:103D70004B731A4B1B783BB1184B1B78012B03D0AC
:103D8000164B1B78032B5ED193071B0D0B61144B55
:103D90001A790B6943EA82030B61114B9B681A0E77
:103DA0000B6943EA92130B61C2F3C2030B7502F075
:103DB00007034B750A4B9B68C3F3074253098B7586
:103DC000C2F38203CB750DE0C800002000800140E3
:103DD00090030020C4000020A4030020C0000020A5
:103DE000BC03002093075B0F0B76F74B1B89C3F3D3
:103DF00007220B7E43EAD2130B760B695B1C00246F
:103E0000C1E912340B7E9B1C012404FA03F3DC1776
:103E1000D1E91256A5FB037C06FB03C305FB043363
:103E2000C1E912730C7A0123A3400B650024D1E988
:103E300012650B6DA6FB037C05FB03C306FB043375
:103E4000C1E912732EE0E14B1B78022B2AD1DE4B25
:103E50001A7993069B0A0B61DB4B9B681A0E0B6960
:103E600043EA02230B61D84B9B68C3F307420B69FB
:103E700013430B61D44B1B89C3F307220B695B1CF3
:103E80004FF40074A3FB04464FF480630025A4FBA9
:103E9000037C06FB03C304FB0533C1E912734FF433
:103EA00000730B65C2F3801301F8193F93065B0E94
:103EB0004B70C54B1A7A4B7843EAD2134B7002F021
:103EC0007F038B70C04BDB681A0ED309CB70C2F333
:103ED00041130B71C2F382034B7193071B0F8B715C
:103EE000B94BDB68C3F307428B7943EA92138B71BA
:103EF000C2F34013CB7100230B7202F001034B722B
:103F0000B14B9B89C3F30722D3098B72C2F3801391
:103F1000CB72C2F340130B73C2F300134B73C2F3A3
:103F200081038B7302F00303CB73A74B1A7B5308F7
:103F30000B7401234B74A64B1B681A0ECA741939F3
:103F4000A34B1B68C3F307421402CC85A04B1B880C
:103F5000C3F30722CB8D1343CB859D4B1A781406F0
:103F60000C635B681A0E0B6B43EA02440C63984BBC
:103F70005B68C3F307420B6B43EA02240C63944B68
:103F80009B88C3F307220B6B13430B63904B1A7987
:103F900034235A548E4B9B681A0E35235A548C4B3B
:103FA0009B68C3F3074214068C63894B1B89C3F3D8
:103FB00007228B6B43EA02448C63854B1A7A8B6B26
:103FC00043EA02248C63824BDB681A0E8B6B13432B
:103FD0008B637F4BDB68C3F307423C235B5C43EAA4
:103FE00012143C235C5413071C0DCC87784B9B891F
:103FF000C3F30722CB8F1343CB87754B1A7B54082F
:1040000040235C54012441235C54F0BD70B500266C
:104010004FF4803505E06F48446B04F0450000B173
:1040200003E0281EA5F10105F5D100BF15B104F08C
:10403000040028B1032604200AF04BFE304670BD70
:1040400001200AF03CFE18B1012601200AF041FED1
:1040500040F2FF500AF03DFE3046F0E72DE9F04116
:1040600005460E464FF0000805E05A48476B07F03A
:10407000450000B100E0F8E700BF04200AF01FFE91
:1040800028B104200AF025FE0320BDE8F0810120BC
:104090000AF015FE20B101200AF01BFE0120F4E712
:1040A0004C480069A84201D01020EEE740F2FF50D2
:1040B0000AF00FFE4748446904F4604018B9200C28
:1040C00030804046E1E704F4005008B11320DCE7FB
:1040D00004F4804008B11020D7E704F4004008B190
:1040E0000F20D2E74046D0E738B5002401200090E9
:1040F0000AF059FD08B9252038BD34480078042855
:1041000021D000203449086002204860C020886027
:104110000020C8604FF48060086108460AF058FD2E
:10412000FFF774FF04460CB12046E5E729484069D3
:10413000274908602748806948602648C069886028
:104140002448006AC8602148007858B11F480078A8
:10415000012807D01D480078062803D01B480078A6
:10416000022816D100201C49086003204860402026
:1041700088600020C8604FF48060086108460AF03B
:1041800027FD69460320FFF769FF04460CB120466E
:10419000B2E70E480078032820D1BDF800000004E3
:1041A0000D49086003204860402088600020C860F6
:1041B0004FF48060086108460AF00AFDFFF726FF09
:1041C00004465CB1204697E7BC030020C0000020F5
:1041D000CC0300200080014090030020FE480078BE
:1041E000042827D0BDF80000FC490860BDF8000095
:1041F0000004FB49086009204860C0208860002056
:10420000C8604FF48060086108460AF0E1FCFFF7DF
:10421000FDFE04460CB120466EE7F2484069F249C3
:104220000860F04880694860EE48C0698860ED48E1
:10423000006AC86000205FE710B505E0E948446BFC
:1042400004F0450000B100E0F8E700BF04200AF0E8
:1042500036FD20B104200AF03CFD032010BD40F2E1
:10426000FF500AF036FD0020F8E770B500264FF445
:10427000803505E0DB48446B04F0450000B103E005
:10428000281EA5F10105F5D100BF15B104F0040009
:1042900028B1032604200AF01CFD304670BD04F04E
:1042A000400018B1002640200AF013FD3046F5E723
:1042B00070B500254FF4803404E080200AF0FFFC44
:1042C00000B103E0201EA4F10104F6D100BF0CB937
:1042D000032070BD40F2FF500AF0FBFC2846F8E7CF
:1042E0002DE9F0470027002400260025A046A1461E
:1042F000B220BE4908750020086048608860C86028
:10430000086108460AF024FC03200AF041FC012061
:104310000AF03BFC00BF12E00020B1490860486091
:104320008860C8604FF48060086108460AF050FC5D
:10433000FFF7BEFF044604B903E0781CC7B24A2F5A
:10434000EADB00BF14B12046BDE8F0874FF4D5701A
:10435000A349086008204860402088600020C860A9
:104360004FF48060086108460AF032FCFFF77DFFD9
:10437000044624B90120984908704FF08049002074
:104380009749086037204860402088600020C86056
:104390004FF48060086108460AF01AFC3720FFF7E6
:1043A00023FB0446002C4BD134E000208C490860EC
:1043B00037204860402088600020C8604FF480604B
:1043C000086108460AF004FC3720FFF70DFB04469D
:1043D0000CB12046B8E7864849EA000080490860E9
:1043E00029204860402088600020C8604FF4806029
:1043F000086108460AF0ECFBFFF71EFF04460CB10B
:104400002046A1E777484669012080EAD67080F00F
:1044100001086D1CB8F1000F03D14FF6FF70854203
:10442000C3D34FF6FF70854202D31B2420468BE78F
:1044300006F08040061E32D00220674908702EE048
:104440001CE06C4866490860012048604020886094
:104450000020C8604FF48060086108460AF0B8FB8D
:10446000FFF7EAFE04460CB120466DE75D48466959
:10447000012080EAD67080F001086D1CB8F1000FB1
:1044800003D14FF6FF708542DBD34FF6FF708542B4
:1044900002D31B24204657E703204F4908702046CB
:1044A00052E77CB5002500240121302009F0AAFB49
:1044B000012140F2024009F098FB4FF4F850ADF8AA
:1044C000000018208DF8030003208DF802006946D3
:1044D000494809F075F80420ADF8000018208DF85F
:1044E000030003208DF802006946444809F068F88B
:1044F0008020ADF8000048208DF8030003208DF8DF
:10450000020069463D4809F05BF80AF013FB3120D0
:104510008DF8040000208DF805008DF806000120BC
:104520008DF8070001A808F0F6FDFFF7D9FE044654
:1045300014B9FFF7D9FD04461CB93148FFF7D5FB84
:10454000044634B92E49B1F854100804FFF7B8FBFB
:1045500004461CB90120FFF784FB04461CB11E4829
:104560000078032812D1264890F8560020B124483C
:1045700090F85600012801D10A2500E004252846BC
:10458000FFF72AFA0020FFF71DFA044620467CBDFB
:1045900010B500200AF0FCFA002010BD70B58CB0F8
:1045A00006460C4615460121022009F01EFB15485F
:1045B00008F07CFE0021134808F045FF09488030D0
:1045C000019002960395A008049000200590802099
:1045D00006908000079017E0C0000020C400002073
:1045E0009003002000800140BC03002078030020DD
:1045F000000010800080FF80001001400014014086
:10460000E00300204404024080000890002009904C
:104610004FF400500A9000200B9001A9FA4808F0CE
:10462000E7FE0021F84808F00EFF0CB070BD01460F
:10463000002002E04910421CD0B20129FAD1704793
:104640002DE9F84F8146174698460A9C4FF0000A1C
:10465000D3464D464FF0FF36B9F1000F02D1262068
:10466000BDE8F88F0020E949C862E94800780228CF
:1046700005D10402780A40EAC8574FEA68280020AA
:10468000E44988604860401E0860012048610020BD
:10469000C860086108460AF0C4FADC48406900F0C6
:1046A000007008B10E20DBE7002C21DDB4F5006FAF
:1046B0001EDC601E2040D8B92046FFF7B8FF0090EE
:1046C000D54804601020D44948604020886000200C
:1046D000C8604FF48060086108460AF079FA10203B
:1046E000FFF782F98246BAF1000F03D05046B7E7D0
:1046F0002620B5E700980001C64988600846446056
:104700004FF0FF300860012048610220C86000209F
:10471000086108460AF085FABF4807601120BE49C3
:104720004860402088600020C8604FF480600861C5
:1047300008460AF04DFA1120FFF756F98246BAF101
:10474000000F01D050468BE7B448007800285BD1B9
:10475000FEF7BDFA19E04FF400400AF0B0FA80B15C
:104760004FF0000B06E0A9488030006845F82B00A8
:104770000BF1010BBBF1080FF5D3203547F6FF769F
:1047800003E00EB904206BE7761EA048406B40F2B0
:104790002A6108400028DED008200AF090FA20B1F3
:1047A00008200AF096FA04205AE702200AF087FA55
:1047B00020B102200AF08DFA022051E720200AF0F1
:1047C0007EFA20B120200AF084FA062048E74FF450
:1047D00000700AF074FA28B14FF400700AF079FA08
:1047E00007203DE703E00AF03EFA28602D1D4FF454
:1047F00000100AF064FA0028F5D1FEF76AFA40F2D8
:10480000FF500AF066FA32E08448007801282ED181
:10481000002221464846FFF7C1FE0020804908706B
:1048200080490870804908707848C06B40F22A318E
:1048300008437649C86301200AF0C7F900E0761EF4
:1048400071484438006800F4005038B97648007860
:1048500020B97348007808B9002EF0D10EB90420B1
:10486000FEE66F48007810B16D4890F800A0504601
:10487000F6E62DE9F843804616461F46DDF82090FF
:10488000002500BF32463B464046CDF80090FFF77A
:10489000D7FE04466D1C6548854202D32046BDE81C
:1048A000F883002CEED12046F9E72DE9FF5F17468B
:1048B0009846DDE90E464FF00009CA464FF0FF3535
:1048C0005B490098086000205049C8625048007851
:1048D000022805D10402780A40EAC8574FEA68283E
:1048E00000204C4988604860401E086001204861F3
:1048F0000020C860086108460AF093F943484069FF
:1049000000F0007018B10E2004B0BDE8F09F002C3C
:1049100021DDB4F5006F1EDC601E2040D8B92046B2
:10492000FFF785FE83463C48046010203A49486002
:10493000402088600020C8604FF48060086108460D
:104940000AF046F91020FFF74FF88146B9F1000F41
:1049500003D04846D8E72620D6E7012E6CD906FBBF
:1049600004F0B0F1007F01D32620CDE74FEA0B1011
:104970002849886006FB04F048604FF0FF3008606B
:10498000012048610220C8600020086108460AF042
:1049900048F92148076012201F494860402088607C
:1049A0000020C8604FF48060086108460AF010F9E2
:1049B0001220FFF719F88146B9F1000F01D04846DF
:1049C000A2E71648007800287ED1FEF780F938E08B
:1049D0004FF400400AF073F9A8B14FF0000A08E064
:1049E0000A48803000681249096841F82A000AF133
:1049F000010ABAF1080FF3D30D48006820300C49C2
:104A000008600C4D1DE018E04404024000800140A5
:104A1000C0000020A403002090030020C800002054
:104A2000CA000020C9000020CB000020FFFF0300C7
:104A3000CC000020FFFF7F00ABE00DB9042063E74E
:104A40006D1EF948406B40F22A3108400028BFD063
:104A500008200AF034F920B108200AF03AF90420BD
:104A600052E702200AF02BF920B102200AF031F9B6
:104A7000022049E720200AF022F920B120200AF084
:104A800028F9062040E74FF400700AF018F928B121
:104A90004FF400700AF01DF9072035E709E00AF02D
:104AA000E2F8E24909680860E0480068001DDF4953
:104AB00008604FF400100AF002F90028EFD14FF41B
:104AC00080700AF0FCF800E02AE010B3D8480078C3
:104AD00038B1D7480078012803D0D548007802289B
:104AE00017D10020D34908600C204860402088601E
:104AF0000020C8604FF48060086108460AF068F83A
:104B00000C20FEF771FF8146B9F1000F01D0484635
:104B1000FAE6FEF7DEF840F2FF500AF0DAF838E085
:104B2000C5480078012834D106FB04F10022009822
:104B3000FFF734FD0020C14908700120C04908700A
:104B40000020C0490870B848C06B40F22A310843C1
:104B5000B549C8630846C06A40F00800C86200E072
:104B60006D1EB948006800F4005008B9002DF7D157
:104B70000DB90420C8E600BFB248007818B9AF48A4
:104B800000780028F8D0AD48007810B1AB4890F814
:104B900000904846B8E61CB50446002001900090FD
:104BA000AA4800880004A34908600D2048604020FE
:104BB00088600020C8604FF48060086108460AF0F1
:104BC00007F89948406B009002E09748406B0090CE
:104BD000009800F045000028F7D001200AF06FF897
:104BE00020B101200AF075F801201CBD04200AF054
:104BF00066F820B104200AF06CF80320F5E78A4833
:104C000000690D2801D01020EFE740F2FF500AF0B4
:104C100060F88548406901900198C0F343202070F6
:104C20000020E2E72DE9FF5F86B017469846149D05
:104C300000260020059004900024814603908246BF
:104C400002900195DDF818B0DDF818B0BBF1000F47
:104C500003D126200AB0BDE8F09F00207249C86247
:104C60007B4988604860401E086001204861002040
:104C7000C8600861084609F0D4FF6B48406900F03D
:104C8000007008B10E20E5E769480078022805D1D8
:104C90000502780A40EAC8574FEA6828002D1FDD50
:104CA000B5F5006F1CDC681E2840C8B92846FFF720
:104CB000BEFC05905F48056010205E4948604020BA
:104CC00088600020C8604FF480600861084609F0E1
:104CD0007FFF1020FEF788FE06461EB13046B9E77A
:104CE0002620B7E7594800880004524908600D2083
:104CF0004860402088600020C8604FF480600861F0
:104D0000084609F065FF0D20FEF76EFE06460EB15F
:104D100030469FE74448406903904FF0FF341BE062
:104D2000641E4A4800880004424908600D2048601B
:104D3000402088600020C8604FF480600861084609
:104D400009F046FF0D20FEF74FFE06460EB1304635
:104D500080E7354840690390039800F4807008B9F3
:104D6000002CDDD10CB9292074E7324807601820E7
:104D700030494860402088600020C8604FF480605F
:104D80000861084609F024FF1820FEF72DFE0646AC
:104D90000EB130465EE700202949087005980001F1
:104DA0002B498860084645604FF0FF3008600120BD
:104DB00048610020C8600861084609F032FF4FF0E2
:104DC000FF341D480078002875D1FDF780FF59E0B9
:104DD0004FF4804009F073FFE0B30198A0EB0900A5
:104DE000202838D20198A0EB090000F0030020B978
:104DF0000198A0EB0900800804E00198A0EB0900ED
:104E00008008401C02904FF0000A09E0DBF8000027
:104E100009F02DFF0AF1010A0BF1040B09F1040955
:104E200002988245F2D326E000800140CC000020A9
:104E3000C000002090030020C8000020CA0000200D
:104E4000C9000020CB00002000040240C400002064
:104E5000A403002012E04FF0000A05E05BF82A00EE
:104E600009F005FF0AF1010ABAF1080FF6D30BF1B8
:104E7000200B09F120096FF0404403E00CB9042035
:104E8000E8E6641EFA48406B40F21A6108400028C8
:104E90009ED0082009F013FF20B1082009F019FF67
:104EA0000420D7E6022009F00AFF28B1022009F009
:104EB00010FF0220CEE61AE0102009F000FF20B11A
:104EC000102009F006FF0520C4E64FF4007009F039
:104ED000F6FE28B14FF4007009F0FBFE0720B9E69A
:104EE000FDF7F7FE40F2FF50E14988633EE0E148FC
:104EF000007801283AD1102229460698FFF74EFB88
:104F00000020DD490870DD490870DD490870D84887
:104F1000C06B40F21A310843D549C8630846C06ADD
:104F200040F00800C86200E0641ED648006800F443
:104F3000005008B9002CF7D11CB9FFF7B2FA0420D1
:104F400088E64FF0FF3400E0641ECD48007820B9B9
:104F5000C948007808B9002CF6D10CB9042079E6CC
:104F6000C548007810B1C448007873E640F2FF509D
:104F700009F0AFFE04A8FFF70EFE064603E004A802
:104F8000FFF709FE06463EB99DF810000728F6D047
:104F90009DF810000628F2D030465BE62DE9FF5F51
:104FA00084B0DDE91247002600200390029000251E
:104FB00080468146019007FB04FBDDF810A0DDF878
:104FC00010A0BAF1000F03D1262008B0BDE8F09F71
:104FD0000020A749C862AC4988604860401E08604C
:104FE000012048610020C8600861084609F019FEE8
:104FF0009F48406900F0007008B10E20E5E7A34823
:105000000078022808D10402DDE90601400A40EADE
:10501000C1504912CDE90601002C1FDDB4F5006F27
:105020001CDC601E2040C8B92046FFF700FB03903F
:10503000974804601020964948604020886000200E
:10504000C8604FF480600861084609F0C1FD102077
:10505000FEF7CAFC06461EB13046B6E72620B4E786
:10506000012F6FD907FB04F0B0F1007F01D3262098
:10507000ABE78648007838B184480078012803D02F
:105080008248007802282DD1824800880004804997
:10509000086037204860402088600020C8604FF4D6
:1050A00080600861084609F093FD3720FEF79CFCFC
:1050B00006460EB1304688E77548076017207449E8
:1050C0004860402088600020C8604FF4806008611C
:1050D000084609F07DFD1720FEF786FC06460EB156
:1050E000304672E76A4906980860192048604020F7
:1050F00088600020C8604FF480600861084609F0AD
:1051000067FD1920FEF770FC06460EB130465CE7DD
:10511000039800015C49886007FB04F048604FF089
:10512000FF300860012048610020C860086108461F
:1051300009F077FD4F480078002871D1451EFDF732
:10514000C6FD40E0F3E04A48406B00F48040A8B35D
:10515000ABEB080020281ED2ABEB080000F00300E8
:1051600018B9ABEB0800800803E0ABEB080080083F
:10517000401C01904FF0000909E0DAF8000009F046
:1051800076FD09F101090AF1040A08F10408019801
:105190008145F2D30FE04FF0000905E05AF82900ED
:1051A00009F065FD09F10109B9F1080FF6D30AF11B
:1051B000200A08F120086FF0404504E0FFE70DB930
:1051C000042002E76D1E2A48406B40F21A31084065
:1051D0000028B8D0082009F072FD20B1082009F09D
:1051E00078FD0420F1E6022009F069FD20B10220DB
:1051F00009F06FFD0220E8E6102009F060FD20B103
:10520000102009F066FD0520DFE64FF4007009F07C
:1052100056FD30B14FF4007009F05BFD0720D4E675
:1052200041E04FF4807009F04AFD00B31748007860
:1052300038B116480078012803D0144800780228B5
:105240002AD10020124908600C2048604020886064
:105250000020C8604FF480600861084609F0B8FC7F
:105260000C20FEF7C1FB06460EB13046ADE613E05A
:1052700000800140C8000020CA000020C9000020B2
:10528000CB00002000040240A4030020C000002046
:1052900090030020C4000020FDF71BFD40F2FF50EA
:1052A00009F017FD43E0E448007801283FD107FBEF
:1052B00004F110220498FFF771F90020DF4908700B
:1052C0000120DF4908700020DE490870DE48C06B0D
:1052D00040F21A310843DC49C8630846C06A40F00E
:1052E0000800C8624FF0FF3500E06D1ED748006827
:1052F00000F4005008B9002DF7D11DB9FFF7D1F81F
:10530000042062E64FF0FF3500E06D1ECD480078C6
:1053100020B9CA48007808B9002DF6D10DB904208B
:1053200053E6C648007810B1C44800784DE640F214
:10533000FF5009F0CEFC02A8FFF72DFC064603E063
:1053400002A8FFF728FC06463EB99DF8080007288A
:10535000F6D09DF808000628F2D0304635E610B5A4
:10536000B948406B00F4807070B3B54800780128EC
:1053700014D10020B64908600C20486040208860A5
:105380000020C8604FF480600861084609F020FCE6
:105390000C20FEF729FBA949087002E00020A7496C
:1053A0000870A948806B40F48070A749886308465C
:1053B000C06B4CF23A318843A349C8630120A1492C
:1053C00008709E48007810BD022009F078FC68B192
:1053D000022009F07EFC9C48C06B4CF23A318843B5
:1053E0009949C863022095490870ECE7082009F044
:1053F00066FC68B1082009F06CFC9348C06B4CF265
:105400003A3188439049C86304208C490870DAE730
:10541000202009F054FC68B1202009F05AFC8A4889
:10542000C06B4CF23A3188438749C86306208349F0
:105430000870C8E7102009F042FC68B1102009F09C
:1054400048FC8148C06B4CF23A3188437E49C863BE
:1054500005207A490870B6E74FF4007009F02FFC78
:1054600070B14FF4007009F034FC7748C06B4CF217
:105470003A3188437449C863072070490870A2E72D
:105480000020A0E710B5FFF76AFF10BD70B5044615
:10549000002514B92625284670BD6E4800880004F2
:1054A0006B4908600D204860402088600020C8607B
:1054B0004FF480600861084609F08AFB0D20FEF772
:1054C00093FA05460DB12846E6E75F48406920603B
:1054D0002846E1E708B5002000906846FFF7D6FFB0
:1054E00008B1FF2008BD0098C0F34320FAE72DE97A
:1054F000FE4F83460C46914600200290002625462A
:105500002C46700240EAD5566D025348016A0620C7
:1055100088470BF00300F0B14FF0000A18E04FF499
:10552000007000904FEA4A20471946EBE0733A4674
:105530004A48FFF79EF902904FF4007247495846D7
:1055400009F015FD0BF5007B0AF1010000F0FF0AE0
:10555000CA45E4DB16E0B9F1010F09D14FF4007040
:105560002A46334600905846FFF783F9029009E037
:105570004FF400702A463346CDE900095846FFF73C
:1055800094F902903448C169062088470298BDE822
:10559000FE8F2DE9FE4F81460C4692460020029078
:1055A000002625462C46700240EAD5566D022A4850
:1055B000016A0620884709F00300F0B14FF0000BA4
:1055C00018E04FF400724946244809F0D0FC4FF42B
:1055D000007000904FEA4B20471946EBE0733A46C3
:1055E0001E48FFF71FFB029009F500790BF101003F
:1055F00000F0FF0BD345E4DB16E0BAF1010F09D14F
:105600004FF400702A46334600904846FFF70AFBE5
:10561000029009E04FF400702A463346CDE9000AB3
:105620004846FFF7BBFC02900B48C169062088473B
:105630000298BDE8FE8F0000C8000020CA000020CC
:10564000C9000020CB00002000800140000402407F
:1056500090030020C40000205007002038040020E0
:1056600010B570480078401C6E4908706E480A46B4
:105670001278815C6D4808F08FFE6B4800786949AC
:10568000097888420CDC0020694908706549087077
:1056900068490870002240F22661644808F01BFE49
:1056A00010BD65490870704710B5044600212046BA
:1056B00007F0C9FE6421204607F0DAFE01212046EA
:1056C00007F0C1FE10BD10B540F22441574808F064
:1056D000E7FEC0B1554808F063FE584807F0CAFE1F
:1056E000C0F1640056490870FD24210655484269FE
:1056F00051480078904740F224414C4808F0FAFEA7
:105700004E48FFF7D1FF40F22661484808F0C8FE36
:1057100008B1FFF7A5FF10BD10B58CB004460121FC
:10572000084608F062FA012240F224413F4808F09E
:10573000D2FD012240213D4808F0F2FD3F4807F02C
:10574000B5FD3A48001D01900294002003906420AA
:10575000049000200590802006900020079008907B
:1057600009904FF480500A9000200B9001A9334813
:1057700007F03EFE0121314807F065FE0CB010BD78
:1057800000B587B0012144F2050008F03BFA4FF460
:105790000070ADF8180003208DF81A0018208DF85D
:1057A0001B0006A9284807F00BFF4FF48060ADF8F6
:1057B000180004208DF81B0006A9234807F000FFFD
:1057C00025208DF8040003208DF805008DF80600D3
:1057D00001208DF8070001A807F09DFC4FF416503A
:1057E00002900020ADF80C00ADF80E00ADF81000EE
:1057F000ADF814000C20ADF8120002A90B4808F017
:10580000D2FC012240F22551084808F064FD012134
:10581000064808F054FD0A48401CFFF77DFF07B01A
:1058200000BD0000D8000020010700200038014022
:10583000D9000020D7000020D000002058000240EE
:10584000380600205007002000080140D3490870A6
:10585000704770B50446D2480078082800DB70BD58
:10586000FE2544EA0561CF484269CD48007890475B
:1058700000BFF4E7034600BFA3F5C072C2EB0210FD
:10588000020140F62E5092FBF0F081B2002901DDBA
:10589000F02901DD002070470846FCE7034600BF01
:1058A000A3F5E67202EB8200820140F6764092FB9D
:1058B000F0F081B2002902DDB1F5A07F01DD00200A
:1058C00070470846FCE770B500240021B648FDF794
:1058D000DFFF05464FF6FF7000EA05240021B248BD
:1058E000FDF7D6FF05462C43E410C4F30B0070BD52
:1058F0002DE9F04186B006460F4600241FE0002047
:10590000AA490860D021A848FDF7C2FF0120FDF791
:10591000A8F9FFF7D8FF2DF814009021A248FDF751
:10592000B7FF0120FDF79DF9FFF7CDFF03A921F88F
:10593000140001209E49C1F8B001601C84B2062CFD
:10594000DDDB002428E0062522E003A830F815005E
:1059500003A931F8141088420ADD03A830F8158035
:1059600030F8150003A921F8140003A820F81580C9
:105970003DF815003DF81410884207DD3DF815800C
:105980003DF815002DF814002DF81580681C85B21F
:10599000052DDADB601C84B2062CD4DBBDF80E10BA
:1059A000BDF810201144BDF812201144BDF8142098
:1059B000114440F6FF72A2EBA10188B2FFF76EFF1F
:1059C0003080BDF80210BDF804201144BDF8062057
:1059D0001144BDF80820114440F6FF72A2EBA1016A
:1059E00088B2FFF747FF388006B0BDE8F0811CB5EC
:1059F0007048007805287CD2DFE800F0030A2960AF
:105A000096006D48006810B901206A4908709DE051
:105A100069480068B8B9694601A8FFF769FF022024
:105A200064490870002065490880BDF804004FF4FF
:105A3000801141EA8020BDF8001040EA01042046B0
:105A4000FFF707FF02E000205A4908707EE05A483D
:105A50000068F8B9594801880088401C574A1080EE
:105A600019292ADB694601A8FFF742FF03205149A3
:105A70000870002051490880BDF804004FF400115F
:105A800041EA8020BDF8001040EA01042046FFF7FB
:105A9000E0FE12E0042047490870002047490880D2
:105AA000BDF804004FF4800141EA8020BDF80010E9
:105AB00040EA01042046FFF7CCFE47E03E4800687C
:105AC000F0B93E4801880088401C3C4A10800A29F1
:105AD00029DB694601A8FFF70BFF00203749088042
