:020000040800F2
:10000000E02E0020B16000085503000857030008E7
:100010005B0300085F0300086303000800000000A2
:10002000000000000000000000000000670300085E
:100030006903000800000000AF3A000837370008E5
:10004000CB600008CB600008CB6000086525000885
:10005000CB600008CB600008CB600008CB600008D4
:10006000CB600008CB600008CB600008CB600008C4
:10007000CB600008CB600008CB600008CB600008B4
:10008000CB600008CB600008CB600008CB600008A4
:10009000CB600008CB600008CB600008CB60000894
:1000A000CB600008CB600008CB600008CB60000884
:1000B000D91F0008F51F000811200008CB600008B8
:1000C000CB600008CB600008CB600008CB60000864
:1000D000CB600008D3290008CB600008CB60000883
:1000E000CB600008CB600008CB600008DFF80CD0C4
:1000F00006F002F80048004781010008E02E0020C9
:1001000010B501F0B5FF10BD10B52C4800F07040DF
:1001100000F10070294900EB4110891E8863C81C5A
:1001200000F0704000F10070C91C00EB4110C91EC6
:10013000486301F0EBFF00F0BFFE01F083FF01F028
:100140001BFD10BD10B500214FF0006003F0DBFD7A
:1001500010BD10B5012002F042F802F0CDFA02F015
:10016000FBFC10BD10B5FFF7CFFF03F0E0FCFFF77D
:10017000F0FF1348AFF27701026B0220904710BDE9
:1001800010B5FFF7DFFF03F0FCF9FFF7EBFF0C48BA
:10019000C1680C4888470C4908700948C1680B4879
:1001A00088470B4908700648C1680A4888470A49C9
:1001B0000870034948688047002010BDC600002031
:1001C0008405002039020008000000207F0200089A
:1001D000020000201D03000801000020704770B5D8
:1001E00005460C46287800F07000102804D020281E
:1001F0000AD0302815D10FE02146284600F0E1F959
:1002000068781949087015E02146284600F02AFC54
:10021000204600F0AFF90DE02146284600F084FCAE
:1002200008E0FF202070002060701020A0705A208D
:10023000E07000BF00BF70BD02F0B6FC01200B49AA
:1002400081F84000002081F841000949086009490F
:10025000C1F8B40100F018F905E00748016902206F
:10026000884700F018F9F8E7C400002020010020BA
:10027000B40122420000224284050020704746E07B
:10028000234801690A20884710202249087013205A
:100290002149487440F6FF70C968488006201E490D
:1002A000C968486002201C49C968886019480078FC
:1002B00012280FD005DC20B3102807D0112824D134
:1002C00007E0132811D019281FD11BE000F079FB9B
:1002D0001CE01BE00F48806B006828B901200D4925
:1002E000896B086000F06DFB10E00A48806B0068C5
:1002F000012805D100200749896B086000F061FBE7
:1003000004E003E001F011FD00E000BF00BFB7E72B
:1003100084050020C4000020DC01002008B500F0A6
:1003200068FC13E00A48016941F288308847009070
:100330009DF80300082804D0DF2805D100F001FD56
:1003400003E00098804700E000BF00BFEAE700003C
:1003500084050020704700BFFEE700BFFEE700BF36
:10036000FEE700BFFEE77047704700007B4890F84B
:10037000410038B90120794981F84100002081F815
:10038000400006E00020754981F84100012081F815
:100390004000704710B500207149087002F0F6FC6B
:1003A00010BD10B5044600206D49488002F015FDCF
:1003B0006C48816901208847204602F0A0FC202873
:1003C00020D102F0E3FC13E06648816902208847EF
:1003D00063484088401C6249488008464088052898
:1003E00006DB1320087008464088401C488010BD7A
:1003F0005A4802F0B1FC0028E6D15B495748FFF7A4
:10040000EEFE06E01120564908700846C088401CE0
:10041000C88000BFEBE710B50446002050490870C3
:1004200014E04F48007870B15048C068401C4F49F4
:10043000C8604D48007840F080004B49087049483A
:1004400081690A2088472046FFF7ABFF444840787F
:100450000028E6D110BD002112E0404890F840008D
:100460003E4A02EB4010405C92F841203B4B03EBCC
:100470004212525C904201D000207047481CC1B229
:100480002029EADB0120F8E710B520203449087064
:1004900002F07CFC10BD10B531480078202859D1FD
:1004A0002E4991F840102D4A02EB411002F054FC05
:1004B00000284FD102F091FC284890F840002749CD
:1004C00001EB4010007800F0800060B3FFF7C3FF3D
:1004D000E8B1224890F84000204901EB4010007834
:1004E00000F08000212812D1112091F840101B4A01
:1004F00002EB41110870114691F8401002EB4110D7
:100500001949FFF76CFEA1201749087016E013493E
:1005100091F84010114A02EB41101349FFF75FFEBA
:10052000FFF724FF0AE00D4991F840100B4A02EB57
:1005300041100D49FFF753FEFFF718FF0A4802F07C
:10054000DEFB202803D101200949086002E00020D9
:100550000749086002F01AFC10BD000020010020CD
:10056000620100208405002000010020C40000205A
:10057000B40122420146204AD2694A601E4A926B67
:100580008A601D4A1268CA608A69521C8A611B4AC5
:1005900092680A611A4A527C0A775A224A7770474F
:1005A0000146164A528A8A80144A928ACA80134A9D
:1005B000D28A0A81114A127C8A70104A527CCA700F
:1005C000704710B504460B46207800F07F001128D4
:1005D00002D012280CD105E01846FFF7CBFF1120FE
:1005E000187006E01846FFF7DBFF1220187000E0D5
:1005F00000BF00BF10BD000020040020C400002088
:10060000DC01002008BBFE4A526B526802B1704701
:100610000023FC4A526A13600A2906DCF94AD269AF
:10062000A2F5A072F74B1A6230E00F2906DCF54AFA
:10063000D269A2F54862F34B1A6227E0F14AD26907
:10064000A2F51652EF4B1A6220E0ED4A526B126986
:1006500002B1DCE70123EB4A526A13600A2906DC87
:10066000E84AD26902F5A072E64B1A620EE00F2941
:1006700006DCE44AD26902F54862E24B1A6205E000
:10068000E04AD26902F51652DE4B1A62DD4A92F850
:1006900030201AB90123DB4A82F8303000BFB6E7B8
:1006A00008BBD74A526B926802B170470023D54A03
:1006B000126C13600A2906DCD24A926BA2F5A07272
:1006C000D04BDA6330E00F2906DCCE4A926BA2F5FC
:1006D0004862CC4BDA6327E0CA4A926BA2F5165205
:1006E000C84BDA6320E0C64A526B526902B1DCE7BC
:1006F0000123C44A126C13600A2906DCC14A926BBA
:1007000002F5A072BF4BDA630EE00F2906DCBD4A8A
:10071000926B02F54862BB4BDA6305E0B94A926B13
:1007200002F51652B74BDA63B64A92F84C201AB962
:100730000123B44A82F84C3000BFB6E7E0B900228A
:10074000B04B9B681A601E2906DCAE4A1268A2F5FF
:10075000A072AC4B5A602BE0232906DCA94A126830
:10076000A2F54862A74B5A6022E0A64A1268A2F599
:10077000A052A44B5A601BE00122A24B9B681A6056
:100780001E2906DC9F4A126802F5A0729D4B5A6032
:100790000EE0232906DC9B4A126802F54862994B59
:1007A0005A6005E0974A126802F5A052954B5A60CC
:1007B000944A127D12B90122924B1A75704710B5F6
:1007C00004460A2C0CDC002C0ADD8F480078012836
:1007D0001DD001208C490870642001F0D8F816E083
:1007E0000F2C0ADC88480078022810D002208649A5
:1007F00008701E2001F0CBF809E083480078032838
:1008000005D00320804908700A2001F0C0F81E2C92
:100810000CDC002C0ADD7D48007801281DD0012069
:100820007A490870642001F09FF816E0232C0ADC56
:1008300076480078022810D00220744908701E20E3
:1008400001F092F809E071480078032805D00320F0
:100850006E490870142001F087F874B96B4800786D
:1008600004280AD00420694908706549888A01F083
:100870007BF86349488A01F08AF810BD70B50546D7
:100880002C4660785E490870A08830B111280BD0E2
:1008900012280ED01F2815D110E0002001F0E7F932
:1008A00000205A4908700EE0E1880120FFF746FF5A
:1008B00009E0E1880020FFF741FF04E000205149F2
:1008C000086000E000BF00BF608810285CD2DFE84D
:1008D00000F008121B232C343C454D5B5B5B5B5BDB
:1008E0005B56012001F0C3F9022001F0C0F900209D
:1008F0004549087049E0E1880020FFF783FEE18860
:100900000120FFF7CDFE40E0012001F0B0F9E188C1
:100910000120FFF7C5FE38E0E1880120FFF772FEF5
:10092000E1880120FFF7BCFE2FE0E1880020FFF7FF
:1009300069FE022001F09BF927E0E1880120FFF722
:1009400061FE022001F093F91FE0E1880020FFF72B
:1009500059FEE1880020FFF7A3FE16E0012001F018
:1009600086F9E1880020FFF79BFE0EE0E188012078
:10097000FFF748FEE1880020FFF792FE05E0002027
:100980002049C861886300E000BF00BFA079FFF77D
:1009900016FF207A012806D11948806BC06810B96B
:1009A00001F0B1F80CE0207A50B91548806BC068AE
:1009B000012805D101F0D8F800201149896BC860E1
:1009C00070BD10B51248407C28B11149C86800F0CC
:1009D0005CFE00F0ADFA10BD70B504462546A8785F
:1009E0000B4989680870A888094989684880B5F961
:1009F0000600074989684860B5F90800044909E01C
:100A0000C400002020040020030000200400002077
:100A1000DC01002089688860B5F90A0033498968DB
:100A2000C860B5F90C00314989680861B5F90E0054
:100A30002E49896848612D4928698968886100F0D4
:100A40004CFA70BD10B5012001F011F9022001F03F
:100A50000EF9002001F00BF901F086F8002024497E
:100A6000087010BD70B505460C46287800F07F0070
:100A70002138082837D2DFE800F0040A1036152B99
:100A8000201A2846FFF7A8FF212020702CE02846D6
:100A9000FFF7F4FE2220207026E0FFF7D3FF23208B
:100AA000207021E001F060F8252020701CE0192062
:100AB0000F4908702820207016E001200D490860B9
:100AC0000B49896B086100F0F7F9272020700BE0D3
:100AD0000020084908600649896B086100F0ECF9BC
:100AE0002620207000E000BF00BF70BDDC010020A8
:100AF000C40000208801214270B504462546A9881B
:100B000013484182E98881822989C182A8781049E5
:100B1000087401F0D3FA0E49488A00F038FF0C49F6
:100B2000888A00F021FF70BD70B505460C46287814
:100B300000F07F00302805D12846FFF7DDFF302088
:100B4000207000E000BF00BF2046FFF713FD70BD1E
:100B5000C400002010B5044603E0D248816901209A
:100B60008847D148C0796428F7DA72B6CF48008840
:100B7000401CCE490880CC4841790830445408389C
:100B80004079401CC84948710846C079401CC8716A
:100B900008464079642801D100204871C348008884
:100BA000401E80B2C149088000B962B610BDBE497E
:100BB0008A790831885C72B6BC490988491CBB4AED
:100BC0001180B9498979491CB74A91711146C9798F
:100BD000491ED17111468979642901D10021917191
:100BE000B2490988491E89B2B04A118001B962B67A
:100BF00070470020AC49087048718871C87170470F
:100C000010B503E0A748816901208847A64800780D
:100C10000028F7D1FFF7EDFF0120A349087010BDB0
:100C2000024640238A4206DD501A984201DD002028
:100C300070470120FCE7881A984201DD0020F7E7A1
:100C40000120F5E710B59848C07998B90020964979
:100C5000087003E09348816901208847944890F820
:100C60004C000028F6D1924890F830000028F1D1CD
:100C7000FF2010BD8C4881790830405C8A4908719A
:100C80000020F6E710B5FFF792FF012802D00228F6
:100C90001CD10DE08448807820B14021012001F072
:100CA00012F804E06FF03F01012001F00CF80EE0B3
:100CB0007D48C07820B14021022001F004F804E012
:100CC0006FF03F01022000F0FEFF00E000BF00BF18
:100CD00010BD10B533E07448C07960B9744890F81D
:100CE0004C0040B9724890F8300020B900206E499D
:100CF0000870FF2010BD6C484078012803D06A4876
:100D00004078042807D16A4A116AD069FFF788FF42
:100D100008B10020EEE764484078022803D062481A
:100D20004078082807D1624AD16B906BFFF778FFB3
:100D300008B10020DEE75B48816901208847CAE7E7
:100D4000704710B55848007800287DD000205649DB
:100D5000487002200870FFF775FF00B110BDFFF763
:100D600091FF51480079012802D14F49487002E0B3
:100D700002204D49487092E04B484078012818D134
:100D8000FFF760FF00B1E9E7FFF77CFF4648007915
:100D900001280AD1FFF756FF00B1DFE7424800798A
:100DA000012822D1FFF76EFF1FE004203E49487062
:100DB0001BE03D484078022817D1FFF743FF00B100
:100DC000CCE7FFF75FFF3848007902280AD1FFF728
:100DD00039FF00B1C2E734480079022805D1FFF796
:100DE00051FF02E00820304948702F48407804281D
:100DF00023D1FFF727FF00B1B0E7FFF743FF2A48F1
:100E0000007901280CD1FFF71DFF00B1A6E7FFF71D
:100E100039FF2548007901280FD1234948700CE09B
:100E2000FFF710FF00B199E71F480079012801D0B2
:100E3000FFF728FF02201C4948701B48407808280B
:100E400025D1FFF7FFFE00E02AE000B186E7FFF7BB
:100E500019FF1548007902280CD1FFF7F3FE00B105
:100E60007CE7FFF70FFF1048007902280FD10E49E9
:100E700048700CE0FFF7E6FE00B16FE70A48007922
:100E8000022801D0FFF7FEFE012007494870FFF756
:100E900020FF00B162E70748007800B95EE76BE722
:100EA00000BF5BE7840500206E0100201C000020CD
:100EB00020040020C400002033483449086000F5B5
:100EC0000C70486008460068886008460068C86082
:100ED0001420087400204874704710B572B62C486E
:100EE0000088401C2A490880284880681C3027490F
:100EF00088600846407C401C487408468068496801
:100F0000884203D121480068204988602048008831
:100F1000401E80B21E49088000B962B603E01D4839
:100F20008169012088471948407C1428F7DA10BDF0
:100F300010B503E017488169012088471348407CB9
:100F40000028F7D072B612480088401C104908806B
:100F50000E48C0681C300D49C8600846407C401EE1
:100F600048740846C0684968884203D10748006849
:100F70000649C86006480088401E80B204490880BF
:100F800000B962B610BD0000F0010020DC010020B5
:100F90001C000020840500200FB410B50446012C6D
:100FA00002D0022C54D12AE0DDE90301884207DB9C
:100FB000DDE90501884203DB022010BC5DF814FB6B
:100FC000DDE90301884205DCDDE90501884201DB3A
:100FD0000320F2E7DDE90301884205DCDDE90501D4
:100FE000884201DC0420E8E7DDE90301884205DBF3
:100FF000DDE90501884201DC0120DEE729E0DDE9C9
:101000000301884205DBDDE90501884201DB082098
:10101000D3E7DDE90301884205DCDDE9050188420B
:1010200001DB0520C9E7DDE90301884205DCDDE9D4
:101030000501884201DC0620BFE7DDE903018842A3
:1010400005DBDDE90501884201DC0720B5E700E0AA
:1010500000BF00BF0020B0E710B50446A078C0F381
:10106000C00080B1FB4802686069C2EB80110020BB
:1010700000F029FE03E0F848816901208847F5481F
:10108000007D0028F7D110BDF0B58FB006460024D2
:101090000025FFF7B5FD3046FFF7DEFF3078032867
:1010A00003D101208DF83A0002E002208DF83A00C9
:1010B00070680690B0680890E649C869C11700EBEF
:1010C000916189110791E349886BC11700EB916128
:1010D00089110991DDE90601884206DDDDE9060195
:1010E000401A80B2ADF8320005E0DDE90610401A82
:1010F00080B2ADF83200DDE90801884206DDDDE9A5
:101100000801401A80B2ADF8340005E0DDE90810AE
:10111000401A80B2ADF83400182209A9684604F0DC
:10112000D9FF9DF83A0006A90EC9FFF735FF8DF8E3
:101130003800BDF83200BDF83410084480B2ADF874
:1011400030000020ADF83600F068002801DB0146D1
:1011500000E041420C463069002801DB014600E016
:1011600041420D464FF05F47BB4839464269BB4894
:10117000007890472DE1BDF93600002878DB9DF816
:101180003800092875D2DFE800F08505254463158D
:10119000345475000020B249C87002208DF839001F
:1011A000BDF93600022101FB150000B2ADF8360092
:1011B0006D1E70E00020AA49887001208DF839006A
:1011C000BDF93600022101FB140000B2ADF8360073
:1011D000641E60E00120A24988708DF83900BDF9D5
:1011E0003600022101FB140000B2ADF83600641E87
:1011F00051E000209A49C87002208DF83900BDF9ED
:101200003600022101FB150000B2ADF836006D1E5C
:1012100041E001209249C87002208DF83900BDF9E3
:101220003600022101FB150000B2ADF836006D1E3C
:1012300031E001208A4988708DF83900BDF9360007
:10124000022101FB140000B2ADF83600641E22E05A
:1012500000208349887001208DF83900BDF93600DF
:10126000022101FB140000B2ADF83600641E12E04A
:1012700012E00FE001207A49C87002208DF8390091
:10128000BDF93600022101FB150000B2ADF83600B1
:101290006D1E00E000BF8BE09DF83800092875D274
:1012A000DFE800F084052444641434547500012000
:1012B0006B4988708DF83900BDF93600022101FBB9
:1012C000040000B2ADF83600641C70E001206449EF
:1012D000C87002208DF83900BDF93600022101FBEB
:1012E000050000B2ADF836006D1C60E001205C49DD
:1012F000C87002208DF83900BDF93600022101FBCB
:10130000050000B2ADF836006D1C50E000205449D5
:10131000887001208DF83900BDF93600022101FBEB
:10132000040000B2ADF83600641C40E000204C49D7
:10133000887001208DF83900BDF93600022101FBCB
:10134000040000B2ADF83600641C30E000204449CF
:10135000C87002208DF83900BDF93600022101FB6A
:10136000050000B2ADF836006D1C20E000203C49BD
:10137000C87002208DF83900BDF93600022101FB4A
:10138000050000B2ADF836006D1C10E00EE0012043
:10139000334988708DF83900BDF93600022101FB10
:1013A000040000B2ADF83600641C00E000BF00BFCE
:1013B0009DF83900012802D0022808D103E001205D
:1013C000FFF7C8FB04E00220FFF7C4FB00E000BF0A
:1013D00000BFBDF83010481E80B2ADF8300021B11A
:1013E0002048C07800283FF4C6AE03201C4908708E
:1013F00003E01948816901208847194800780028CE
:10140000F7D10FB0F0BD30B587B00446FFF7F8FB59
:101410002046FFF721FE0F49C869C11700EB916113
:10142000891101910B49886BC11700EB91618911FA
:101430000391A078C0F3400010B16068009001E013
:1014400001980090A078C0F3800068B1A068029075
:101450000CE0000020040020840500200100002092
:101460006E010020C400002003980290DDE9000115
:10147000884216DBDDE90201884212DB01208DF88B
:101480001800DDE90001401A80B2ADF81200DDE974
:101490000201401A80B2ADF814000120FA498870A8
:1014A000C870DDE90001884217DADDE902018842EF
:1014B00013DB02208DF81800DDE90010401A80B21D
:1014C000ADF81200DDE90201401A80B2ADF8140057
:1014D0000020ED4988700120C870DDE900018842D4
:1014E00016DADDE90201884212DA03208DF81800CD
:1014F000DDE90010401A80B2ADF81200DDE90210FB
:10150000401A80B2ADF814000020DF498870C8701E
:10151000DDE90001884217DBDDE90201884213DAC8
:1015200004208DF81800DDE90001401A80B2ADF802
:101530001200DDE90210401A80B2ADF8140001205B
:10154000D14988700020C870BDF81200BDF8141091
:10155000084480B2ADF81000BDF8120038B9BDF8EB
:10156000140020B90020C849087007B030BD002021
:10157000019003904FF05F45C44829464269C44832
:101580000078904739E0BDF8121003984843BDF841
:101590001420019901FB1200BDF8121001EB40006C
:1015A000801A00B2ADF81600BDF91600002806DD5D
:1015B0000120FFF7CFFA0198401C01901DE0BDF912
:1015C0001600002806DA0220FFF7C4FA0398401C30
:1015D000039012E0BDF81200BDF81410884206DD39
:1015E0000120FFF7B7FA0198401C019005E00220A6
:1015F000FFF7B0FA0398401C0390BDF81010481E86
:1016000080B2ADF8100019B1A248C0780028BAD055
:1016100003209D49087003E09C48816901208847A8
:10162000994800780028F7D100BF9EE710B504461E
:1016300000F036FBA078C0F3C00010B12046FFF7E1
:101640000BFD9449C88A00F0A2F9A078C0F34000CD
:1016500038B19148C2696068C2EB8011012000F086
:1016600032FBA078C0F3800038B18B48826BA06851
:10167000C2EB8011022000F026FB00F011FB85492F
:10168000488A00F084F9002010BD10B50446814955
:10169000A06988602078042818D006DC012809D0C9
:1016A00002280BD003281BD10CE0672812D0692830
:1016B00016D112E02046FFF7B9FF12E02046FFF7EF
:1016C000A2FE0EE02046FFF7DFFC0AE02046FFF70F
:1016D000DBFC06E000F017FA03E000F045FA00E05A
:1016E00000BF00BF002010BD30B587B00446FFF733
:1016F00087FA2046FFF7B0FC6749C869C11700EBBD
:101700009161891101916449886BC11700EB916166
:1017100089110391A078C0F3400010B16068009077
:1017200001E001980090A078C0F3800010B1A0689B
:10173000029001E003980290DDE90001884212DB8B
:10174000DDE9020188420EDB01208DF81800DDE999
:101750000001401A80B2ADF81200DDE90201401A22
:1017600080B2ADF81400DDE90001884212DADDE94B
:10177000020188420EDB02208DF81800DDE900101E
:10178000401A80B2ADF81200DDE90201401A80B2C1
:10179000ADF81400DDE90001884212DADDE902014A
:1017A00088420EDA03208DF81800DDE90010401A97
:1017B00080B2ADF81200DDE90210401A80B2ADF837
:1017C0001400DDE90001884212DBDDE902018842F4
:1017D0000EDA04208DF81800DDE90001401A80B20D
:1017E000ADF81200DDE90210401A80B2ADF8140025
:1017F000BDF81200BDF81410084480B2ADF8100016
:10180000BDF8120038B9BDF8140020B900201E49F7
:10181000087007B030BDBDF8120058B91E48826B81
:101820000298C2EB8011022000F04DFA00F038FA65
:101830000020EEE7BDF8140058B91748C2690098B7
:10184000C2EB8011012000F03EFA00F029FA0020DE
:10185000DFE70020ADF816004FF05F450B48294642
:1018600042690B48007890475EE0BDF916000028F9
:1018700032DB9DF81800012810D0022812D003286E
:1018800014D004281AD115E06E0100208405002030
:1018900001000020C40000202004002001202F4966
:1018A00088700CE000202D49887008E000202B494A
:1018B000887004E001202949887000E000BF00BF63
:1018C0000120FFF747F9BDF81600BDF81410401AC3
:1018D00000B2ADF8160027E09DF81800012806D0E8
:1018E000022808D003280AD0042810D10BE00120D8
:1018F0001A49C8700CE001201849C87008E000209F
:101900001649C87004E000201449C87000E000BF08
:1019100000BF0220FFF71EF9BDF81600BDF8121037
:10192000084400B2ADF81600BDF81010481E80B291
:10193000ADF8100019B10A48C078002895D00320EE
:101940000649087003E00748816901208847034879
:1019500000780028F7D100BF5BE700006E0100208F
:10196000C40000208405002001460A2900DA0A216B
:10197000002009E0C0F10602FE4B9A5C4A43FE4B90
:1019800023F81020421C90B20728F3DB7047014671
:101990000A2900DA0A21002009E0C0F10602F54B0D
:1019A0009A5C4A43F54B23F81020421C90B207285A
:1019B000F3DB704730B589B005460C460121084677
:1019C00002F0F3FE0121022002F0EFFE01210420CB
:1019D00002F0EBFE00208DF8050003208DF80600D4
:1019E00001208DF807001C208DF8040001A802F0EA
:1019F00058F91D208DF8040001A802F052F91E20AC
:101A00008DF8040001A802F04CF904220221DC4800
:101A100000F0AAFC0221DA4802F047FC0822022169
:101A2000D84800F0A1FC0221D64802F03EFC082272
:101A30008021D44800F098FC8021D24802F035FC87
:101A4000ADF81C50ADF818400020ADF81E00ADF800
:101A50001A0006A94FF0804003F0FCF906A9CA4815
:101A600003F0F8F906A9C94803F0F4F97020ADF8BD
:101A700008000120ADF80A000020ADF80E00022099
:101A8000ADF8100002A9400703F063FA0821C80668
:101A900003F075FE0121880703F038FE01220421BE
:101AA000080703F04EFD0121880703F02FFD02A96E
:101AB000B54803F0E6FA0821B34803F076FE0121A9
:101AC000B14803F023FE01221021AF4803F039FD95
:101AD0000121AD4803F01AFD02A9AC4803F039FA20
:101AE0000821AA4803F04BFE0121A84803F00EFE8E
:101AF00001220421A54803F024FD0121A34803F09D
:101B000005FD09B030BD70B50120A149896BC860E1
:101B1000042422E000261CE0002516E0A54203DC98
:101B200000209C49086002E001209A49086098481A
:101B3000806BC06818B901209649086070BD96484E
:101B4000816901208847681CC5B2102DE6DB701C36
:101B5000C6B20A2EE0DB601CC4B2102CDADB002017
:101B60008C49086000BFE9E701208A49086000202D
:101B70008749896BC860704710B5042201218048ED
:101B800000F0DDFB082201217E4800F0D8FB042292
:101B900091017C4800F0D3FB08229101794800F0C4
:101BA000CEFB04221146764800F0C9FB01207B4998
:101BB00008607749896B08617949C1F8A40141023D
:101BC000704802F070FB00240CE00020C4EBC4015C
:101BD000744A02EB81010875C4EBC40142F821008C
:101BE000601CC4B2032CF0DB6949488AFFF7CFFEC2
:101BF0006749888AFFF7B8FE6848083869498860ED
:101C000064492439674841626249091F0164664892
:101C10006449C8605C494031624881625B4938313F
:101C20004164614810385F490861574928315D486F
:101C3000C16256492831816428214820FFF7BAFE45
:101C4000002411E03CB94C48C4EBC401554A02EBF6
:101C50008101886106E04948C4EBC401514A02EBA6
:101C600081018861601CC4B2032CEBDB10BD002134
:101C7000C0EBC0024B4B03EB8202D2681180C0EB79
:101C8000C0011A4652F82110C0EBC00203EB8202D9
:101C900051600021C0EBC00203EB82021175704756
:101CA00010B503E03C488169012088473D4890F821
:101CB00030000028F6D13B4890F84C000028F1D1C4
:101CC000FEF797FF10BD10B501B910BDC0EBC00203
:101CD000344B03EB820252680A44C0EBC003314C20
:101CE00004EB83035A60C0EBC002234603EB82027D
:101CF000127DC2B9002907DD0122C0EBC00304EB4D
:101D000083039B681A6007E00022C0EBC003254CE8
:101D100004EB83039B681A600122C0EBC003214CD3
:101D200004EB83031A7500BFCFE710B500201849F4
:101D300008700120FFF79BFF0220FFF798FF0020AB
:101D4000FFF795FF0020154908601149896B08616C
:101D50000F49C88AFFF71BFE0D49888AFFF717FE57
:101D600010480068B0F5485F23DA0E480068C0F5F7
:101D700048511BE03A6100088204002074040020EE
:101D800000080140000C0140000400400008004031
:101D9000C4000020A4812142840500208801214242
:101DA0000080214220040020380000400020FFF77E
:101DB0008AFF03E09D488169012088479C48007D97
:101DC0000028F7D19A48C06941420120FFF77BFF04
:101DD0009748806B41420220FFF775FFFFF760FFD5
:101DE0000120944908609449896B086110BD10B5C1
:101DF0000446C4EBC4008E4901EB8000007D00283E
:101E00007ED08D48007811280ED10120C4EBC4018A
:101E1000874A02EB810108750020C4EBC40102EB84
:101E20008101C968088010BD2420C4EBC401804A28
:101E300002EB8101C9680880C4EBC400114601EBC4
:101E40008000007D07281FDCC4EBC40001EB80008C
:101E50008169C4EBC40002EB8000007D401E31F8B4
:101E60001000C4EBC40102EB810109690880C4EBD6
:101E7000C400114601EB8000007D401CC4EBC4018E
:101E800002EB810108750DE0C4EBC400684901EB69
:101E9000800080698089C4EBC401654A02EB81013E
:101EA00009690880C4EBC400614901EB80008068C7
:101EB000006830BB6048406B50F8240058B9C4EB50
:101EC000C40001EB80004068C4EBC401584A52F8DA
:101ED0002110884203DB2046FFF7C9FEA3E7C4EBCD
:101EE000C400534951F82000401EC4EBC401504ABD
:101EF00042F82100C4EBC400114651F8200001E073
:101F000020E020E0C4EBC40102EB81014968401AE3
:101F100007285FDAC4EBC400114651F82000C4EB77
:101F2000C40102EB81014968401AC4EBC40102EB11
:101F30008101896931F81000C4EBC40102EB810111
:101F40000969088046E03C48406B0C3050F824009A
:101F500060B9C4EBC400364901EB80004068C4EBB3
:101F6000C401334A52F82110884203DC2046FFF7AF
:101F70007EFE58E7C4EBC4002D4951F82000401CF8
:101F8000C4EBC4012A4A42F82100C4EBC400114644
:101F900001EB80004068C4EBC40152F82110401AE4
:101FA000072817DAC4EBC400114601EB8000406833
:101FB000C4EBC40152F82110401AC4EBC40102EB77
:101FC0008101896931F81000C4EBC40102EB810181
:101FD0000969088000BF26E710B50421080703F04F
:101FE0005EFD30B10421080703F056FD0020FFF725
:101FF000FEFE10BD10B51021104803F050FD30B1A9
:1020000010210E4803F048FD0120FFF7F0FE10BD3F
:1020100010B504210A4803F042FD30B104210848FC
:1020200003F03AFD0220FFF7E2FE10BD8405002018
:102030002004002088012142C40000200004004048
:102040000008004010B508224021194800F0EDF8C2
:1020500008221146164800F0E8F80822202114480A
:1020600000F0E3F808221021114800F0DEF810BD5E
:10207000104800681049496B48600E48001F00680E
:102080000D49496B886000200B49496B086009487D
:102090000C3801680848406B01610648083801683F
:1020A0000548406B416100200349496BC860704797
:1020B000000C014018812142C400002010B504200A
:1020C00001F08DFE044601214FF0C05002F06DFB7F
:1020D000012002F094F9E0B240F4B441042001F090
:1020E00072FE2B48418A082001F06DFE2848818A43
:1020F0000C2001F068FE2648C18A102001F063FE22
:102100002348017C142001F05EFE10BD10B50420B0
:1021100001F065FE044604F47F40B0F5B44F1AD1D7
:10212000082001F05CFE1A4948820C2001F057FE9D
:1021300017498882102001F052FE1549C8821420E8
:1021400001F04DFE12490874182001F048FEC1B29A
:102150000F4841741AE001214FF0C05002F025FBF6
:10216000012002F04CF90121094841828182C1829B
:10217000052007490874012105484174FFF79EFFB7
:10218000E0B240F4B441042001F01DFE10BD000097
:10219000C400002000BF011EA0F10100FBD1704768
:1021A00000B5034602E00820FFF7F4FF181EA3F174
:1021B0000103F8D100BD00B5034603E04FF4FA5027
:1021C000FFF7E8FF181EA3F10103F7D100BD014698
:1021D000102902DA6F48405C70473020FCE7014666
:1021E00049066D4A926942F001026B4B9A616B4A53
:1021F000526822F0E062694B5A601A4652680A43FC
:102200005A607047014600BF704700BF644A128899
:1022100002F04002002AF9D0C2B2614B1B1D1A80A5
:10222000704772B6704762B67047F8B506460C46FE
:1022300015460121284602F0ABFA28208DF803004C
:10224000ADF800406946304601F080FFF8BDF8B5B2
:1022500006460C4615460121284602F099FA482008
:102260008DF80300ADF800406946304601F06EFF7E
:10227000F8BDF8B506460C4615460121284602F081
:1022800087FA04208DF80300ADF800406946304617
:1022900001F05CFFF8BDF8B506460C461546012175
:1022A000284602F075FA10208DF8030002208DF800
:1022B0000200ADF800406946304601F047FFF8BD26
:1022C000F8B506460C4615460121284602F060FA8C
:1022D00018208DF8030002208DF80200ADF80040B0
:1022E0006946304601F032FFF8BDF8B506460C46A7
:1022F00015460121284602F04BFA10208DF8030004
:1023000001208DF80200ADF800406946304601F02A
:102310001DFFF8BDF8B506460C46154601212846B6
:1023200002F036FA18208DF8030001208DF8020023
:10233000ADF800406946304601F008FFF8BDF8B539
:1023400006460C4615460121284602F021FA1020C7
:102350008DF8030003208DF80200ADF800406946B7
:10236000304601F0F3FEF8BDF8B506460C461546BA
:102370000121284602F00CFA18208DF803000320F2
:102380008DF80200ADF800406946304601F0DEFEEF
:10239000F8BD00004161000800100240000001404B
:1023A0000038014008B503208DF8000002208DF8A8
:1023B00001008DF8020001208DF80300684601F04D
:1023C00070FC08BDF0B503460C46154603F5FA60EF
:1023D00083B2642093FBF0F0C6B2642093FBF0F765
:1023E00000FB1730C1B2132E02DD01F16400C1B24F
:1023F0000846CF1701EB977701EBA707BAB2072082
:1024000092FBF0F700FB172082B25719601EDFF82D
:10241000F0C21CF80000384482B2CF1701EB977766
:10242000BF10A1EB87071FB9032C01DA501E82B23F
:10243000072092FBF0F700FB1720C0B2F0BD014669
:10244000CA1701EB92729210A1EB820292B964203A
:1024500091FBF0F200FB121050B94FF4C87091FBE1
:10246000F0F200FB121008B9012070470020FCE7D1
:102470000120FAE70020F8E770B5002600240025C7
:1024800002F00AFA06469F48B6FBF0F49E48008820
:10249000A0423AD09C490C8010E02846FFF7CFFFBD
:1024A00040B1B4F5B77F02D3A4F5B77404E0681C5B
:1024B00085B206E0A4F26D14681C85B2B4F5B67F4F
:1024C000EBD800BF91490D70002516E08F490878C0
:1024D000FFF7B5FF30B1012D04D11D2C01D31D3CF8
:1024E00009E00CE08A48405DA04203D88848405D7E
:1024F000241A00E003E0681C85B21C2CE6D200BF61
:10250000681C82494870601C88707E48B6FBF0F1F8
:1025100000FB11644FF46160B4FBF0F07B49C870BC
:102520004FF46160B4FBF0F100FB11403C21B0FBC3
:10253000F1F0764908714FF46160B4FBF0F100FBF3
:1025400011403C21B0FBF1F201FB12006F494871D0
:102550000B469A7859781878FFF734FF6B498871E1
:10256000002070BD10B5012002F000FA08B1FFF79D
:1025700083FF022002F0FAF910B1022002F006FAFD
:10258000052002F003FA02F0C3F910BD2DE9F05F57
:1025900006460F4690469946DDE90AAB0024632EB5
:1025A00002DD0120BDE8F09F00250AE02846FFF784
:1025B00046FF10B15748044401E057480444681CE2
:1025C00085B2B542F2DB781EC7B2002510E0504854
:1025D000405D40F2A321484304EBC0143046FFF7AE
:1025E0002EFF18B1012D01D146480444681C85B264
:1025F000BD42ECDBA8F1010040F2A321484304EB0B
:10260000C014C9EB4910C0EB092004EB0014CAEB5D
:102610000A1004EB80045C4401214FF0C05002F02A
:10262000C4F8012001F0EBFE204602F03EF902F072
:102630006FF90020B6E77CB50024042001F0CFFB41
:102640000546E8B2502849D001214FF0C05002F0B1
:10265000ACF8012001F0D3FE01F08CFB012002F068
:1026600004F808E0601CC4B26420FFF7A4FDFA2C53
:1026700001DB01207CBD412001F05FFF0028F1D08B
:102680004FF4807002F00DF8012002F010F802F013
:102690003FF902F046F90121084602F0DDF802F0A8
:1026A00037F902F0E6F847F6FF7002F00BF902F096
:1026B0002FF937201E2115230922CDE900100A2108
:1026C00040F2DF70FFF762FF02F0DCF805F47F40B4
:1026D00040F05001042001F076FB07E002F021F900
:1026E0000121084602F0B8F802F012F9FFF75AFE8D
:1026F000FFF7C2FE0020BDE710B5FFF79CFF10BD3D
:1027000051610008805101000E00002006000020E9
:102710005D6100080085E2018033E10108B5012117
:10272000080302F035F80121084602F031F80121D2
:10273000042002F02DF8E020ADF8000018208DF8FC
:10274000030003208DF802006946834801F0FEFC77
:1027500008BD08B50121880302F027F801210846C9
:1027600002F016F80121082002F012F84FF4604040
:10277000ADF8000018208DF8030003208DF802004A
:102780006946764801F0E2FC08BD08B50121C8039E
:1027900002F00BF80121084601F0FAFF01210820A0
:1027A00001F0F6FF3820ADF8000018208DF8030086
:1027B00003208DF802006946684801F0C7FC08BD97
:1027C00002884FF6C7731A40028011B9028802804E
:1027D0002DE0012904D1028842F00802028026E09F
:1027E000022904D1028842F0100202801FE003296E
:1027F00004D1028842F01802028018E0042904D1B2
:10280000028842F02002028011E0052904D10288EA
:1028100042F0280202800AE0062904D1028842F030
:102820003002028003E0028842F03802028002880F
:1028300042F040020280704770B505460E46002403
:1028400005E0601CC4B2C82C01DD002070BD02216F
:10285000284602F0F4F90028F3D03146284602F069
:102860009BF9002405E0601CC4B2C82C01DD0020E7
:10287000ECE70121284602F0E2F90028F3D02846CF
:1028800002F08CF9C0B2E1E730B585B004460D46E0
:102890003348844201D1FFF741FF3248844201D1DD
:1028A000FFF757FF3048844201D1FFF76EFF002148
:1028B000204602F040F90020ADF800004FF482708D
:1028C000ADF80200ADF804500020ADF80600ADF8F8
:1028D00008004FF40070ADF80A001020ADF80C00AD
:1028E0000020ADF80E000720ADF810006946204624
:1028F00002F07CF80121204602F01DF9FF2120465C
:10290000FFF79AFF05B030BD2DE9F04180460E4635
:102910001446002506E0775D39464046FFF78CFFF8
:10292000681CC5B2A542F6DB2046BDE8F0812DE962
:10293000F04180460F461446002607E0002140463D
:10294000FFF77AFF0546BD55701CC6B2A642F5DBFF
:102950002046BDE8F081000000080140000C014065
:102960000030014000380040003C004010B5704885
:102970000078401C6E4908706E480A461278815CE7
:102980006D4803F0DDF96B480078694909788842A1
:102990000CDC0020694908706549087068490870B6
:1029A000002240F22661644803F069F910BD6549D0
:1029B0000870704710B504460021204601F009FB5D
:1029C0006421204601F01AFB0121204601F001FBA1
:1029D00010BD10B540F22441574803F035FAC0B19C
:1029E000554803F0B1F9584801F00AFBC0F1640002
:1029F00056490870FD24210655484269514800781F
:102A0000904740F224414C4803F048FA4E48FFF703
:102A1000D1FF40F22661484803F016FA08B1FFF7EB
:102A2000A5FF10BD10B58CB004460121084601F089
:102A3000A2FE012240F224413F4803F020F9012286
:102A400040213D4803F040F93F4801F0F5F93A488C
:102A5000001D019002940020039064200490002047
:102A600005908020069000200790089009904FF470
:102A700080500A9000200B9001A9334801F07EFAA3
:102A80000121314801F0A5FA0CB010BD00B587B0A6
:102A9000012144F2050001F07BFE4FF40070ADF817
:102AA000180003208DF81A0018208DF81B0006A9C5
:102AB000284801F04BFB4FF48060ADF8180004206B
:102AC0008DF81B0006A9234801F040FB25208DF856
:102AD000040003208DF805008DF8060001208DF814
:102AE000070001A801F0DDF84FF416500290002015
:102AF000ADF80C00ADF80E00ADF81000ADF8140004
:102B00000C20ADF8120002A90B4803F020F80122B6
:102B100040F22551084803F0B2F80121064803F0BD
:102B2000A2F80A48401CFFF77DFF07B000BD000077
:102B3000180000205905002000380140190000202D
:102B400017000020100000205800024090040020D0
:102B5000840500200008014070B500241FE004EB4C
:102B60004403104D55F8232004EB440305EB830385
:102B7000198904EB440305EB83035868FFF78BFBCB
:102B800004EB44022B4603EB8202118904EB44025E
:102B900003EB8202506801F086FB601CC4B2012C7A
:102BA000DDDB70BD6C61000810B504225103A14843
:102BB000FFF7C5FB082251029F48FFF7C0FB042224
:102BC00091019C48FFF743FB01209C4908600021CC
:102BD0009B48FFF759FE01209A49C1F8BC0100202B
:102BE00096491C31086001209749C1F8B00110BD19
:102BF0002DE9F04105460E4617460020934908602E
:102C000029468F48FFF718FE8046002406E0FF2182
:102C10008B48FFF711FE3055601CC4B2BC42F6DB96
:102C200001208A4908604046BDE8F0812DE9F04165
:102C300005460C461646002084490860294680480F
:102C4000FFF7FAFD8046002706E014F8011B7C48D8
:102C5000FFF7F2FD781CC7B2B742F6DB01207B49D3
:102C600008604046BDE8F0811FB579A103C9CDE9F0
:102C70000201052202A93020FFF7D8FF052269468C
:102C80001020FFF7B5FF002406E01DF80400A5287A
:102C900000D003E0601CC4B2052CF6DB00BF052C9D
:102CA00002D0012004B010BD0020FBE770B504463F
:102CB0000D4600206549086021466148FFF7BCFDCC
:102CC000064629465E48FFF7B7FD01205E49C1F878
:102CD000B001304670BD70B5044600205B49086005
:102CE00021465748FFF7A8FDFF215548FFF7A4FDEF
:102CF000054601205449C1F8B001284670BD70B5A1
:102D0000054600204D491C31086020222946A0209C
:102D1000FFF78CFF01204B49C1F8BC0100BF4748B9
:102D2000803800680028FAD10720FFF7D4FF044656
:102D300021462720FFF7BAFF04F0100028B1FF2139
:102D4000E120FFF7B3FF102070BD04F0200008B1B0
:102D50002020F9E7FF20F7E770B504460720FFF7CA
:102D6000BAFF054629462720FFF7A0FF05F04000DF
:102D700050B1202221466120FFF73AFFFF21E220D7
:102D8000FFF794FF002070BD0120FCE710B5002084
:102D90002A491C31086005222F492A20FFF746FFE7
:102DA00001212120FFF782FF01212220FFF77EFF72
:102DB0000A212520FFF77AFF20213120FFF776FF37
:102DC0000F212620FFF772FF0F212020FFF76EFF53
:102DD00001201C49C1F8BC0110BD10B500201749E5
:102DE0001C31086005221D493020FFF71FFF052216
:102DF00019492A20FFF71AFF01212120FFF756FF6A
:102E000001212220FFF752FF7A212420FFF74EFFF5
:102E10000A212520FFF74AFF0F212620FFF746FF52
:102E20000E212020FFF742FF01200649C1F8BC0116
:102E300010BD000000080140000C0140A00121422B
:102E4000003800400000214200802142B081214230
:102E5000A5A5A5A5A50000007D6100087861000872
:102E600010B5002807DA0A07140EFB4A00F00F031A
:102E70001B1FD45403E00A07130EF84A135410BD65
:102E800002464FF080700860081F014602606FF034
:102E90000103081F014603604FF01233081F01466B
:102EA00003604FF00333081F014603604FF0023305
:102EB000081F014603605B10081F014603600023E2
:102EC000081F014603604FF01133081F01460360DD
:102ED0004FF01033081F014603604FF00933081FFD
:102EE000014603604FF00833081F014603604FF0AE
:102EF0000733081F014603604FF00633081F0146E1
:102F000003604FF00533081F014603604FF00433A0
:102F1000081F01460360084670470146D04A1278F0
:102F200002EB8202CF4B03EB820001600022426081
:102F3000C2600282CA4A12788274C94A1378012296
:102F40009A40C94B1B781A43C74B1A70704710B58B
:102F500072B6C6480088401CC4490880C44800783E
:102F6000B0B9C448C0490978405CC34908700846F4
:102F70000078C249097888420AD0BF48007800EB3F
:102F80008000B84901EB8000BD49086000F088FD71
:102F9000B6480088401E80B2B449088000B962B6C5
:102FA00010BDB8480078012804D1B1480078401C11
:102FB000AF490870704710B5B2480078012830D189
:102FC00072B6AA480088401CA8490880A848007822
:102FD000002804DDA6480078401EA5490870A448D2
:102FE0000078B0B9A348A0490978405CA2490870AC
:102FF00008460078A149097888420AD09E4800789E
:1030000000EB8000974901EB80009D49086000F0CB
:1030100047FD96480088401E80B29449088000B958
:1030200062B610BD70B50025FFF7BBFF954800786C
:1030300001282BD128E005EB85008A4901EB8004AB
:1030400072B68A480088401C88490880E06888B1C8
:10305000E068401EE06068B9208A00F47F4038B91B
:103060000120A8408049097808437F49087001E0A1
:103070000120E060681CC5B27C480088401E80B218
:103080007A49088000B962B6052DD4DBFFF793FFBB
:1030900070BD30B50246724C247804EB84047A4D3E
:1030A00005EB8400026002EB810444608260C26030
:1030B0000182002444826A4C247804EB8404694D24
:1030C00005EB8403986030BD70B5044672B667485E
:1030D0000088401C6549088061480078052801DBAC
:1030E000FF2070BD69485E4A127850F822102046D1
:1030F000FFF7C6FE05462846FFF70FFF5849097837
:1031000001EB8101624A02EB01101421FFF7C1FFBC
:1031100053480078401C5249087054480088401EAB
:1031200080B25249088000B962B64D480078401E0E
:10313000C0B2D6E70246508A138A984201DB0020CB
:1031400070479368181D90601960508A401C508227
:10315000D2E90130984201D1106890600120EFE778
:103160000146488A08B900207047CB68181DC8601E
:103170001A68488A401E48824B68C868984201D144
:103180000868C8601046EFE770B5054672B6374864
:103190000088401C354908803E4800688668708A6F
:1031A00000280DDD3046FFF7DBFF04462F4800887E
:1031B000401E80B22D49088000B962B6204670BD1D
:1031C00034480068008A40F00400324909680882E7
:1031D00030480068C56029480178012088402249AC
:1031E000097881432048017020480088401E80B241
:1031F0001E49088000B962B6FFF7A9FE72B61B48E7
:103200000088401C194908802248006886683046BA
:10321000FFF7A6FF044604B985B900201D490968D7
:1032200048601C490968088210480088401E80B226
:103230000E49088000B962B62046C0E70020154953
:103240000968088209480088401E80B20749088042
:1032500000B962B60020B2E718ED00E000E400E03B
:10326000200000208C1400201F0000201C000020E3
:103270001E000020826100082300002022000020A0
:103280002800002021000020F0140020B8050020B4
:103290004C130020240000202DE9F04106460F4683
:1032A00072B6CC480088401CCA49088006EB8600EC
:1032B000C94901EB8004A568688A78BB394628466D
:1032C000FFF738FF0020E0606760208A20F00400EC
:1032D0002082208AA0B9A17C01208840BF490978BA
:1032E0000843BE490870BB480088401E80B2B949F7
:1032F000088000B962B6FFF72AFE0120BDE8F08120
:1033000039462846FFF716FFB2480088401E80B2B3
:10331000B049088000B962B60120EFE7FFE7688A8C
:10332000298A884209DBAB480088401E80B2A9493F
:10333000088000B962B60020E0E739462846FFF76A
:10334000F9FEA4480088401E80B2A249088000B956
:1033500062B60120D2E710B50446DCB172B69D48D2
:103360000088401C9B4908809D48017801208840C6
:103370009A4909788143994801709A480068C46065
:1033800094480088401E80B29249088000B962B615
:10339000FFF7DDFD10BD024600210FE001EB8100CB
:1033A0008D4B03EB8000008A4FF4807393401840EC
:1033B00010B1481CC0B27047481CC1B20529EDDBF2
:1033C0000020F8E710B50446072C01DD012010BDF0
:1033D00072B680480088401C7E4908802046FFF76E
:1033E000DAFF98B97F480068008A4FF48071A140E5
:1033F00008437C490968088276480088401E80B2EC
:103400007449088000B962B60020E0E7754800689A
:10341000008A4FF48071A14008437249096808820C
:103420006F480178012088406C49097881436B48D6
:10343000017068480088401E80B26649088000B963
:1034400062B6FFF784FD0020C1E72DE9F041064692
:1034500072B660480088401C5E4908806148006878
:10346000008A4FF48071B14088435E490968088240
:103470003046FFF790FF07464FB956480088401E78
:1034800080B25449088000B962B6BDE8F081781E68
:10349000C4B204EB8400504901EB80050020E860D1
:1034A00068600120A0404D49097808434B490870E5
:1034B00048480088401E80B24649088000B962B67C
:1034C000FFF745FD00BFE0E700BFFEE710B5464847
:1034D000C168AFF20B00884710BD10B54248C16803
:1034E000AFF21B0088474148006842F21071B0FB00
:1034F000F1F4B4F1807F00D311E024F07F40401E4E
:103500004FF0E02148610F214FF0FF30FFF7A8FC9A
:1035100000204FF0E02188610720086100BF324899
:103520003349026B0120904732480078C0B93248D5
:103530002A490978405C31490870084600782849D2
:1035400008700846007800EB8000234901EB8000FA
:103550002B490860084600682249086000F092FA8A
:1035600010BD10B54FF4A06000F096FBFE214FF0A7
:10357000FF30FFF775FCFF216FF00100FFF770FCD3
:1035800010BD10B5FFF7EDFF1E4817494860AFF2B8
:10359000C30088601C48C8601C4808611C4848611A
:1035A0001C48886100200860AFF2E7100862AFF2A3
:1035B0006510C861184819490860194848601948D9
:1035C00088601948C8601948086100F0B0F800F038
:1035D0003AFA10BD1C0000208C1400201F000020AF
:1035E000220000202400002084050020B0000020DC
:1035F00025300008210000208261000823000020FF
:1036000028000020DB340008C93000088931000898
:103610009932000857330008E8080020B805002058
:10362000080C0020280F002048120020481300201A
:10363000704710B5024672B674480088401C734B40
:103640001880002A50D0012A35D0022A1AD0032A25
:1036500063D16F480078022801D1002010BD6C486A
:1036600003780078401C6A4C20706A4840F82310A8
:1036700066480088401E80B2644B188000B962B66C
:103680000120EBE7644800780A2801D10020E5E733
:10369000614803780078401C5F4C20705F4840F818
:1036A00023105A480088401E80B2584B188000B939
:1036B00062B60120D2E75A480078042801D10020E0
:1036C000CCE7574803780078401C554C207055488B
:1036D00040F823104D480088401E80B24B4B1880A4
:1036E00000B962B60120B9E74F480078022801D13D
:1036F0000020B3E74C4803780078401C4A4C207007
:103700004A4840F8231041480088401E80B23F4B91
:10371000188000B962B60120A0E73C480088401E2E
:1037200080B23A4B188000B962B6002096E7404854
:1037300040490863704710B53F480078401CC0B24C
:103740003D490870642801D1002008703749086895
:10375000804736494868804700F0BAF83648007814
:103760000A2190FBF1F0C4B23348007890FBF1F2EB
:1037700001FB12000A2847D2DFE800F005090D110D
:103780001516191A20252749086880473CE0254965
:103790004868804738E023498868804734E02149F9
:1037A000C868804730E02FE000F04AF82CE02BE0BA
:1037B00020480068401C1F49086025E0174951F85F
:1037C0002400804720E034B1012C17D0022C16D001
:1037D000032C16D114E019480078401CC0B21749D8
:1037E0000870022806D10B49086880470020134959
:1037F000087002E007494868804703E002E001E002
:1038000000E000BF00BF00BF00BF10BD1C000020D3
:10381000770000202C000020740000204C000020C5
:10382000750000203C0000207600002034000020BD
:10383000333600088405002078000020790000203D
:1038400070B500248548006800B970BD72B6844820
:103850000088401C82490880804805682CE005F0FB
:10386000010030B37F4830F83400401E80B27D49FB
:1038700021F83400E8B97C480068E04000F001001D
:1038800058B10B4603EBC4035968764B03EBC403F2
:103890009878764B5A69904704E0724901EBC4016D
:1038A000486880470120A0406C49096881436B4803
:1038B00001606D08601CC4B2002DD0D1684800883A
:1038C000401E80B26649088000B962B600BFBCE7FE
:1038D00070B500246648007800B970BD72B66048C3
:1038E0000088401C5E4908806148057819E005F0B1
:1038F000010098B15F4830F83400401E80B25D4945
:1039000021F8340050B901EBC40148688047012018
:10391000A040574909788143554801706D08601CE3
:10392000C4B2002DE3D14E480088401E80B24C49FD
:10393000088000B962B600BFCFE730B503460C4639
:1039400072B647480088401C454D2880002135E06C
:1039500042480068C84000F0010068BB414D25F8AE
:103960003140284600EBC10042606BB10120884025
:103970003D4D2D6828433C4D28603F480078394D27
:1039800005EBC105A87006E001208840364D2D6882
:1039900085433548056001208840304D2D68284317
:1039A0002E4D28602E480088401E80B22C4D288065
:1039B00000B962B6084630BD481CC1B20829C7DB51
:1039C00027480088401E80B2254D288000B962B685
:1039D000FF20F0E710B572B6214B1B885B1C204C12
:1039E0002380244C24F83010234603EBC0035A6094
:1039F000214B1B7804EBC004A370012383401C4CB3
:103A0000247823431A4C2370154B1B885B1E9BB2F2
:103A1000134C238003B962B610BD72B610490988F1
:103A2000491C0F4A118001218140114A12788A43B2
:103A30000F490A700A490988491E89B2084A11804B
:103A400001B962B670470D48084948620C490748F9
:103A50008162AFF27F01C162704700007C000020EC
:103A60001C0000204015002080000020840500205C
:103A70008400002080150020220000203B3900082F
:103A80001B3A00084FF0000484F30988164C4FF0ED
:103A900001052570154C4FF08055256062B6FEE794
:103AA00030B4124C4FF08055256030BC704772B670
:103AB000EFF3098028B1203880E8F00F0C4909683D
:103AC00008600C480C490A78027009480B490A68DA
:103AD0000260106890E8F00F203080F309884EF003
:103AE000040E62B6704700002100002004ED00E0E3
:103AF00024000020220000202300002028000020B5
:103B000070B503460C4603E014F8015B03F8015B53
:103B1000151EA2F10102F7D170BD30B5034601E0D8
:103B200003F8011B141EA2F10102F9D130BD00B54A
:103B300058494FF4A072C8680021FFF7EEFF5549BD
:103B40004FF4A05288680021FFF7E7FF0120514998
:103B5000087400BD0022002106E04E48C06830F81D
:103B6000110000B1521C491CA029F6D36420504317
:103B7000A023B0FBF3F0C0B270472DE9F041064638
:103B80000024A0464348007C10B942490868804799
:103B90001EB94FF0FF30BDE8F081C6F34F1506F0B7
:103BA0001F0008B1681C85B29F241AE03948C0681C
:103BB00030F8140020B908F101001FFA80F801E084
:103BC0004FF00008A8450BD1002705E03148C06838
:103BD000E11920F811507F1CAF42F7D36001DAE7FA
:103BE000641E002CE2DA4FF0FF30D4E770B50546D2
:103BF0002848007C20B9274908688047012070BD0B
:103C0000B5F5A05F11D269092248C06830F81120CB
:103C1000002406E000201F4BDB680E1923F8160075
:103C2000641C9442F6DB0020E9E70220E7E770B568
:103C3000044604B970BD17488068251A2846FFF766
:103C4000D5FF00BFF6E770B505462846FFF795FF9C
:103C50000446601C08B9002070BD0E4880682044EE
:103C6000FAE770B506460C462046FFF786FF054684
:103C7000681C08B9002070BD0649896848192246A9
:103C80003146FFF73DFF3046FFF7D1FF014880681E
:103C90002844F0E78800002031490143314A11608F
:103CA000704770B5002100230F22C47804B32D4C57
:103CB000246804F4E064C4F5E064210AC1F104035B
:103CC000CA40447804FA03F184781440214309017E
:103CD000254C0678A155047804F01F050124AC405A
:103CE00005786D11AD0005F1E025C5F8004109E04A
:103CF000047804F01F050124AC401C4D06787611B1
:103D000045F8264070BD1A4A0A400243154B1B1F56
:103D10001A60704739B1134A121D12680243114BE1
:103D20001B1D1A6006E00F4A121D126882430D4BDC
:103D30001B1D1A607047042808D14FF0E021096963
:103D400041F004014FF0E022116107E04FF0E02163
:103D5000096921F004014FF0E02211617047000071
:103D60000000FA050CED00E000E400E080E100E076
:103D700080FFFF1F10B5012000F03EFD002000F085
:103D80003BFD10BD2A49086070472949091F08609A
:103D90007047274984310860704701460020254A52
:103DA00010884FF67F4210400843224A1080704727
:103DB000014600201F4A10884FF6807210400843C9
:103DC0001C4A1080704708B500220092194A2C3A0C
:103DD0000092009A02440092009A116008BD08B552
:103DE00001460020009013482C38009000980844A9
:103DF00000900098008808BD0D489C300068C0B253
:103E000070470C480830008840F00100094908312B
:103E1000088070470648A0300068C0B27047054867
:103E20000830008840F002000249083108807047DD
:103E300004860D422C6C004001684FF6FE72114062
:103E400001600021016041608160C1608D4988424C
:103E500008D18C490839496841F00F01894A083A6C
:103E600051608AE087491431884208D18549083970
:103E7000496841F0F001834A083A51607DE0814988
:103E80002831884208D17F490839496841F4706176
:103E90007C4A083A516070E07A493C31884208D146
:103EA00078490839496841F47041764A083A5160C6
:103EB00063E074495031884208D172490839496831
:103EC00041F470216F4A083A516056E06D496431FF
:103ED000884208D16B490839496841F47001694A40
:103EE000083A516049E067497831884208D165490C
:103EF0000839496841F07061624A083A51603CE013
:103F00006149884206D1011F096841F00F01021F73
:103F1000116032E05C491431884208D15A49091FC6
:103F2000096841F0F001584A121F116025E0564916
:103F30002831884208D15449091F096841F4706149
:103F4000514A121F116018E04F493C31884208D194
:103F50004D49091F096841F470414B4A121F116015
:103F60000BE049495031884207D14749091F096888
:103F700041F47021444A121F1160704710B50022AD
:103F8000026847F6F0739A430C6A8B6823430C6906
:103F900023434C6923438C692343CC6923434C6AF4
:103FA00023438C6A23431A430260CB6843600B6847
:103FB00083604B68C36010BD002101604160816077
:103FC000C160016141618161C161016241628162DF
:103FD000704721B1026842F00102026004E0026809
:103FE0004FF6FE731A40026070471AB103680B4324
:103FF000036002E003688B430360704741607047D1
:104000000146486880B2704701460020002201F056
:1040100080531BB11C4B083B1A6802E0194B083B4C
:104020001A6802EA01030BB1012000E0002070478A
:1040300000F0805119B11449091F086002E01149CC
:1040400008394860704701460020002201F0805383
:104050001BB10D4B083B1A6802E00A4B083B1A687B
:1040600002EA01030BB1012000E00020704700F0DC
:10407000805119B10449091F086002E0014908395B
:1040800048607047080002400804024010B504462A
:10409000CC48844208D10121042000F093FB002188
:1040A000042000F08FFB46E0C748844208D101217C
:1040B000082000F087FB0021082000F083FB3AE095
:1040C000C248844208D10121102000F07BFB00216E
:1040D000102000F077FB2EE0BD48844208D101217A
:1040E000202000F06FFB0021202000F06BFB22E07D
:1040F000B848844208D10121402000F063FB002130
:10410000402000F05FFB16E0B348844208D1012153
:10411000802000F057FB0021802000F053FB0AE0D4
:10412000AE48844207D10121801500F04BFB0021ED
:10413000A01500F047FB10BD10B50121084600F0A6
:1041400041FB0021012000F03DFB10BD2DE9F041B5
:10415000024600250026002000230024002791F8B5
:1041600003C00CF00F0591F803C00CF0100CBCF16B
:10417000000F03D091F802C04CEA050591F800C089
:10418000BCF1000F31D0146800202BE04FF0010C7F
:104190000CFA00F3B1F800C00CEA03069E4220D1ED
:1041A00083004FF00F0C0CFA03F7BC4305FA03FC35
:1041B0004CEA040491F803C0BCF1280F06D14FF07B
:1041C000010C0CFA00FCC2F814C00AE091F803C01C
:1041D000BCF1480F05D14FF0010C0CFA00FCC2F8FD
:1041E00010C0401C0828D1D31460B1F800C0BCF145
:1041F000FF0F34DD546800202EE000F1080C4FF072
:10420000010808FA0CF3B1F800C00CEA03069E425C
:1042100021D183004FF00F0C0CFA03F7BC4305FAD1
:1042200003FC4CEA040491F803C0BCF1280F05D14B
:1042300000F1080C08FA0CF8C2F8148091F803C0D9
:10424000BCF1480F07D100F1080C4FF0010808FA43
:104250000CF8C2F81080401C0828CED35460BDE88A
:10426000F0814FF6FF710180022181700421C1703D
:1042700070470246002093680B400BB1012000E01C
:10428000002070470146886880B2704702460020CF
:10429000D3680B400BB1012000E0002070470146BD
:1042A000C86880B2704701617047416170470AB1C8
:1042B000016100E041617047C16070474FF4803296
:1042C0000A43826181618261826982697047024624
:1042D0000020434B18684FF68073184040EA0210E4
:1042E00008433F4B186070473E49C8617047F0B5BE
:1042F0000A46002300240021002500F00046B6F104
:10430000004F02D1364EF16901E0354E7168C0F3BD
:10431000034583B200F44016B6F5401F08D121F0E2
:1043200070612F4E766826F070662D4F7E6012E029
:1043300000F48016B6F5801F06D1032606FA05F4B0
:10434000A14341F0706106E0460D360103FA06F61E
:10435000B14341F0706122B1460D360103FA06F611
:10436000314300F00046B6F1004F02D11C4EF1611E
:1043700001E01B4E7160F0BD30B500228B071C0FB1
:104380000F2303FA04F2164B08338C1053F8243031
:104390009343134C08348D1044F8253023468C1079
:1043A00053F824308C07240F00FA04F423430C4CF8
:1043B00008348D1044F8253030BD0A49DC310860DE
:1043C0007047000000080140000C0140001001404F
:1043D0000014014000180140001C01400020014071
:1043E000000001400000204210B50121080700F044
:1043F000F6F900214FF0805000F0F1F910BD2A4984
:104400000862704728490861704701460020274A22
:10441000106820F0E0000843106070472249A03186
:104420000860704710B502460020204B186820F045
:104430000300104318601E4B1B6843F004031C4C20
:104440002360012901D130BF00E020BF184B1B6859
:1044500023F00403164C236010BD1448006840F09C
:104460000400124908600846006840F00200086035
:104470000F48006840F004000D49086000BF00BF0D
:1044800030BF704701460020084A52680A400AB10E
:10449000012000E0002070470449096841EA8001DA
:1044A000024A11607047000000000E420070004098
:1044B00010ED00E0DF48006840F00100DD490860D1
:1044C00008464068DC490840DA4948600846006808
:1044D000DA490840D74908600846006820F480207F
:1044E00008600846406820F4FE0048604FF41F0052
:1044F00088607047CF49096821F48031CD4A116046
:104500001146096821F480211160B0F5803F03D085
:10451000B0F5802F0ED106E0C649096841F480311C
:10452000C44A116007E0C349096841F4A021C14AA7
:10453000116000E000BF00BF704710B501460022C7
:10454000002300204A11012A02D1BA4C236806E058
:10455000022A02D1B74C236A01E0B64C636A01F02B
:104560001F02012494401C400CB1012000E00020F7
:1045700010BD38B5002000900024002500BF312078
:10458000FFF7DBFF05460098401C00900098B0F54F
:10459000A06F01D0002DF2D03120FFF7CEFF08B17F
:1045A000012400E00024204638BD01460020A14A35
:1045B000106820F0F80040EAC10010607047A04980
:1045C00008607047024600209A4B586820F47C101F
:1045D00042EA01031843974B5860704798490866B0
:1045E000704701460020934A506820F003000843BA
:1045F000506070478F48406800F00C0070470146DB
:1046000000208C4A506820F0F0000843506070474A
:1046100001460020874A506820F4E060084350605B
:10462000704701460020834A506820F4605040EAF9
:10463000C1005060704729B17E4A527A02437D4BD7
:104640005A7204E07B4A527A82437A4B5A7270471C
:104650007B49D8310860704701460020754A506890
:1046600020F440400843506070470021714A2032D6
:104670001170704A82F82010012802D004280AD153
:1046800004E001216B4A2032117005E00521694ADE
:104690002032117000E000BF00BF70476949086018
:1046A00070476449096A0143624A1162704765496B
:1046B00044390860704730B50021002200240023EF
:1046C0005C4D6D6805F00C0121B1042905D0082965
:1046D00023D105E05C4D056022E05B4D05601FE0E5
:1046E000544D6D6805F47012524D6D6805F48034B8
:1046F000022505EB92421CB9544D554305600BE071
:104700004C4D6D6805F400351DB1504D55430560A5
:1047100002E04D4D5543056002E04B4D056000BF82
:1047200000BF444D6D6805F0F0010909484D6B5C10
:104730000568DD4045603F4D6D6805F4E061090A9C
:10474000434D6B5C4568DD4085603A4D6D6805F40E
:104750006051C90A3E4D6B5C4568DD40C560354D12
:104760006D6805F44041890B3A4D6B5CC568B5FB3B
:10477000F3F5056130BD29B12E4A526902432D4B34
:104780005A6104E02B4A526982432A4B5A617047AE
:1047900029B1284A92690243264B9A6104E0254ACE
:1047A00092698243234B9A61704729B1214AD269A9
:1047B0000243204BDA6104E01E4AD26982431D4B5A
:1047C000DA61704729B11B4AD2680243194BDA609B
:1047D00004E0184AD2688243164BDA60704729B168
:1047E000144A12690243134B1A6104E0114A126918
:1047F0008243104B1A617047124940390860704774
:104800000F49C86470470B49C87170470948406A2E
:1048100040F0807007494862704701460020054A11
:1048200092680A400AB1012000E000207047014967
:1048300088727047001002400000FFF8FFFFF6FE8C
:10484000000042428004424200127A0000093D000A
:104850009C000020AC00002029B1504A128802437D
:104860004E4B1A8004E04D4A128882434B4B1A800B
:1048700070474A48001D008840F010004749091D54
:10488000088070474548001D00884FF6EF710840CA
:104890004249091D08807047002140481C300188AA
:1048A000001F008841EA0040704700B50246FFF74C
:1048B000E0FF100C394918310880091D0A80FFF704
:1048C000E1FF00BD00B50246FFF7D3FFC2F303408E
:1048D000324908310880091D0A80FFF7D3FF00BD67
:1048E00000B50246FFF7C5FF100C2C4920310880A7
:1048F000091D0A80FFF7C6FF00BD002027491031BF
:1049000009880907080B25491431098808437047AD
:1049100000BF2248001D008800F020000028F8D0C9
:1049200070471E48001D00884FF6F77108401B496C
:10493000091D088000BF1948001D008800F008000C
:104940000028F8D0704701460020144A121D128832
:104950000A400AB1012000E0002070470F49091DFC
:10496000098881430D4A121D1180704701460020BD
:104970000A4A121D12880A40D0B2084A12880A4018
:1049800012B108B1012000E0002070470349091D61
:1049900009888143014A121D118070470028004098
:1049A00010B50446BE48844208D101218014FFF7A7
:1049B00009FF0021A014FFF705FF16E0B948844263
:1049C00008D101210014FFF70AFF00212014FFF78E
:1049D00006FF0AE0B448844207D10121C013FFF763
:1049E000FEFE0021E013FFF7FAFE10BD10B5002215
:1049F000028802F441520B884C8823438C8823435D
:104A0000CC8823430C8923434C8923438C8923433B
:104A1000CC8923431A430280838B4FF2FF742340D7
:104A200083830B8A038210BD2DE9F04F85B00546C4
:104A30000C464FF0000902274FF000084FF0010B21
:104A40000026B246A88B4FF240010840A8830220FE
:104A50002884B5F81C90A068022801D100BF38E076
:104A6000A08810B94FF0010B01E04FF0020B8D4808
:104A7000854200D100E000BF6846FFF71CFEDDF86C
:104A800000A0E088B0F5007F0AD14FEA1A2000EBC1
:104A900080004000A168B0FBF1F0401D86B20BE041
:104AA0004FEA4B10BAFBF0F000EB80004000A16829
:104AB000B0FBF1F0401D86B20A20B6FBF0F606F01E
:104AC0000108A6EB0800C0F34F074FF6FF7000EA9D
:104AD0000828022F01DBFF2F02DD02274FF000081C
:104AE000E08840EA080038432884A088A189084368
:104AF000618808432188084340F4006040EA0909BE
:104B0000A5F81C9005B0BDE8F08F00210180418020
:104B10008180C180018141818181C1810721018220
:104B200070470021018041808180C1800221816025
:104B300000218181704721B1028842F04002028049
:104B400004E002884FF6BF731A400280704721B11B
:104B5000828B42F48062828304E0828B4FF6FF33C3
:104B60001A408283704730B5002400230C110125C0
:104B7000A540ABB21AB185881D43858002E08588C7
:104B80009D43858030BD1AB183880B43838002E04A
:104B900083888B4383807047818170470146888971
:104BA00070474FF6FF62914204D0028842F480724F
:104BB000028004E002884FF6FF631A4002807047CB
:104BC00021B1828842F00402828004E082884FF69C
:104BD000FB731A408280704702884FF2FF731A40BD
:104BE000028002880A4302807047018841F48051A4
:104BF0000180704721B1028842F40052028004E033
:104C000002884DF6FF731A4002807047024600206A
:104C1000012901D0108B00E0908A70470146088A74
:104C20007047B1F5804F04D1028842F4804202807F
:104C300004E002884BF6FF731A4002807047024678
:104C4000002013890B400BB1012000E000207047C9
:104C5000CA4302817047F0B50246002000240023B9
:104C6000002501F00F070126BE40B4B20B1101264A
:104C70009E40B3B2968806EA03051689264016B10F
:104C80000DB1012000E00020F0BD10B5002201F0C0
:104C90000F040123A3409AB2D343038110BD000047
:104CA0000030014000380040003C004010B5044690
:104CB000FE48844208D10121C014FFF783FD002182
:104CC000E014FFF77FFDC4E0B4F1804F08D101216B
:104CD0000846FFF784FD00210120FFF780FDB8E0C2
:104CE000F348844208D101210220FFF778FD00211A
:104CF0000220FFF774FDACE0EE48844208D10121A8
:104D00000420FFF76CFD00210420FFF768FDA0E000
:104D1000E948844208D101210820FFF760FD002105
:104D20000820FFF75CFD94E0E448844208D10121AB
:104D30001020FFF754FD00211020FFF750FD88E000
:104D4000DF48844208D101212020FFF748FD0021DF
:104D50002020FFF744FD7CE0DA48844208D101219D
:104D60004014FFF72FFD00216014FFF72BFD70E0CA
:104D7000D548844209D10121C804FFF723FD002151
:104D80004FF40020FFF71EFD63E0D048844209D1B4
:104D900001210805FFF716FD00214FF48010FFF7F1
:104DA00011FD56E0CA48844209D101214805FFF7A8
:104DB00009FD00214FF40010FFF704FD49E0C5484C
:104DC000844208D101214020FFF709FD0021402045
:104DD000FFF705FD3DE0C048844208D10121802055
:104DE000FFF7FDFC00218020FFF7F9FC31E0BB4814
:104DF000844208D101218015FFF7F1FC0021A015A4
:104E0000FFF7EDFC25E0B648844209D101210804F2
:104E1000FFF7D8FC00214FF48030FFF7D3FC18E0F7
:104E2000B048844209D101214804FFF7CBFC00219E
:104E30004FF40030FFF7C6FC0BE0AB48844208D1CA
:104E400001218804FFF7BEFC00214FF48020FFF70A
:104E5000B9FC10BD00220288944B98420ED0994BA9
:104E600098420BD0B0F1804F08D0914B984205D0BA
:104E7000904B984202D0904B984204D14FF68F73DA
:104E80001A404B881A438D4B984207D08C4B98425E
:104E900004D04FF6FF431A40CB881A4302808B8818
:104EA00083850B880385814B98420BD0854B9842B4
:104EB00008D08B4B984205D08A4B984202D08A4B3F
:104EC000984201D10B7A038601238382704770B523
:104ED000002400220023058C4FF6FE763540058421
:104EE000028C8388048B4FF68F752C40B51E2C40A6
:104EF0000D882C43751E2A400D892A434D882A436C
:104F00006A4DA8420BD06F4DA84208D0744DA842FC
:104F100005D0744DA84202D0734DA84213D14FF66C
:104F2000F7752A404D892A434FF6FB752A408D8834
:104F30002A434FF6FF652B404FF6FF552B408D89D6
:104F40002B43CD892B4383800483CD8885860284BF
:104F500070BD70B5002400220023058C4FF6EF765B
:104F600035400584028C8388048B48F6FF752C40FD
:104F70004FF6FF452C400D884FF6FF7606EA0525D3
:104F80002C434FF6DF752A400D8906EA05152A43A2
:104F90004D8806EA05152A43444DA84202D0494DE2
:104FA000A8421DD14FF67F752A404D894FF6FF76F6
:104FB00006EA05152A434FF6BF752A408D8806EA92
:104FC00005152A434FF6FF352B404FF2FF752B4056
:104FD0008D8906EA85052B43CD8906EA85052B4395
:104FE00083800483CD880587028470BD70B500245A
:104FF00000220023058C4FF6FF6635400584028CA5
:105000008388848B4FF68F752C404FF6FC752C40AF
:105010000D882C434FF6FF552A400D894FF6FF7639
:1050200006EA05252A434D8806EA05252A431F4D31
:10503000A84202D0234DA8421DD14FF2FF752A404D
:105040004D894FF6FF7606EA05252A434FF6FF35D0
:105050002A408D8806EA05252A434EF6FF752B4027
:105060004DF6FF752B408D8906EA05152B43CD893A
:1050700006EA05152B4383808483CD8885870284C7
:1050800070BD70B5002200230024058C4EF6FF761B
:1050900035400584038C8488828B48F6FF752A404E
:1050A0004FF6FF452A400D8820E00000002C01400B
:1050B0000004004000080040000C004000100040C8
:1050C0000014004000340140004C014000500140F9
:1050D0000054014000180040001C00400020004027
:1050E0000040014000440140004801404FF6FF7677
:1050F00006EA05252A434DF6FF752B400D8906EA81
:1051000005352B434D8806EA05352B43FA4DA84259
:1051100002D0FA4DA84208D14BF6FF752C408D897C
:105120004FF6FF7606EA85152C4384808283CD886E
:10513000A0F84050038470BD828B4FF2FF331A40B9
:105140008283828B4FF6FF7303EA01231A43828323
:105150007047F0B50C461546002200210026078C4A
:105160004EF6FF7C07EA0C070784828B018C4FF612
:10517000FF7707EA043640F6FF473A404FF6FF77DD
:1051800007EA05273A434FF6FF7707EA03373A4322
:10519000D94FB8420ED0D94FB8420BD0B0F1804FA2
:1051A00008D0D74FB84205D0D64FB84202D0D64F1C
:1051B000B84206D14DF6FF77394046F4805739435F
:1051C00005E047F6FF57394044F48057394382835E
:1051D0000184F0BD828B4FF6F3731A408283828B79
:1051E0000A4382837047F0B50C4615460022002121
:1051F0000026078C4FF6FF6C07EA0C070784828BAA
:10520000018C4FF6FF7707EA04264FF60C773A40F9
:105210004FF6FF7707EA03172F433A43B64FB842DA
:105220000ED0B64FB8420BD0B0F1804F08D0B44F7B
:10523000B84205D0B34FB84202D0B34FB84206D1FE
:105240004FF6FF57394046F48077394305E04FF277
:10525000FF57394044F48077394382830184F0BD9D
:10526000028B4FF2FF331A400283028B4FF6FF731B
:1052700003EA01231A4302837047F0B50C46154632
:10528000002200210026078C4FF6EF7C07EA0C076E
:105290000784028B018C4FF6FF7707EA041640F66D
:1052A000FF473A404FF6FF7707EA03373A434FF696
:1052B000FF7707EA05273A438F4FB8420ED08F4F4A
:1052C000B8420BD0B0F1804F08D08D4FB84205D016
:1052D0008C4FB84202D08C4FB84206D14FF6DF77E0
:1052E000394046F01007394305E04FF65F77394003
:1052F00044F01007394302830184F0BD028B4FF65E
:10530000F3731A400283028B0A4302837047F0B59D
:105310000C46154600220021068C4FF6FE773E40D3
:105320000684028B018C4FF60C7632407E1C06EA16
:1053300003162E433243704EB0420ED06F4EB04231
:105340000BD0B0F1804F08D06D4EB04205D06D4EFD
:10535000B04202D06C4EB04206D14FF6FD763140DD
:1053600044F00106314305E04FF6F576314044F054
:105370000106314302830184F0BD70B505460C4639
:105380005D4885420ED05D4885420BD0B5F1804F17
:1053900008D05B48854205D05A48854202D05A4819
:1053A000854200D100E000BF208850B92389A2883F
:1053B00061882846FFF7ABFFE1882846FFF79EFF8C
:1053C00025E0208804280AD12389A28861882846FC
:1053D000FFF753FFE1882846FFF742FF17E02088D8
:1053E00008280AD12389A28861882846FFF7FBFE96
:1053F000E1882846FFF7EEFE09E02389A28861884C
:105400002846FFF7A6FEE1882846FFF795FE70BD07
:105410002DE9F04105460C4600260127608808B9B1
:10542000022600E00026A088012801D1022700E022
:1054300001272088A0B92389A28861882846FFF720
:1054400066FFE1882846FFF759FF23893A4631462F
:105450002846FFF712FFE1882846FFF701FF13E017
:105460002389A28861882846FFF707FFE18828463C
:10547000FFF7F6FE23893A4631462846FFF747FFF5
:10548000E1882846FFF73AFFBDE8F0810A884B889B
:105490001A438B881A43CB881A430B891A434B89CA
:1054A0001A438B891A43A0F8442070474FF6FF71C6
:1054B000818000210180C1804180017270470021FC
:1054C000018041808180C180018141818181C181D0
:1054D0007047002101804180012181800021C1802D
:1054E000018170470021018041808180C18001815C
:1054F0004181818170470000002C0140003401404F
:105500000004004000080040000C004021B1028867
:1055100042F00102028004E002884FF6FE731A4056
:105520000280704731B1B0F8442042F40042A0F844
:10553000442005E0B0F84420C2F30E02A0F8442055
:1055400070471AB183890B43838102E083898B43BF
:10555000838170478182704741EA0203A0F8483096
:1055600070471AB183890B43838102E083898B439F
:105570008381704701894FF6F872114001817047AD
:105580000A46002101894FF68F73194011430181AA
:10559000704730B504460D4629462046FFF7F0FF18
:1055A000208940F00700208130BD2DE9F0410446FC
:1055B0000D4616461F46602D06D13B460122314658
:1055C0002046FFF75AFE05E03B46012231462046C1
:1055D000FFF79DFE29462046FFF7D2FF208940F0C5
:1055E00007002081BDE8F08130B50C46002101891B
:1055F000C9B24FF6FF7505EA032515432543294334
:10560000018130BD2DE9F04105460E46174698460A
:10561000002443463A4631462846FFF7E5FF2C89E9
:105620004FF6F870044044F007044FF68F700440C2
:1056300044F070042C81BDE8F081F0B504460D46BD
:1056400016461F463B46324629462046FFF7CCFF0A
:10565000208940F480402081F0BD0185828270471E
:105660000A46002101884FF68F73194011430180CB
:105670007047F0B50C4615461E4600210022002357
:105680000189028B038C4FF6F877394021434FF69E
:10569000FC473A4040F201173A434FF6DD773B4072
:1056A0004FF6FF7707EA06172F433B43018102833A
:1056B0000384F0BD0A460021018B4FF68F73194019
:1056C0001143018370470A460021018B48F6FF739E
:1056D00019404FF6FF7303EA022319430183704711
:1056E0000A460021818B4FF68F7319401143818345
:1056F00070470A460021818B48F6FF7319404FF628
:10570000FF7303EA022319438183704721B10288A2
:1057100042F08002028004E002884FF67F731A4054
:105720000280704721B1828842F00402828004E046
:1057300082884FF6FB731A408280704721B18288BD
:1057400042F00802828004E082884FF6F7731A4024
:105750008280704721B1828842F00102828004E099
:1057600082884FF6FE731A40828070470A460021F5
:10577000018B4FF6F77319401143018370470A46B6
:105780000021018B4FF2FF7319404FF6FF7303EABC
:1057900002231943018370470A460021818B4FF68B
:1057A000F77319401143818370470A460021818BAA
:1057B0004FF2FF7319404FF6FF7303EA02231943B8
:1057C000818370470A460021018B4FF6FB73194015
:1057D0001143018370470A460021018B4FF6FF33C6
:1057E00019404FF6FF7303EA022319430183704700
:1057F0000A460021818B4FF6FB73194011438183C8
:1058000070470A460021818B4FF6FF3319404FF64F
:10581000FF7303EA02231943818370470A4600217C
:10582000018B4FF67F7319401143018370470A467D
:105830000021018BC1F30E014FF6FF7303EA02232F
:105840001943018370470A460021818B4FF67F730D
:1058500019401143818370470A460021818BC1F3AF
:105860000E014FF6FF7303EA022319438183704749
:105870000A460021018C4FF6FD7319401143018443
:1058800070470A460021018C4FF6F7731940114307
:10589000018470470A460021018C4FF6DF731940DE
:1058A0004FF6FF7303EA02131943018470470A4657
:1058B0000021018C4FF67F7319404FF6FF7303EA06
:1058C00002131943018470470A460021018C4FF6E8
:1058D000FF5319404FF6FF7303EA02231943018473
:1058E00070470A460021018C4FF2FF7319404FF6B2
:1058F000FF7303EA02231943018470470A4600211B
:10590000018C4DF6FF7319404FF6FF7303EA023323
:1059100019430184704730B5002301248C40A3B2A1
:10592000048C9C430484048C02FA01F5ADB22C4330
:10593000048430BD30B5002304248C40A3B2048C11
:105940009C430484048C02FA01F5ADB22C43048418
:1059500030BD70B5034600200024184618300125DC
:105960008D40ACB21D8CA5431D8409B1082909D115
:1059700000EB6100056825F07005056005681543BA
:1059800005600EE00D1FC5F34E052844056825F49B
:10599000E045056005684FF6FF7606EA02263543C6
:1059A000056070BD21B1028842F00202028004E06D
:1059B00002884FF6FD731A400280704721B10288B9
:1059C00042F00402028004E002884FF6FB731A40A2
:1059D0000280704721B1828842F08002828004E018
:1059E00082884FF67F731A408280704702884FF694
:1059F000F7731A40028002880A4302807047828847
:105A00004FF68F731A40828082880A4382807047E3
:105A100002894FF6F8731A40028102890A43028113
:105A2000704702894FF67F731A40028102890A4348
:105A300002817047818470478185704781867047F5
:105A40000187704781877047A0F84010704702882F
:105A50004FF6FF431A40028002880A4302807047D3
:105A60000146888E70470146088F70470146888F2F
:105A700070470146B1F8400070470146888C704776
:105A80000146088D704702460020138A0B400BB177
:105A9000012000E000207047CA430282704730B501
:105AA0000246002000230024158A05EA0103958997
:105AB00005EA010413B10CB1012000E0002030BD63
:105AC000CA4302827047000010B50446FB48844276
:105AD00009D101218803FEF775FE00214FF48040B3
