:020000040800F2
:10000000A01E0020858900084D2F00084F2F0008F2
:10001000532F0008572F00085B2F00080000000036
:100020000000000000000000000000005F2F00083A
:10003000612F000800000000C7410008D9440008F3
:100040009F8900089F8900089F89000831350008B2
:100050009F8900089F8900089F8900089F890008E0
:100060009F8900089F8900089F8900089F890008D0
:100070009F8900089F8900089F8900089F890008C0
:100080009F8900089F8900089F8900089F890008B0
:100090009F8900089F8900089F8900089F890008A0
:1000A0009F8900089F8900089F8900089F89000890
:1000B0009F8900089F8900089F8900089F89000880
:1000C0009F8900089F8900089F8900089F89000870
:1000D0009F8900089F8900089F8900089F89000860
:1000E0009F8900089F8900089F8900089F89000850
:1000F0009F8900089F8900089F8900089F89000840
:100100009F8900089F8900089F8900089F8900082F
:100110009F8900089F8900089F8900089F8900081F
:100120009F8900089F8900089F8900089F8900080F
:10013000DFF80CD008F0B4FE00480047AF0100081B
:10014000A01E002010B5002807DA0A07140E294A5D
:1001500000F00F031B1FD45403E00A07130E264AB6
:10016000135410BD7047704710B500214FF0006068
:1001700007F069F94FF4A06007F02EF9FE214FF067
:10018000FF30FFF7DFFFFF216FF00100FFF7DAFF1D
:1001900010BD10B5FFF7E7FF002007F01AF802F0D6
:1001A00019FF16481649826A0220904710BD10B503
:1001B000FFF7DAFF03F0C3FFFFF7EBFF04F031FABC
:1001C0000E4881680F4888470F4908700B488168BE
:1001D0000E4888470E490870084881680D488847CE
:1001E0000D4908700D49486A8047044948688047AE
:1001F000002010BD18ED00E000E400E07C050020C8
:10020000650100088703000800000020950B000826
:10021000010000204702000802000020A40D002079
:10022000704710B51948AFF205026421036A012036
:100230009847002404E0204602F011FD601CC4B27F
:10024000022CF8DB10BD08B502F05CFD06F032FBB5
:1002500002F00BFB0D48AFF235026421036A012066
:10026000984712E00948C1683220884700909DF8FD
:100270000300082802D0FF2803D105E0009880473A
:1002800002E002F08FFD00BF00BFEBE77C0500201D
:10029000534800F0704000F10070514900EB4110EC
:1002A000504908600846006810304F4908604C48C3
:1002B000801D00F0704000F100704949891D00EB7D
:1002C00041104A49086008460068083048490860FB
:1002D0004348123047490860801D47490860084676
:1002E000006800F0704000F10070096800EB4110F8
:1002F00042490860404800680830414908603E486B
:100300000068001D00F0704000F100703A49096873
:10031000091D00EB41103B490860704710B53A4891
:10032000AFF207020A21036A01209847002404E083
:10033000204601F0FBFE601CC4B2022CF8DB10BDAD
:1003400010B500243048AFF207023221036A0120C1
:10035000984700BF14E02448006800EB8410806BCD
:1003600018B1204601F073FC02E0204600F0DDFFEA
:10037000204602F06DF9204602F00BFA601CC4B270
:10038000022CE8DB10BD08B5FFF782FF01F05AFD33
:100390001D4841694FF47A7088471B48AFF28302C9
:1003A0000A21036A012098471748AFF26B023221F5
:1003B000036A0120984711E01348C1684FF4FA70AE
:1003C000884700909DF80300082802D0FF2803D139
:1003D00003E00098804700E000BF00BFECE70000AA
:1003E0005C01002004000020140000200800002010
:1003F000180000201C0000200C0000202400002019
:1004000020000020280000207C05002010B5FE4AB6
:10041000126802EB4012D268002A66D0FA4A1268CB
:1004200002EB40121269002A5FD1F84A32F811201B
:10043000F74B9B781A44F74B33F910309A420ADA9B
:10044000F44A32F81020F24B9B78D21A12B2F14BD8
:1004500023F81020EAE0ED4A32F81120EC4B5B5C07
:100460001A44EC4B33F910309A420ADAE94A32F86E
:100470001020E74B5B5CD21A12B2E64B23F8102037
:10048000D4E0E24A32F81120E14B5B5CD21AE14B36
:1004900033F910309A4207DADC4A32F8112012B2EE
:1004A000DC4B23F81020C1E0D84A32F81120D84B99
:1004B0009B78D21AD74B33F910309A420ADAD54AD0
:1004C00032F81020D24B5B5C1A4412B2D14B23F8A5
:1004D0001020ABE0CF4A32F81020CD4B9B781A4465
:1004E00012B2CC4B23F81020A0E0C74A126802EBEE
:1004F00040121269002A6BD0C34A126802EB401204
:10050000D268002A64D1C14A32F811205242C04B4D
:100510009B78D21ABF4B33F910309A420ADDBD4A9C
:1005200032F81020BA4B9B781A4412B2B94B23F818
:1005300010207BE0B54A32F811205242B44B5B5C8C
:10054000D21AB44B33F910309A420ADDB14A32F86C
:100550001020AF4B5B5C1A4412B2AE4B23F8102054
:1005600064E0AA4A32F811205242A94B5B5C1A445B
:10057000A84B33F910309A4208DDA44A32F8112012
:10058000524212B2A34B23F810204FE09F4A32F898
:10059000112052429E4B9B781A449E4B33F91030E7
:1005A0009A420ADD9B4A32F81020994B5B5CD21AC2
:1005B00012B2984B23F8102038E0964A32F81020F7
:1005C000934B9B78D21A12B2924B23F810202DE055
:1005D0008E4B9A888F4B33F9103002EBD274B3EB09
:1005E000640F09DD894B9A8802EBD2735B101BB252
:1005F000884C24F8103019E0844B9B885A42854B74
:1006000033F9103002EBD274B3EB640F0ADA7F4B8C
:100610009B885A4202EBD2735B101BB27D4C24F8CC
:10062000103003E000227B4B23F8102010BD10B5E2
:100630007948AFF205026421036A0120984700243B
:1006400062E07148006800EB4410806950B16E4868
:10065000006800EB4410C06920B102212046FFF77A
:10066000D5FE4FE06848006800EB4410806950B147
:100670006548006800EB4410C06920B9012120469C
:10068000FFF7C4FE3EE06048006800EB441080695C
:1006900050B95D48006800EB4410C06920B10021EA
:1006A0002046FFF7B3FE2DE058498888594931F9B3
:1006B000141000EBD072B1EB620F09DD534988884A
:1006C00000EBD071491009B2524A22F8141019E017
:1006D0004E49898848424F4931F9141000EBD072D5
:1006E000B1EB620F0ADA49498988484200EBD071C0
:1006F000491009B2474A22F8141003E00020454986
:1007000021F81400601CC4B2022C9ADB10BD10B595
:1007100004463D48006800EB44108068002871D012
:100720003C4830F914000A2190FBF1F1C4EB0410AD
:1007300000EBC00239480068083000EB4200C08876
:10074000084481B2C4EB041000EBC00233480068D7
:10075000083000EB4200C180C4EB041000EBC00085
:100760002F49096801EB4000C088C4EB041101EB7C
:10077000C1012B4A126802EB4101098A88421DDB44
:1007800021480068C068C8B126480068103050F899
:10079000240060B90321204601F034FD204601F019
:1007A000C7FD01211F480068103040F824100120C7
:1007B0001D49096801EB8411C8610BE000201A494A
:1007C000096801EB8411C8610021164800681030E7
:1007D00040F82410C4EB041000EBC0001049096875
:1007E00001EB4000C088C4EB041101EBC1010C4ACD
:1007F000126802EB4101C989884232DC0248006874
:10080000006913E039E00000180000203C9B00085C
:10081000429B0008100000207C0500200C000020F6
:10082000200000202400002014000020C8B1ED4862
:100830000068083050F8240060B90221204601F019
:10084000E1FC204601F074FD0121E6480068083013
:1008500040F824100120E449096801EB8411886103
:100860000BE00020E049096801EB84118861002158
:10087000DC480068083040F8241010BDDB490968E6
:1008800001EB40114968C1B1D94931F91010142266
:1008900091FBF2F1C0EB001202EBC202D54B1B68D8
:1008A00003EB420292891144C0EB001202EBC20238
:1008B000D04B1B6803EB42029181C0EB001101EBAE
:1008C000C101CC4A126802EB41018989B1F5B05FE0
:1008D00011DD0121C44A126802EB8012D160C24AC4
:1008E000126802EB801211610021BF4A126802EB0C
:1008F000801251614EE0C0EB001101EBC102BE4914
:100900000968083101EB42018989B1F5A85F12DB62
:100910000021B54A126802EB8012D1600121B24A6F
:10092000126802EB801211610021AF4A126802EBDB
:10093000801251612EE0C0EB001101EBC102AE4903
:100940000968083101EB42018989B1F5805F11DC4A
:100950000021A54A126802EB8012D160A24A1268F7
:1009600002EB8012116101219F4A126802EB801292
:1009700051610FE000219C4A126802EB8012D160A5
:10098000994A126802EB80121161974A126802EBD1
:100990008012516170479549096801EB401109685F
:1009A000C1B1934931F91010142291FBF2F1C0EB5F
:1009B000001202EBC2028F4B1B6803EB420252890A
:1009C0001144C0EB001202EBC2028A4B1B6803EB1E
:1009D00042025181C0EB001101EBC101854A12684E
:1009E00002EB41014989B1F5B05F11DD01217E4A79
:1009F000126802EB801211607B4A126802EB8012CF
:100A000051600021784A126802EB801291604CE03C
:100A1000C0EB001101EBC101764A126802EB410103
:100A20004989B1F5A85F12DB00216F4A126802EB19
:100A30008012116001216C4A126802EB8012516031
:100A40000021694A126802EB801291602DE0C0EB30
:100A5000001101EBC101674A126802EB41014989AB
:100A6000B1F5805F11DC00215F4A126802EB801251
:100A700011605D4A126802EB8012516001215A4AEE
:100A8000126802EB801291600FE00021564A126852
:100A900002EB80121160544A126802EB801251601E
:100AA000514A126802EB80129160704710B55348AA
:100AB000AFF20702C821036A0120984700243EE0F4
:100AC0004A48006800EB4410C06830B147480068ED
:100AD00000EB4410006900B110BD4448006800EB11
:100AE0004410006830B14148006800EB4410406891
:100AF00000B1F1E73D48006800EB4410006830B1F8
:100B00003A48006800EB4410806800B1E4E73748D9
:100B1000006800EB4410406830B13448006800EBD6
:100B20004410806800B1D7E72046FFF7F0FD20466B
:100B3000FFF731FF2046FFF7A1FE601CC4B2022C74
:100B4000BEDB00BFC8E702281CD0B0F5857F03D00C
:100B5000A0F20B11D9B90AE023490968896B09B9D8
:100B6000012100E00021204A1268916310E01E4933
:100B70000968896F09B9012200E000221A49096851
:100B80008A6705E00122184909688A6700E000BF0A
:100B900000BF704708B51948AFF26D526421036A6F
:100BA000012098471548AFF2FB02C821036A0120D3
:100BB000984715E01148C1680020884700909DF8CB
:100BC0000300082807D0FF2808D1009921F07F40B2
:100BD000FFF7B9FF03E00098804700E000BF00BFC7
:100BE000E8E7000024000020140000201800002086
:100BF00010000020200000200C0000207C050020B8
:100C000010B50446204601F093FB0020C4EB04110C
:100C100001EBC101F84A126822F8110010BD10B5AD
:100C20000446F648006800EB8410806A28B9F3484F
:100C3000006800EB8410C06A00B3204601F0CEFBD0
:100C400050B14FF40040C4EB041101EBC101EA4A7A
:100C5000126822F8110010BDC4EB041000EBC000B4
:100C6000E549096831F8100020F40041C4EB041094
:100C700000EBC000E04A126822F81010DF4800685C
:100C800000EB8410806A00287ED0DC48006800EB0E
:100C90008410006828B9D948006800EB8410C06847
:100CA00088B1D748006850F8240058B90120D449C9
:100CB000096841F82400204601F03AFB042120464F
:100CC00001F0A0FAC7E7C4EB041000EBC000CA496A
:100CD000096831F8100008B9012000E00020C4EBD9
:100CE000041101EBC101C44A126832F8111040F23C
:100CF0000462914201D1012100E000210843C4EBCC
:100D0000041101EBC101BC4A126832F81110B1F5AF
:100D1000C16F01D1012100E00021084350B140F230
:100D20000160C4EB041101EBC101B34A126822F85F
:100D300011004EE0C4EB041000EBC000AE4909689E
:100D400031F8100040F2016188422AD1C4EB04104E
:100D500000EBC000A849096801EB40004088401C36
:100D6000C4EB041101EBC101A34A126802EB41017B
:100D70004880C4EB041000EBC0009F49096801EBF8
:100D800040004088322800E024E022DD40F202608A
:100D9000C4EB041101EBC101974A126822F811005B
:100DA00017E0C4EB041000EBC0009349096831F868
:100DB000100000F0020060B1204601F0B9FA4FF4D3
:100DC000A260C4EB041101EBC1018B4A126822F846
:100DD000110040E78948006800EB8410C06A0028D1
:100DE00076D08748006850F8240020B1002084495C
:100DF000096841F82400C4EB041000EBC0007E49F0
:100E0000096831F8100008B9012000E00020C4EBA7
:100E1000041101EBC101784A126832F8111040F256
:100E20000452914201D1012100E000210843C4EBAA
:100E3000041101EBC101704A126832F81110B1F5CA
:100E4000A16F01D1012100E00021084350B140F21F
:100E50000150C4EB041101EBC101674A126822F88A
:100E600011004EE0C4EB041000EBC00062490968B9
:100E700031F8100040F2015188422AD1C4EB04102D
:100E800000EBC0005C49096801EB40004088401C51
:100E900081B2C4EB041000EBC000574A126802EBA9
:100EA00040004180C4EB041000EBC00052490968C7
:100EB00001EB40004088322823DD40F20251C4EBB0
:100EC000041000EBC0004C4A126822F8101018E021
:100ED00018E0C4EB041000EBC0004749096831F882
:100EE000100000F0010060B1204601F021FA4FF43B
:100EF000C260C4EB041101EBC1013F4A126822F841
:100F00001100A8E63D48006800EB8410406A002804
:100F100071D0204601F095FA00B19CE6C4EB0410B4
:100F200000EBC0003449096831F8100008B901200D
:100F300000E00020C4EB041101EBC1012E4A12684D
:100F400032F8111040F60422914201D1012100E053
:100F500000210843C4EB041101EBC101264A1268C9
:100F600032F8111040F60822914201D1012100E02F
:100F70000021084350B140F60120C4EB041101EBFD
:100F8000C1011D4A126822F8110053E0C4EB04109D
:100F900000EBC0001849096831F8100040F6012143
:100FA00088422FD1C4EB041000EBC000124909683D
:100FB00001EB40004088401CC4EB041101EBC1016F
:100FC0000D4A126802EB41014880C4EB041000EBAB
:100FD000C0000949096801EB40004088322829DD3A
:100FE00040F60221C4EB041000EBC000024A126874
:100FF00022F810101EE01EE0200000201400002047
:1010000024000020C4EB041000EBC000CA490968AA
:1010100031F8100000F0020060B1204601F088F9BC
:101020004FF41160C4EB041101EBC101C24A126814
:1010300022F811000FE6C148006800EB8410006A36
:10104000E0B3204601F07BFA00B104E6C4EB0410E3
:1010500000EBC000B849096831F8100008B9012058
:1010600000E00020C4EB041101EBC101B24A126898
:1010700032F8111040F60412914201D1012100E032
:1010800000210843C4EB041101EBC101AA4A126814
:1010900032F8111040F60812914201D1012100E00E
:1010A0000021084358B140F60111C4EB041000EBD5
:1010B000C000A14A126822F810104DE04DE0C4EBC8
:1010C000041000EBC0009C49096831F8100040F69C
:1010D0000111884228D1C4EB041000EBC0009649EE
:1010E000096801EB40004088401CC4EB041101EB8F
:1010F000C101914A126802EB41014880C4EB04101F
:1011000000EBC0008C49096801EB400040883228A0
:1011100022DD40F60210C4EB041101EBC101864A46
:10112000126822F8110017E0C4EB041000EBC000B5
:101130008149096831F8100000F0010060B12046D3
:1011400001F0F6F84FF42160C4EB041101EBC1018A
:10115000794A126822F811007DE50020C4EB0411E1
:1011600001EBC101744A126802EB41014880C4EBF3
:10117000041000EBC0007049096831F8100040F617
:101180000112811A90426DD013DCB0F5A26F74D0B9
:1011900007DC20287FD0A0F20150A8B3012855D148
:1011A0003EE0A0F20160C8B1012822D00F284DD145
:1011B00072E040F20112881A914248D007DC0129FE
:1011C0005DD00F296BD0B1F5807F72D133E00E284E
:1011D00064D0A0F5EA40FE38C0BB5BE04FF4C160CC
:1011E000C4EB041101EBC101534A126822F811004B
:1011F00060E040F20460C4EB041101EBC1014E4A0F
:10120000126822F8110055E0FFE74FF4A161C4EB2A
:10121000041000EBC000484A126822F8101049E0A0
:1012200040F20450C4EB041101EBC101424A1268C0
:1012300022F811003EE040F60820C4EB041101EB57
:10124000C1013D4A126822F8110033E031E040F656
:101250000420C4EB041101EBC101374A126822F8E3
:10126000110027E040F60811C4EB041000EBC000A9
:10127000314A126822F810101CE00EE00BE040F634
:101280000410C4EB041101EBC1012B4A126822F8CF
:1012900011000FE000BF00BF00BF00BF00BF002073
:1012A000C4EB041101EBC101234A126822F81100BA
:1012B00000E000BF00BFC4EB041000EBC0001E49FB
:1012C000096831F8100040F60421884201D101205C
:1012D00000E00020C4EB041101EBC101164A1268C2
:1012E00032F8111040F60412914201D1012100E0C0
:1012F00000210843B8B1C4EB041000EBC0000E4954
:10130000096801EB4000008900F0010058B920464F
:1013100001F00EF82021C4EB041000EBC000064AD7
:10132000126822F8101000BF95E410B5044620465C
:10133000FFF775FC10BD0000200000201400002005
:1013400070B50446204601F049F808B1FF2070BD91
:10135000204601F012F808B1FF20F8E7C4EB0410B2
:1013600000EBC000FE49096801EB4000008900F471
:10137000807030B3FB48006800EB8410406848B1CF
:101380000020C4EB041101EBC101F54A126822F8F8
:101390001100DCE7C4EB041000EBC000F049096861
:1013A00001EB40004089C0F5A85005B22120C4EBF4
:1013B000041101EBC101EA4A126802EB41014870D5
:1013C00032E0C4EB041000EBC000E549096801EB12
:1013D0004000008900F4007030B3E248006800EB80
:1013E0008410006950B10021C4EB041000EBC00070
:1013F000DB4A126822F810100020A8E7C4EB0410A2
:1014000000EBC000D649096801EB40008089C0F5B7
:10141000A85005B24121C4EB041000EBC000D04A33
:10142000126802EB40004170282D09DA0420C4EB59
:10143000041101EBC101CA4A126802F8110015E05B
:10144000B5F5967F09DA0120C4EB041101EBC10167
:10145000C34A126802F8110008E00220C4EB04112C
:1014600001EBC101BE4A126802F8110001206EE7CB
:10147000C0EB001101EBC101B94A126802EB410156
:101480004988491CC0EB001202EBC202B44B1B6836
:1014900003EB42025180C0EB001101EBC101B04AE5
:1014A000126802EB41014988C8291CD10021C0EB18
:1014B000001202EBC202AA4B1B6803EB42025180EE
:1014C000C0EB001101EBC101A54A126802EB41011A
:1014D0008988491CC0EB001202EBC202A04B1B68BA
:1014E00003EB42029180704770B50446204600F03D
:1014F00075FF08B1FF2070BDC4EB041000EBC00005
:101500009749096801EB4000008900F4807050B3EE
:101510009448006800EB8410806868B10020C4EB38
:10152000041101EBC1018E4A126822F81100204615
:10153000FFF79EFF0020DEE7C4EB041000EBC000C5
:101540008749096801EB40004089A0F5805005B249
:101550002220C4EB041101EBC101814A126802EBA5
:101560004101487035E0C4EB041000EBC0007C4939
:10157000096801EB4000008900F4007048B3794825
:10158000006800EB8410406968B10020C4EB0411CE
:1015900001EBC101724A126822F811002046FFF7E0
:1015A00067FF0020A7E7C4EB041000EBC0006C4904
:1015B000096801EB40008089A0F5805005B2422007
:1015C000C4EB041101EBC101654A126802EB410151
:1015D0004870282D09DA0421C4EB041000EBC00088
:1015E0005F4A126802F8101015E0B5F5967F09DA27
:1015F0000120C4EB041101EBC101594A126802F841
:10160000110008E00220C4EB041101EBC101544AAF
:10161000126802F8110001206DE72DE9F04104463F
:101620000E461746012F10D14F4830F81600A0F58E
:101630009670C4EB041101EBC101494A126802EB38
:101640004101C988401A05B215E0022F10D1464861
:1016500030F8160000F59670C4EB041101EBC101DF
:101660003F4A126802EB4101C988401A05B202E004
:10167000FF20BDE8F081002D10DA204600F05FFF6A
:1016800008B1FF20F5E71220C4EB041101EBC10102
:10169000334A126802EB410148700FE0204600F027
:1016A000D0FE08B1FF20E4E71120C4EB041101EBE8
:1016B000C1012B4A126802EB410148700F2D0CDA70
:1016C00015F10F0F09DD0020C4EB041101EBC1017E
:1016D000234A126822F81100CBE7502D0CDA15F1DD
:1016E000500F09DD0420C4EB041101EBC1011C4AB9
:1016F000126802F8110018E0B5F5167F0CDA15F53E
:10170000167F09DD0120C4EB041101EBC101144A6D
:10171000126802F8110008E00221C4EB041000EB8B
:10172000C0000F4A126802F810100120A1E77047AC
:1017300010B504460A480068C08A06287AD2DFE855
:1017400000F0037A8DC5FEFDC4EB041000EBC00071
:101750000349096801EB4000007D212832D105E0F2
:101760002000002014000020469B0008C4EB041059
:1017700000EBC000FE49096801EB4000008900F45D
:101780000070F8B12120C4EB041101EBC101F84A4B
:10179000126802EB41010883C4EB041000EBC000A7
:1017A000F349096801EB4000017AC4EB041000EB37
:1017B000C000EF4A126802EB400041760120EC497C
:1017C0000968C882C4EB041000EBC000E84909684E
:1017D00001EB4000007D12282BD1C4EB041000EB7C
:1017E000C000E349096801EB4000008900F4807003
:1017F000F8B11220C4EB041101EBC101DC4A1268FC
:1018000002EB41010883C4EB041000EBC000D8498F
:10181000096801EB4000017AC4EB041000EBC00042
:10182000D34A126802EB400041760120D049096892
:10183000C882E2E0DCE02046FFF782FD68B90020C4
:10184000C4EB041101EBC101C94A126802EB41016A
:1018500048800220C6490968C882CEE0C4EB041063
:1018600000EBC000C249096801EB40004088401C01
:10187000C4EB041101EBC101BD4A126802EB410146
:101880004880C4EB041000EBC000B949096801EBC3
:1018900040004088642818DDC4EB041000EBC00051
:1018A000B349096801EB4000007D22280DD10020DA
:1018B000C4EB041101EBC101AD4A126802EB410116
:1018C00048800320AA490968C88296E0C4EB041046
:1018D00000EBC000A649096801EB4000007E21280A
:1018E00011D1C4EB041000EBC000A14A126802EB56
:1018F0004000417E02222046FFF78FFE18B90420E7
:101900009B490968C882C4EB041000EBC0009849E9
:10191000096801EB4000007E122814D1C4EB0410CA
:1019200000EBC000924A126802EB4000417E0122A7
:101930002046FFF772FE30B9042001E017E003E013
:101940008B490968C88258E02046FFF7CDFD68B989
:101950000020C4EB041101EBC101854A126802EBBF
:1019600041014880052082490968C88245E0C4EBEE
:10197000041000EBC0007E49096801EB400040887C
:10198000401CC4EB041101EBC101794A126802EB5F
:1019900041014880C4EB041000EBC00074490968A1
:1019A00001EB400040880A2821DB0020C4EB041131
:1019B00001EBC1016E4A126802EB41014880C4EBA1
:1019C000041000EBC0006A49096801EB4000808800
:1019D000401C81B2C4EB041000EBC000644A1268E2
:1019E00002EB40008180002061490968C88204E060
:1019F00000205F490968C88200BF00BF10BD10B554
:101A000004465B480068C08A05287BD2DFE800F006
:101A1000033A4D7B8E00C4EB041000EBC000544928
:101A2000096801EB4000007D12280FD1C4EB0410BF
:101A300000EBC0004E49096801EB4000008900F44A
:101A4000007018B101204A490968C882C4EB04102B
:101A500000EBC0004649096801EB4000007D2128E9
:101A60000FD1C4EB041000EBC0004149096801EB41
:101A70004000008900F4807018B101203C490968D9
:101A8000C8829BE02046FFF72FFD68B90020C4EB19
:101A9000041101EBC101364A126802EB4101488092
:101AA000022033490968C88288E0C4EB041000EBC7
:101AB000C0002F49096801EB40004088401CC4EB7E
:101AC000041101EBC1012A4A126802EB410148806E
:101AD000C4EB041000EBC0002549096801EB40008D
:101AE000408864280DDD0020C4EB041101EBC10126
:101AF0001F4A126802EB4101488003201C49096813
:101B0000C8825BE055E02046FFF71AFC68B9002068
:101B1000C4EB041101EBC101154A126802EB41014B
:101B20004880042012490968C88247E0C4EB0410C9
:101B300000EBC0000E49096801EB40004088401CE2
:101B4000C4EB041101EBC101094A126802EB410127
:101B50004880C4EB041000EBC0000549096801EBA4
:101B6000400040880A2823DB0021C4EB041001E078
:101B70002000002000EBC000B04A126802EB4000D9
:101B80004180C4EB041000EBC000AC49096801EBD4
:101B900040008088401CC4EB041101EBC101A74A3E
:101BA000126802EB410188800020A4490968C882BC
:101BB00004E00020A1490968C88200BF00BF10BD31
:101BC0000021C0EB001202EBC2029C4B1B6803EB2E
:101BD000420291807047C0EB001101EBC101974AAE
:101BE000126802EB41014988491CC0EB001202EB6C
:101BF000C202924B1B6803EB42025180C0EB001102
:101C000001EBC1018D4A126802EB410149880A29A2
:101C10001CD10021C0EB001202EBC202874B1B68F3
:101C200003EB42025180C0EB001101EBC101834A7A
:101C3000126802EB41018988491CC0EB001202EBDB
:101C4000C2027E4B1B6803EB42029180704770B565
:101C50000446C4EB041000EBC0007849096801EBAE
:101C600040001A30C4EB041101EBC101734A126841
:101C700002EB4101898830F81100052810D006DCFC
:101C8000012811D0022831D0032863D150E0062862
:101C900002D010285ED14FE02046FFF749FDCAE090
:101CA0002046FFF7ACFEC6E02046FFF749FBE0B94F
:101CB0000020C4EB041101EBC101604A126802EB81
:101CC00041014880C4EB041000EBC0005B49096887
:101CD00001EB40008088401CC4EB041101EBC10102
:101CE000564A126802EB41018880A4E02046FFF7C3
:101CF000FBFBE0B90020C4EB041101EBC1014F4A2A
:101D0000126802EB41014880C4EB041000EBC000F4
:101D10004A49096801EB40008088401CC4EB04116B
:101D200001EBC101454A126802EB4101888082E063
:101D30002046FFF750FF7EE02046FFF741FF0021DD
:101D4000C4EB041000EBC0003C4A126802EB4000F8
:101D5000818070E0C4EB041000EBC00037490968D3
:101D600001EB40001A30C4EB041101EBC101334A0E
:101D7000126802EB4101898830F81100642850DBB9
:101D8000C4EB041000EBC0002C49096801EB4000D3
:101D90001A30C4EB041101EBC101284A126802EBAE
:101DA0004101898830F81100643886B224480068FF
:101DB00050F82600D0B1C4EB041000EBC0001F495E
:101DC000096801EB4000007D212801D1022528E0AF
:101DD000C4EB041000EBC0001849096801EB400097
:101DE000007D122801D101251BE070BDC4EB041059
:101DF00000EBC0001149096801EB4000007D21287B
:101E000001D101250DE0C4EB041000EBC0000B492B
:101E1000096801EB4000007D122801D1022500E095
:101E2000E3E72A4631462046FFF7F7FB10B9204684
:101E3000FFF71EFB00BF00BF00BFD6E72000002059
:101E40002800002010B5002442F21070C4EB0411E9
:101E500001EBC101FE4A126802EB4101C88042F267
:101E60004860C4EB041101EBC101F94A126802EBAE
:101E70004101C88144F63821C4EB041000EBC000D6
:101E8000F34A126802EB400001824FF4A850C4EB01
:101E9000041101EBC101EE4A126802EB41014881D5
:101EA0004FF48051C4EB041000EBC000E84A126804
:101EB00002EB400081810620C4EB041101EBC1015B
:101EC000E34A126802EB410148836A21C4EB041023
:101ED00000EBC000DE4A126802EB4000818306215D
:101EE000C4EB041000EBC000D94A126802EB4000BA
:101EF000C1836C21C4EB041000EBC000D44A12680B
:101F000002EB400001840621C4EB041000EBC0008A
:101F1000CF4A126802EB400041846421C4EB0410F4
:101F200000EBC000CA4A126802EB40008184102115
:101F3000C4EB041000EBC000C54A126802EB40007D
:101F4000C1840121C4EB041000EBC000C04A126838
:101F500002EB400001850221C4EB041000EBC0003D
:101F6000BB4A126802EB400041856C21C4EB0410AF
:101F700000EBC000B64A126802EB400081851021D8
:101F8000C4EB041000EBC000B14A126802EB400041
:101F9000C185C4EB041101EBC101AD4A126802EB2B
:101FA0004101C88800F04CFCC4EB041101EBC101F5
:101FB000A74A126802EB41014882012446F2987157
:101FC000C4EB041000EBC000A14A126802EB400011
:101FD000C18043F69820C4EB041101EBC1019C4A77
:101FE000126802EB4101C8814000C4EB041101EB0F
:101FF000C101974A126802EB410108822103C4EB38
:10200000041000EBC000924A126802EB40004181CC
:102010004FF4A851C4EB041000EBC0008C4A1268C6
:1020200002EB400081817521C4EB041000EBC0007D
:10203000874A126802EB400041837321C4EB04100D
:1020400000EBC000824A126802EB40008183062147
:10205000C4EB041000EBC0007D4A126802EB4000A4
:10206000C1837021C4EB041000EBC000784A1268F1
:1020700002EB400001840621C4EB041000EBC00019
:10208000734A126802EB400041847621C4EB0410CD
:1020900000EBC0006E4A126802EB40008184102100
:1020A000C4EB041000EBC000694A126802EB400068
:1020B000C1840121C4EB041000EBC000644A126823
:1020C00002EB400001850221C4EB041000EBC000CC
:1020D0005F4A126802EB400041856C21C4EB04109A
:1020E00000EBC0005A4A126802EB400081851021C3
:1020F000C4EB041000EBC000554A126802EB40002C
:10210000C185C4EB041101EBC101514A126802EB15
:102110004101C88800F094FBC4EB041101EBC1013C
:102120004B4A126802EB4101488210BD10B50021F4
:1021300059E0C0EB001202EBC202454B1B6803EBF7
:102140004202D388434A32F8112002F21D12934210
:102150001BDBC0EB001202EBC2023D4B1B6803EB22
:102160004202D3883B4A32F8112002F23B129342DA
:102170000BDC01F58072C0EB001303EBC303344C9E
:10218000246804EB43031A8110BDC0EB001202EB7C
:10219000C2022F4B1B6803EB4202D3882D4A32F850
:1021A0001120A2F23B1293421BDBC0EB001202EBA8
:1021B000C202274B1B6803EB4202D388254A32F840
:1021C0001120A2F21D1293420BDC01F50072C0EB4C
:1021D000001303EBC3031E4C246804EB43031A8172
:1021E000D2E74A1C91B21229A3DB4FF48062C0EB04
:1021F000001303EBC303164C246804EB43031A815A
:1022000000BFC1E730B5C0EB001202EBC202104BB9
:102210001B6803EB4202B2F80C21521CC0EB001306
:1022200003EBC3030A4C246804EB4303A3F80C211B
:10223000C0EB001202EBC202054B1B6803EB42022B
:10224000B2F80C210A2A0FDB0022C0EB001303E0D6
:1022500020000020469B000803EBC303F74C2468D2
:1022600004EB4303A3F80C21C0EB001202EBC20203
:10227000F24B1B6803EB4202E432C0EB001303EBAA
:10228000C303EE4C246804EB4303B3F80C3102F8AB
:102290002310EB4A126892F86F32C0EB001202EB87
:1022A000C202E64C246804EB4202E432C0EB0014A4
:1022B00004EBC404E14D2D6805EB4404B4F80C4173
:1022C00002EB84025370DE4A126892F87032C0EB5F
:1022D000001202EBC202D94C246804EB4202E43241
:1022E000C0EB001404EBC404D44D2D6805EB44048A
:1022F000B4F80C4102EB84029370D14A126892F850
:102300007132C0EB001202EBC202CC4C246804EB29
:102310004202E432C0EB001404EBC404C74D2D6844
:1023200005EB4404B4F80C4102EB8402D37030BDD9
:102330000021C44A126802EB4012D160C14A1268FF
:1023400002EB40121161BF4A126802EB4012916029
:10235000BC4A126802EB40121160BA4A126802EBE2
:1023600040125160B74A126802EB40129161B54ABF
:10237000126802EB4012D161704710B50446B248B2
:10238000006800EB8410006828B9AF48006800EBD3
:102390008410C068D8B1AD48006850F82400A0B9D6
:1023A0002046FFF7C5FF0020C4EB041101EBC1017B
:1023B000A24A126822F811000120A449096841F8D4
:1023C000240004212046FFF71DFF012010BD00203E
:1023D0009E49096841F8240000BFF7E710B504469C
:1023E000C4EB041000EBC0009449096801EB400005
:1023F000008900F48060E0B194480068283050F80B
:10240000240040B9012191480068283040F8241088
:102410002046FFF7F7FE2046FFF78AFF0020C4EBB7
:10242000041101EBC101854A126822F81100012054
:1024300010BD002185480068283040F82410002095
:10244000F6E710B504468048006800EB8410C069C8
:1024500038B37E480068103050F8240098B94FF423
:102460000041C4EB041000EBC000744A126822F86B
:102470001010012175480068103040F82410032125
:102480002046FFF7BFFE2046FFF752FF0020C4EBB7
:10249000041101EBC101694A126822F81100012000
:1024A00010BD012C3EDA601CC0EB001000EBC00038
:1024B0006249096801EB4000C088C4EB041101EBDC
:1024C000C1015E4A126802EB4101C988401AB0F5A9
:1024D000FA6F27DC5D480068203050F8240098B976
:1024E0004FF40041C4EB041000EBC000534A1268E3
:1024F00022F81010012155480068203040F82410BF
:1025000007212046FFF77EFE2046FFF711FF00213E
:10251000C4EB041000EBC000484A126822F8101007
:102520000120BDE7002149480068103040F8241020
:1025300046480068203040F824100020B0E710B56D
:1025400004464148006800EB8410806938B33F4876
:102550000068083050F8240098B94FF40040C4EBEC
:10256000041101EBC101354A126822F81100012162
:1025700036480068083040F8241002212046FFF752
:1025800041FE2046FFF7D4FE0020C4EB041101EB0E
:10259000C1012A4A126822F81100012010BD002C46
:1025A0003EDDC4EB041000EBC0002449096801EBD8
:1025B0004000C188601EC0EB001000EBC0001F4A45
:1025C000126802EB4000C088081AB0F5FA6F27DCE9
:1025D0001E480068183050F8240098B94FF40041A4
:1025E000C4EB041000EBC000144A126822F810106B
:1025F000012116480068183040F8241006212046B2
:10260000FFF700FE2046FFF793FE0021C4EB041005
:1026100000EBC000094A126822F810100120BDE743
:1026200000210A480068083040F824100748006874
:10263000183040F824100020B0E7000020000020EF
:102640000C000020180000201400002024000020AE
:10265000C0EB001101EBC101774A126802EB4101A6
:10266000497801F0100131B10121744A126802EB7E
:102670004012916005E00021704A126802EB40129E
:102680009160C0EB001101EBC1016B4A126802EBD3
:102690004101497801F0200131B10121674A1268F6
:1026A00002EB4012116005E00021644A126802EB5F
:1026B00040121160C0EB001101EBC1015E4A1268CB
:1026C00002EB4101497801F0400131B101215B4A3F
:1026D000126802EB4012516005E00021574A12686F
:1026E00002EB40125160C0EB001101EBC101524AF4
:1026F000126802EB4101497801F00101C1B1C0EB60
:10270000001101EBC1014C4A126802EB410149780A
:1027100001F0020161B90121484A126802EB40123E
:10272000D1600021454A126802EB401211612FE08E
:10273000C0EB001101EBC1013F4A126802EB4101FD
:10274000497801F00101C1B9C0EB001101EBC101F1
:10275000394A126802EB4101497801F0020161B186
:102760000121364A126802EB401211610021334AFE
:10277000126802EB4012D1600AE000212F4A126871
:1027800002EB401211612D4A126802EB4012D16037
:102790007047C0EB001101EBC101274A126812F823
:1027A0001110042923D004DC012907D0022940D1CB
:1027B00011E0082928D010293BD126E001211F4A29
:1027C000126802EB4012916100211C4A126802EB70
:1027D0004012D1612EE00121184A126802EB40122A
:1027E0009161164A126802EB4012D16122E0002189
:1027F000124A126802EB4012916101210F4A1268DD
:1028000002EB4012D16115E000BF00210B4A1268B3
:1028100002EB40129161094A126802EB4012D16149
:10282000C0EB001202EBC202034B1B6823F812102C
:1028300000E000BF00BF704720000020180000200B
:1028400010B50146A1F51C52103A3C2392FBF3F25D
:1028500090B2A1F51C52103A92FBF3F403FB142240
:102860001E2A01DD421C90B210BD38B5002046235F
:1028700040F23F120A21009003F0A9F84FF6FF73CF
:1028800040F23F123221002003F034FB4FF6FF7379
:1028900040F23F123721002003F02CFB00241CE003
:1028A000FB4931F81400FFF7CBFF163085B24FF625
:1028B000FF7304223321284603F039FBF44931F831
:1028C0001400FFF7BDFF103085B202233A222946DB
:1028D000204603F087FA601CC4B2122CE0DB4FF6EE
:1028E000FF730A2238214FF4987003F020FB4FF653
:1028F000FF734FF490724221102003F0FBFA38BDB1
:1029000070B504460D46C4EB041000EBC000E1496D
:10291000096801EB4000808AC6B2222E28D008DC6C
:10292000112E0DD0122E11D0142E15D0212E37D1EC
:1029300018E0242E22D0412E2CD0422E30D123E07C
:102940000A222946D44803F0A2FB2AE00A2229469B
:10295000D24803F09CFB24E00A222946D04803F029
:1029600096FB1EE00A222946CE4803F090FB18E0B1
:102970000A222946CC4803F08AFB12E00A222946A3
:10298000CA4803F084FB0CE00A222946C84803F039
:102990007EFB06E00A222946C64803F078FB00E0E9
:1029A00000BF00BF70BD70B50446C4EB041101EB5D
:1029B000C101B84A126802EB4101C888FFF740FF25
:1029C0000C3085B24FF47840BB4908802946204638
:1029D000FFF796FFB948006800EB4410006850B15B
:1029E000B648006800EB4410C06820B111222946A7
:1029F000B34803F04CFBB148006800EB441000689A
:102A000050B1AE48006800EB4410006920B11122BB
:102A10002946AC4803F03BFBA848006800EB441093
:102A2000406858B1A548006800EB4410C06828B160
:102A3000112205F11001A24803F029FB9F4800680C
:102A400000EB4410406858B19C48006800EB44100B
:102A5000006928B1112205F110019A4803F017FB13
:102A600070BD38B50446C4EB041101EBC101894ABD
:102A7000126802EB4101C888FFF7E2FE0C3085B214
:102A8000C4EB041000EBC0008249096801EB400070
:102A9000408AA8427ED0C4EB041000EBC0007D4900
:102AA000096801EB4000408AA84237DAC4EB041001
:102AB00000EBC0007749096801EB4000408A281A02
:102AC000152810DA0020C4EB041101EBC101714A92
:102AD0000090126802EB4101488A31232A460A21FC
:102AE00002F075FF55E00020C4EB041101EBC101B9
:102AF000684B00901B6803EB4101498A15318AB28B
:102B0000C4EB041101EBC101624B1B6803EB4101F3
:102B1000488A31230A2102F05AFF3AE0C4EB04103C
:102B200000EBC0005B49096801EB4000408A401B94
:102B3000152814DA0020C4EB041101EBC101554B38
:102B400000901B6803EB4101498A15318AB205F1F7
:102B5000150188B231230A2102F039FF19E0002063
:102B6000C4EB041101EBC1014A4B00901B6803EB5D
:102B70004101498A15318AB2C4EB041101EBC1014C
:102B8000444B1B6803EB4101488A31230A2102F0C0
:102B90001EFF00E00CE0C4EB041000EBC0003D4958
:102BA000096801EB4000458229462046FFF7A8FE50
:102BB00038BD01460020444A126802EB81121269B6
:102BC00012B140F002000AE03F4A126802EB8112A3
:102BD000526912B140F0010001E040F004003A4AAD
:102BE000126802EB8112526812B140F020000AE034
:102BF000354A126802EB8112926812B140F010005F
:102C000001E040F040002D4A126802EB41121268C8
:102C100012B140F4005010E0284A126802EB411251
:102C2000526812B140F4804007E0244A126802EB77
:102C3000411292680AB140F48050204A126802EBB7
:102C40004112D26812B140F4807007E01B4A12684A
:102C500002EB411212690AB140F40070704770B57E
:102C600004462046FFF7A5FF05461448006800EB20
:102C70004410806850B3C4EB041000EBC000054959
:102C8000096801EB400085822046FFF7EAFE35E047
:102C9000469B0008200000202C9F00083C9F000855
:102CA0006C9F00084C9F00085C9F00087C9F0008F8
:102CB0009C9F00088C9F00082C000020180000201A
:102CC000B89F0008D49F000814000020FFE7C4EB61
:102CD000041000EBC0000A49096801EB4000808A3B
:102CE000A8420BD0C4EB041000EBC00004490968F3
:102CF00001EB400085822046FFF755FE70BD0000C5
:102D0000200000201CB51F2073494880734888614B
:102D1000FFF7ABFD0A2001F0D5FE714908600846B7
:102D200000686D4908610223C8220A216C480068C6
:102D300002F086F86B490860002014211E237822D7
:102D4000CDE90010B4216648006803F083FC6649B1
:102D5000086050220A2165A003F00BF85F220A21C7
:102D600064A003F006F86E220A2165A003F001F8C2
:102D70007D220A2164A002F0FCFF8C220A2164A0BB
:102D800002F0F7FF9B220A2164A002F0F2FFAA22C0
:102D90000A2165A002F0EDFFB9220A2165A002F028
:102DA000E8FF1CBD10B56648006801684D48006822
:102DB00002F07EF86349096888880423502211468E
:102DC00003F010F85F490968088904235F22502145
:102DD00003F037F85B490968488A04236E225021C2
:102DE00003F000F8574909688A88564909681A317A
:102DF00031F8120004237D22502102F0F3FF5249E2
:102E0000B1F9000004238C22502103F01AF84D4937
:102E10000968488904239B22502103F012F849498C
:102E2000096888890423AA22502103F00AF8454939
:102E30000968C88A0423B922502103F002F84149E5
:102E40000968B1F8120104235022822102F0CAFF5E
:102E50003C490968B1F8160104235F22822102F07F
:102E6000F0FF38490968B1F8200104236E2282215D
:102E700002F0B8FF334909688A883249096801F5C8
:102E8000947131F8120004237D22822102F0AAFFFE
:102E90002D49B1F9020004238C22822102F0D1FFD6
:102EA00028490968B1F8180104239B22822102F005
:102EB000C8FF24490968B1F81A010423AA22822113
:102EC00002F0BFFF1F490968B1F824010423B922A9
:102ED000822102F0B6FF10BDA40D0020F4000020F6
:102EE00034000020380000203C000020BFD8D6C6A7
:102EF000B2BD0000B5B1C7B0CEBBD6C30000000064
:102F000053686F775F580000B9A6C4DCC2EB0000BD
:102F1000B5B1C7B0CBD9B6C800000000D7F3B9B37C
:102F2000B8DFB6C800000000D3D2B9B3B8DFB6C866
:102F300000000000B9B3BFD8D6C6B2BD0000000083
:102F40000C0000202000002010000020704700BF6F
:102F5000FEE700BFFEE700BFFEE700BFFEE77047E9
:102F60007047000000BF011EA0F10100FBD17047B7
:102F700000B5034602E00820FFF7F4FF181EA3F196
:102F80000103F8D100BD00B5034603E04FF4FA5049
:102F9000FFF7E8FF181EA3F10103F7D100BD0146BA
:102FA000102902DA0248405C70473020FCE700003C
:102FB000E49F000810B5002807DA0A07140E0F4A2C
:102FC00000F00F031B1FD45403E00A07130E0C4A32
:102FD000135410BD10B500F090FA00F021FC4FF42E
:102FE000A06004F0F9F9FE214FF0FF30FFF7E2FF97
:102FF000FF216FF00100FFF7DDFF10BD18ED00E0CD
:1030000000E400E070B50446F7480068006810B1BD
:10301000F6494C810CE0F6480078072800DD70BDC9
:10302000FF2544EA0561F3480269F14800789047BA
:1030300000BFF4E70120EE490870704738B528203A
:103040008DF8030000241AE004EB4401EA4A52F828
:103050002100012105F07AFA04EB4400E64901EB76
:1030600080000089ADF8000004EB4401E24A02EB65
:1030700081014868694604F083FD601CC4B2042CD9
:10308000E2DB38BD38B510208DF8030003208DF841
:103090000200002427E004EB4401D84A52F8210042
:1030A000012105F053FA04EB4400D44901EB800000
:1030B0000089ADF8000004EB4401D04A02EB810125
:1030C0004868694604F05CFD04EB4402CB4B03EB1B
:1030D0008202118904EB440203EB8202506804F07F
:1030E000FEFD601CC4B2042CD5DB28208DF8030043
:1030F00000241AE004EB4401C14A52F821000121E6
:1031000005F024FA04EB4400BD4901EB800000897E
:10311000ADF8000004EB4401B94A02EB81014868B4
:10312000694604F02DFD601CC4B2042CE2DB38BDFE
:1031300010B50024D0E0B34800EB440040780528E7
:103140007AD2DFE800F00317417AAD0004EB4402C5
:10315000A94B03EB8202118904EB440203EB8202C8
:10316000506804F0A0FD20B90120A64901EB4401FC
:103170004870AEE004EB44029F4B03EB82021189DE
:1031800004EB440203EB8202506804F08CFD78B932
:1031900002209C4901EB440148700020994901F844
:1031A00014009949095D41F48070FFF72BFF0AE094
:1031B0000020944901EB440148709349095D41F4B2
:1031C0008060FFF71FFF84E004EB44028A4B03EBAF
:1031D0008202118904EB440203EB8202506804F07E
:1031E00062FDD0B9874810F8141010F81400401C84
:1031F000844A02F8140028291DDB0320114601EB44
:10320000440148700020114601F814007E49095D10
:1032100041F40070FFF7F6FE0DE00020794901F857
:103220001400042001EB440148707749095D41F422
:103230008060FFF7E7FE4CE045E004EB44026E4B94
:1032400003EB8202118904EB440203EB8202506813
:1032500004F029FDA8B96B4810F8141010F81400F8
:10326000401C684A02F814000A2918DB00201146A5
:1032700001F814006449095D41F40070FFF7C2FED3
:103280000DE000205F4901F81400042001EB440127
:1032900048705D49095D41F48060FFF7B3FE18E0B6
:1032A000584810F814000A2807DA564810F8140095
:1032B000401C544901F8140004E00020514901EB7E
:1032C0004401487005E000204E4901EB440148707C
:1032D00000BF00BF601CC4B2042CFFF62CAF10BDB1
:1032E00070B50024002600E106EB4602434B03EBD9
:1032F0008202118906EB460203EB8202506804F059
:10330000ECFC0025DFE005EB860040490C5C404802
:1033100000EB44004078052865D2DFE800F0031791
:103320003D89B80005EB4502354B03EB820211895C
:1033300005EB450203EB8202506804F0B4FC20B1B7
:103340000120334901EB44014870B9E005EB450227
:103350002B4B03EB8202118905EB450203EB820242
:10336000506804F0A0FC68B10220294901EB440137
:1033700048700020264901F8140044F48070FFF7DB
:1033800041FE08E00020224901EB4401487044F46A
:103390008060FFF737FE93E005EB4502184B03EB27
:1033A0008202118905EB450203EB8202506804F0AA
:1033B0007AFC78B3164810F8141010F81400401C6A
:1033C000134A02F81400282931DB0320114601EBCF
:1033D000440148700020114601F8140044F4807044
:1033E000FFF710FE23E065E0B0000020A40D0020F0
:1033F000480000207C050020F49F000838A0000849
:1034000068A000084000002024A0000828A00008B0
:103410005C050020FFE700203A4901F81400042071
:1034200001EB4401487044F48060FFF7EBFD47E096
:1034300005EB4502344B03EB8202118905EB450293
:1034400003EB8202506804F02EFC98B12D4810F86E
:10345000141010F81400401C2A4A02F814000A291B
:1034600014DB0020114601F8140044F48070FFF7CB
:10347000C9FD0BE00020234901F81400042001EBF2
:103480004401487044F48060FFF7BCFD18E01D481B
:1034900010F814000A2807DA1A4810F81400401C23
:1034A000184901F8140004E00020164901EB44011A
:1034B000487005E00020134901EB4401487000BF4B
:1034C00000BF681CC5B2042DFFF61DAF06EB460217
:1034D0000E4B03EB8202118906EB460203EB8202DC
:1034E000506804F0FCFB701CC6B2042EFFF6FCAE64
:1034F00070BD10B5FFF71CFE10BD10B5FFF79EFDA7
:1035000010BD00005C05002068A0000838A000087D
:1035100008B503208DF8000002208DF801008DF819
:10352000020001208DF80300684603F05AFF08BD31
:1035300070470146CA1701EB92729210A1EB82020A
:1035400092B9642091FBF0F200FB121050B94FF4D5
:10355000C87091FBF0F200FB121008B9012070470F
:103560000020FCE70120FAE70020F8E72DE9F05FF2
:1035700006460F4690469946DDE90AAB0024632EC5
:1035800002DD0120BDE8F09F00250AE02846FFF794
:10359000D0FF10B1A448044401E0A4480444681CCE
:1035A00085B2B542F2DB781EC7B2002510E0A04814
:1035B000405D40F2A321484304EBC0143046FFF7BE
:1035C000B8FF18B1012D01D19A480444681C85B296
:1035D000BD42ECDBA8F1010040F2A321484304EB1B
:1035E000C014C9EB4910C0EB092004EB0014CAEB6E
:1035F0000A1004EB80045C4401214FF0C05004F039
:10360000B2FF012005F073F8204604F030FC04F00E
:1036100061FC0020B6E7F0B503460C46154603F5FD
:10362000FA6083B2642093FBF0F0C6B2642093FB8F
:10363000F0F700FB1730C1B2132E02DD01F1640078
:10364000C1B20846CF1701EB977701EBA707BAB2D3
:10365000072092FBF0F700FB172082B25719601E7B
:10366000DFF8D4C11CF80000384482B2CF1701EB58
:103670009777BF10A1EB87071FB9032C01DA501E03
:1036800082B2072092FBF0F700FB1720C0B2F0BD1A
:103690002DE9F04107464FF00008002400263D4682
:1036A00004F0DCFB80466348B8FBF0F46348008814
:1036B000A04237D061490C8010E03046FFF739FF57
:1036C00040B1B4F5B77F02D3A4F5B77404E0701C21
:1036D00086B206E0A4F26D14701C86B2B4F5B67F13
:1036E000EBD800BF2E70002615E02878FFF721FFE9
:1036F00030B1012E04D11D2C01D31D3C09E00CE09A
:103700004B48805DA04203D84948805D241A00E000
:1037100003E0701C86B21C2CE7D200BF701C6870DE
:10372000601CA8704348B8FBF0F100FB11844FF413
:103730006160B4FBF0F0E8704FF46160B4FBF0F14D
:1037400000FB11403C21B0FBF1F028714FF46160A7
:10375000B4FBF0F100FB11403C21B0FBF1F201FBA6
:1037600012006871AA7869782878FFF754FFA87169
:103770000020BDE8F0811CB50024042004F07FFF88
:1037800045F25001884243D001214FF0C05004F06F
:10379000EAFE012004F0ABFF04F03CFF012004F03E
:1037A00042FE04E0601CC4B20A20FFF7ECFB41209B
:1037B00004F0A1FD0028F5D0FA2C01DB01201CBD8E
:1037C0004FF4807004F04BFE012004F04EFE04F034
:1037D00081FB04F088FB04F07DFB04F02CFB47F632
:1037E000FF7004F051FB04F075FB37201E211523F8
:1037F0000922CDE900100A2140F2DF70FFF7B6FE82
:1038000004F022FB45F25001042004F02CFF03E0F9
:1038100004F069FB04F05EFBFFF77AFE0020CEE7C0
:1038200010B5FFF7A8FF10BD0085E2018033E1016C
:10383000A4A000088051010098A000084A000020C0
:1038400008B50121080304F081FE0121084604F0B7
:103850007DFE0121042004F079FEE020ADF8000097
:1038600018208DF8030003208DF802006946874870
:1038700004F086F908BD08B50121880304F073FE41
:103880000121084604F062FE0121082004F05EFEDA
:103890004FF46040ADF8000018208DF803000320BD
:1038A0008DF8020069467A4804F06AF908BD08B547
:1038B0000121C80304F057FE0121084604F046FE2A
:1038C0000121082004F042FE3820ADF80000182045
:1038D0008DF8030003208DF8020069466C4804F05F
:1038E0004FF908BD02884FF6C7731A40028011B91C
:1038F000028802802DE0012904D1028842F00802EA
:10390000028026E0022904D1028842F010020280DF
:103910001FE0032904D1028842F01802028018E057
:10392000042904D1028842F02002028011E0052916
:1039300004D1028842F0280202800AE0062904D15C
:10394000028842F03002028003E0028842F038022E
:103950000280028842F040020280704770B505463E
:103960000E46002405E0601CC4B2C82C01DD002016
:1039700070BD0221284604F044FC0028F3D03146F3
:10398000284604F0EBFB002405E0601CC4B2C82C00
:1039900001DD0020ECE70121284604F032FC00287C
:1039A000F3D0284604F0DCFBC0B2E1E730B585B0C7
:1039B00004460D463748844201D1FFF741FF36489F
:1039C000844201D1FFF757FF3448844201D1FFF709
:1039D0006EFF082D03D10021204604F08EFB00204D
:1039E000ADF800004FF48270ADF80200102D03D145
:1039F000E801ADF8040002E00020ADF8040000206A
:103A0000ADF80600ADF808004FF40070ADF80A00FC
:103A10001020ADF80C000020ADF80E000720ADF826
:103A200010006946204604F0C3FA0121204604F044
:103A300064FBFF212046FFF791FF05B030BD2DE963
:103A4000F04180460E461446002506E0775D394673
:103A50004046FFF783FF681CC5B2A542F6DB20464F
:103A6000BDE8F0812DE9F04180460F46144600265E
:103A700007E000214046FFF771FF0546BD55701C69
:103A8000C6B2A642F5DB2046BDE8F0810008014041
:103A9000000C01400030014000380040003C004074
:103AA00002464FF080700860081F014602606FF008
:103AB0000103081F014603604FF01233081F01463F
:103AC00003604FF00333081F014603604FF00233D9
:103AD000081F014603605B10081F014603600023B6
:103AE000081F014603604FF01133081F01460360B1
:103AF0004FF01033081F014603604FF00933081FD1
:103B0000014603604FF00833081F014603604FF081
:103B10000733081F014603604FF00633081F0146B4
:103B200003604FF00533081F014603604FF0043374
:103B3000081F01460360084670470146FD4A127897
:103B400002EB8202FC4B03EB820001600022426028
:103B5000C2600282F74A12788274F64A1378012210
:103B60009A40F64B1B781A43F44B1A70704710B505
:103B700072B6F3480088401CF1490880F14800788B
:103B8000B0B9F148ED490978405CF0490870084641
:103B90000078EF49097888420AD0EC48007800EBB9
:103BA0008000E54901EB8000EA49086000F004FB71
:103BB000E3480088401E80B2E149088000B962B63F
:103BC00010BDE5480078012804D1DE480078401C8B
:103BD000DC490870704710B5DF480078012830D103
:103BE00072B6D7480088401CD5490880D54800786F
:103BF000002804DDD3480078401ED2490870D1481F
:103C00000078B0B9D048CD490978405CCF490870F8
:103C100008460078CE49097888420AD0CB48007817
:103C200000EB8000C44901EB8000CA49086000F045
:103C3000C3FAC3480088401E80B2C149088000B959
:103C400062B610BD70B50025FFF7BBFFC248007813
:103C500001282BD128E005EB8500B74901EB800452
:103C600072B6B7480088401CB5490880E06888B142
:103C7000E068401EE06068B9208A00F47F4038B9EF
:103C80000120A840AD4909780843AC49087001E01B
:103C90000120E060681CC5B2A9480088401E80B2BF
:103CA000A749088000B962B6042DD4DBFFF793FF63
:103CB00070BD10B5A948AA49826A01209047A6485C
:103CC0000078C0B9A0489D490978405C9F490870B8
:103CD000084600789E4908700846007800EB80008E
:103CE000954901EB80009B490860084600689D49A2
:103CF000086000F053FA10BD30B502468D4C2478B0
:103D000004EB8404984D05EB8400026002EB81040F
:103D100044608260C260018200244482854C247821
:103D200004EB8404844D05EB8403986030BD70B5CA
:103D3000044672B682480088401C814908807D484C
:103D40000078042801DBFF2070BD7A48007800EB82
:103D5000C00202EB0010854A02EB001000F5C671AC
:103D60002046FFF79DFE05462846FFF7E6FE71490F
:103D7000097801EB81017E4A02EB01101421FFF763
:103D8000BBFF6C480078401C6A4908706C4800888A
:103D9000401E80B26A49088000B962B66548007862
:103DA000401EC0B2D0E70246508A138A984201DB17
:103DB000002070479368181D90601960508A401C5D
:103DC0005082D2E90130984201D110689060012000
:103DD000EFE70146488A08B900207047CB68181DF4
:103DE000C8601A68488A401E48824B68C868984272
:103DF00001D10868C8601046EFE770B5054672B695
:103E00004F480088401C4E49088056480068866824
:103E1000708A00280DDD3046FFF7DBFF0446484876
:103E20000088401E80B24649088000B962B620462C
:103E300070BD4C480068008A40F004004949096898
:103E4000088248480068C5604148017801208840E0
:103E50003A49097881433948017039480088401E41
:103E600080B23749088000B962B6FFF780FE72B6AB
:103E700033480088401C324908803A480068866808
:103E80003046FFF7A6FF044604B985B9002035493E
:103E90000968486033490968088229480088401E3B
:103EA00080B22749088000B962B62046C0E70020EA
:103EB0002C490968088222480088401E80B22049A7
:103EC000088000B962B60020B2E72DE9F04106464D
:103ED0000F4672B61A480088401C1949088006EB44
:103EE0008600154901EB8004A568688A08BB39463D
:103EF0002846FFF758FF0020E0606760208A20F026
:103F000004002082208AA8BBA17C012088400B49A4
:103F1000097808430949087009480088401E80B2A2
:103F20000749088000B962B6FFF721FE0120BDE80D
:103F3000F0812FE050000020D80C00204F0000201E
:103F40004C0000204E000020B0A0000853000020CC
:103F50005200002058000020510000207C05002065
:103F6000453C000854000020280D0020A805002032
:103F7000E80B0020FFE739462846FFF714FF7C488E
:103F80000088401E80B27A49088000B962B60120DC
:103F9000BDE8F081688A298A884209DB7448008874
:103FA000401E80B27249088000B962B60020EFE777
:103FB00039462846FFF7F7FE6D480088401E80B25C
:103FC0006B49088000B962B60120E1E710B50446EC
:103FD000DCB172B666480088401C654908806548B7
:103FE0000178012088406449097881436248017062
:103FF00062480068C4605E480088401E80B25C4928
:10400000088000B962B6FFF7B2FD10BD024600217C
:104010000FE001EB81005A4B03EB8000008A4FF464
:1040200080739340184010B1481CC0B27047481CC0
:10403000C1B20429EDDB0020F8E710B50446072CD7
:1040400001DD012010BD72B649480088401C484976
:1040500008802046FFF7DAFF98B948480068008AD0
:104060004FF48071A14008434449096808824048E0
:104070000088401E80B23E49088000B962B6002028
:10408000E0E73E480068008A4FF48071A140084391
:104090003A49096808823748017801208840364942
:1040A000097881433448017031480088401E80B24D
:1040B0002F49088000B962B6FFF759FD0020C1E71B
:1040C0002DE9F041064672B629480088401C28496F
:1040D00008802A480068008A4FF48071B140884304
:1040E0002649096808823046FFF790FF07464FB916
:1040F0001F480088401E80B21D49088000B962B682
:10410000BDE8F081781EC4B204EB84001C4901EBC9
:1041100080050020E86068600120A0401649097809
:1041200008431549087012480088401E80B21049A3
:10413000088000B962B6FFF71AFD00BFE0E710B5CE
:10414000104811494860114888601148C8601148FA
:1041500008611148486100200860AFF22110C86171
:10416000AFF2A300886100F08AF900F000F910BDF9
:104170004C000020520000204F000020540000207E
:10418000D80C0020B33C00087C0500202F3D00081F
:10419000FB3D0008CB3E0008CD3F00084FF0000477
:1041A00084F30988164C4FF001052570154C4FF02B
:1041B0008055256062B6FEE730B4124C4FF0805552
:1041C000256030BC704772B6EFF3098028B1203803
:1041D00080E8F00F0C49096808600C480C490A781F
:1041E000027009480B490A680260106890E8F00FF5
:1041F000203080F309884EF0040E62B6704700004C
:104200005100002004ED00E0540000205200002086
:10421000530000205800002070B500245748006863
:1042200000B970BD72B656480088401C54490880D9
:10423000524805682CE005F0010030B3514830F8D1
:104240003400401E80B24F4921F83400E8B94E488E
:104250000068E04000F0010058B10B4603EBC403D6
:104260005968484B03EBC4039878484B1A69904748
:1042700004E0444901EBC401486880470120A040A4
:104280003E49096881433D4801606D08601CC4B225
:10429000002DD0D13A480088401E80B238490880AD
:1042A00000B962B600BFBCE730B503460C4672B633
:1042B00033480088401C324D2880002135E02F48CB
:1042C0000068C84000F0010068BB2E4D25F8314061
:1042D000284600EBC10042606BB1012088402A4DA6
:1042E0002D682843284D286029480078254D05EB86
:1042F000C105A87006E001208840234D2D68854344
:1043000021480560012088401C4D2D6828431B4D25
:1043100028601B480088401E80B2194D288000B9D3
:1043200062B6084630BD481CC1B20829C7DB144834
:104330000088401E80B2124D288000B962B6FF206E
:10434000F0E772B60E490988491C0D4A1180012117
:1043500081400A4A12688A4308490A600849098864
:10436000491E89B2064A118001B962B670470948F0
:104370000649086208490548416270475C00002010
:104380004C000020640D0020600000207C0500200F
:1043900052000020A942000843430008704710B5AE
:1043A000024672B680480088401C7F4B1880002A65
:1043B00042D0012A27D0022A0CD0032A55D17B48AB
:1043C000016018460088401E80B2188000B962B6AD
:1043D000012010BD764800780A2801D10020F8E7B6
:1043E000734803780078401C714C2070714840F885
:1043F00023106D480088401E80B26B4B188000B9B6
:1044000062B60120E5E76C480078042801D100205D
:10441000DFE7694803780078401C674C20706748E4
:1044200040F8231060480088401E80B25E4B188020
:1044300000B962B60120CCE761480078022801D1BA
:104440000020C6E75E4803780078401C5C4C207072
:104450005C4840F8231054480088401E80B2524BFC
:10446000188000B962B60120B3E74F480088401EAB
:1044700080B24D4B188000B962B60020A9E730B574
:104480005148524988625248006842F21072B0FBAB
:10449000F2F1B1F1807F00D31DE021F07F40401E9A
:1044A0004FF0E022506150170F22002807DA13075F
:1044B0001D0E484B00F00F04241F1D5503E0130789
:1044C0001C0E454B1C5400BF00204FF0E0229061B1
:1044D0000720106100BF30BD10B540480078401C77
:1044E000C0B23E490870642801D1002008703549E7
:1044F00008688047334948688047384800780A216F
:1045000090FBF1F0C4B23548007890FBF1F201FB6A
:1045100012000A2846D2DFE800F005090D11151631
:10452000191A20252549086880473BE02349486837
:10453000804737E021498868804733E01F49C868D1
:1045400080472FE02EE0FFF767FE2BE02AE01F48B0
:104550000068401C1D49086024E0164951F82400F9
:1045600080471FE034B1012C16D0022C15D0032C4B
:1045700015D113E01A480078401CC0B218490870E1
:10458000022805D1FEF7B5FF00201549087002E0AA
:1045900006480068804703E002E001E000E000BF59
:1045A00000BF00BF00BF10BD4C000020A4000020D1
:1045B000A80000207C000020A90000206C00002042
:1045C000AA000020640000209F4300087C05002012
:1045D0004401002018ED00E000E400E0AB00002002
:1045E000AC00002010B501F067F8F948007A012806
:1045F00001D101F0B8FFF648007A042801D101F09A
:10460000F2FFF348007A022801D101F0B7FFF04829
:1046100000690078802803D1ED49086900F0F5FAB7
:1046200010BD10B5EA4800F0704000F10070E84994
:1046300000EB4110E7490860002009680860E6487F
:10464000E3494862E548E6494860E6480860E648CC
:10465000C860E6480861E64888600020DC49488078
:104660004FF4FC6088804FF2DE70C8800020087232
:104670004881086102F052FCD549488801F00EFCDF
:104680000020D34948728881C88102F05CFBD94878
:10469000D949826A032090470020CE490968086002
:1046A000D648CB49886110BDC949886170470378F5
:1046B000812B06D0822B05D0832B04D0842B0AD1EA
:1046C00002E000BF00BF00BF41808280437803F05A
:1046D000FE03437000E000BF00BF70470378812BEA
:1046E00006D0822B05D0832B04D0842B0AD102E084
:1046F00000BF08E000BFC2800181437823F00103BE
:10470000437000BF00BF00BF704710B50478812C14
:1047100006D0822C05D0832C0BD0842C0BD109E041
:1047200000BFC18002810381447824F001044470F9
:1047300002E000BF00E000BF00BF10BD417821F0E3
:10474000010141707047417841F0040141704178A6
:1047500021F0010141707047417821F0040141705E
:10476000417821F0010141707047417841F0020128
:104770004170417821F0010141707047417821F08A
:1047800002014170417821F0010141707047417888
:1047900041F080014170417821F001014170704782
:1047A000417821F080014170417821F00101417090
:1047B000704710B50446864800690079A04235D09C
:1047C000834800690079C8B1814800690830804990
:1047D00009690979491E50F82100007885280BD114
:1047E0007B49096908317A4A12691279521E51F8D7
:1047F000220000F0A5FE00E000BF00BF9CB174489D
:1048000000690830611E50F821000078852808D121
:104810006F4909690831621E51F8220000F09EFEBE
:1048200000E000BF00BF6A480069047110BD30B5E8
:104830001144002308E0491E00F00F04704D2C5D68
:104840000C7000095C1CE3B29342F4DB30BD30B560
:10485000114400230CE0491E0A24B0FBF4F504FBCC
:10486000150430340C700A24B0FBF4F05C1CE3B285
:104870009342F0DB30BD2DE9F04F89B00446894604
:104880004FF0000B4C44DA4635E0641E20783028A7
:1048900029DB2078392826DC504604F0AFF907469A
:1048A0003A460B460020574904F036FCCDE900019A
:1048B0002178A1F1300004F090F90546DDE90023EC
:1048C00004F019F9CDE90401584604F097F9CDE94F
:1048D0000201DDE9042304F067F8CDE9060104F0E4
:1048E0009AF9834603E0584609B0BDE8F08F0AF113
:1048F000010000F0FF0ACA45C7DB5846F4E72DE97E
:10490000F04F89B0044689464FF0000B4C44DA461C
:1049100084E0641E207830282BDB2078392828DCBE
:10492000504604F06BF902460B46CDE90001002029
:10493000354904F0F1FB074688462178A1F13000A3
:1049400004F04BF93A464346CDE9020104F0D3F8AE
:1049500005460E46584604F051F92A463346CDE93D
:10496000040104F021F8CDE9060104F054F983466E
:1049700050E02078412849DB2078462846DC504624
:1049800004F03CF902460B46CDE9000100201E4927
:1049900004F0C2FB074688462178A1F1370004F0F5
:1049A0001CF93A464346CDE9020104F0A4F8054655
:1049B0000E46584604F022F92A463346CDE9040152
:1049C00003F0F2FFCDE9060104F025F9834621E06A
:1049D000A40D0020B0000020A74A00085F71000865
:1049E000CC0D0020FF7000086D6D0008776D000889
:1049F000796D00087C050020E5560008F4000020D1
:104A0000C0A000080000244000003040584609B013
:104A1000BDE8F08F0AF1010000F0FF0ACA45FFF679
:104A200078AF5846F3E70000224800682249086042
:104A3000204800682149086034E01E4800681E498B
:104A40000968401A142819D91A4800681A490860D8
:104A500000F032FE1A48007A012804D0022808D05B
:104A6000042809D102E001F07EFD06E001F0BBFD63
:104A700003E001F083FD00E000BF00BF0D480068C7
:104A80000E490968401A64280CD90A4800680B4985
:104A900008600B4800690078802803D1084908693C
:104AA00000F0B3F8C9E710B502488168AFF287009B
:104AB000884710BD7C050020B4000020B80000200D
:104AC000A40D00202DE9F0410646282E02DD00202D
:104AD000BDE8F081102000EB8600C7B23946002007
:104AE00002F03DFC04463CB12546802028700020A1
:104AF0006870AF702846EBE70020E9E710B5024682
:104B00000B461078802801D0012010BD002109E05B
:104B100002F1080050F82100984201D10220F4E788
:104B2000481CC1B250788842F2DC5078282801DB5A
:104B30000420EAE7547802F1080040F82430507865
:104B4000401C50700020E0E770B504460025207836
:104B5000802801D0012070BD00250DE004F108007F
:104B600050F82510002002F0EAFB002104F10800B3
:104B700040F82510681CC5B26078A842EEDC002021
:104B8000607000BFE7E710B504462078802801D0A8
:104B9000012010BD2046FFF7D7FF2146002002F07C
:104BA000CEFB0020F5E72DE9F04104460E46002536
:104BB0002078802802D00120BDE8F08100251FE088
:104BC00004F1080050F82500B04217D104F10800A4
:104BD00050F825703946002002F0B1FB6078401E85
:104BE0006070617804F1080050F8211040F8251039
:104BF0000021627840F822100020DDE7681CC5B271
:104C00006078A842DCDC0220D6E770B504460025B7
:104C10002078802801D0012070BD2A48406908B161
:104C200001F0C5FE00252DE004F1080050F8250034
:104C30000078812806D082280BD0852810D09228B1
:104C40001CD114E004F1080151F8250000F0B1F87E
:104C500015E004F1080151F8250000F02FF90EE0ED
:104C600004F1080151F8250000F067FB07E004F1AA
:104C7000080151F8250001F0F0FD00E000BF00BF81
:104C8000681CC5B26078A842CEDC0020C4E70246AA
:104C900000210C48006908B9FF20704700210AE094
:104CA00008480069083050F82100904201D10846B8
:104CB000F3E7481CC1B20348006940788842EFDC42
:104CC000FF20EAE7A40D00202DE9F04106460F463B
:104CD00090463078802802D00020BDE8F081142171
:104CE000002002F03CFB0446ECB1254681202870F0
:104CF000012068706F80A5F8048048F29040E88039
:104D00004FF4784028814FF4FC6068812946304692
:104D1000FFF7F4FE28B12946002002F010FB002026
:104D2000DBE72846D9E70020D7E70278812A00D0C0
:104D3000704706291DD2DFE801F01C03080D121789
:104D4000427822F00102427014E0427842F00202FE
:104D500042700FE0427822F0020242700AE042788C
:104D600042F00402427005E0427822F004024270F0
:104D700000E000BF00BF00BFDAE70178812900D062
:104D80007047417841F004014170417821F0010100
:104D9000417000BFF4E70178812900D07047417865
:104DA00021F004014170417821F00101417000BF00
:104DB000F4E710B504462078812800D010BD607853
:104DC00000F00100002831D16088B0F59C7F00DD43
:104DD000F4E7A088E82800DDF0E7607800F0020042
:104DE00058B14FF2DE7014498880E088C880A288EC
:104DF0006188124801F04BF918E0607800F0040077
:104E000050B120890C498880E088C880A2886188D8
:104E10000A4801F03CF909E0608907498880E08888
:104E2000C880A2886188054801F031F9607840F0B7
:104E30000100607000BFC1E7BC00002010A10008A5
:104E40002DE9F0470746884691461E463878802867
:104E500002D00020BDE8F087042E00DD04261821D2
:104E6000002002F07CFA044604B32546A5F802802F
:104E7000A5F804900020E8804FF4784028814FF492
:104E8000FC60688182202870012068702E740020E8
:104E9000686129463846FFF731FE28B129460020CF
:104EA00002F04DFA0020D5E72846D3E70020D1E7ED
:104EB0004161427822F00102427070472DE9F041D1
:104EC00004462078822801D0BDE8F081607800F0A7
:104ED000010000287ED16088B0F5877F00DDF3E710
:104EE000A088217CC900C1F1F001884200DDEBE718
:104EF000607800F00200F0B14FF2DE7043490880A4
:104F0000E0884880002512E000260CE0A08800EB35
:104F1000C502608806EB460300EB43013C4801F004
:104F2000B6F8701C86B2082EF0DB681C85B2207CB7
:104F3000A842E9DC64E000255FE0E9006069C84060
:104F4000C7B2002655E007FA06F000F0800028B14D
:104F500020892E494880E088088004E060892B4938
:104F60004880E0880880042E0BDAA08800EBC50298
:104F7000608806EB460300EB4301254801F087F803
:104F80000BE0A08800EBC502608806EB460300EB4F
:104F90004300411C1E4801F07AF8042E27D1B4F8D2
:104FA00004C00CEBC50C1FFA8CF1E288B4F802C007
:104FB0000CF1180C1FFA8CF0DFF858C0DCF8043044
:104FC0009847B4F804C00CEBC50C0CF1070C1FFAA1
:104FD0008CF100E018E0E288B4F802C00CF1180C83
:104FE0001FFA8CF0DFF82CC0DCF804309847701CF6
:104FF00086B2082EA7DB681C85B2207CA8429CDC08
:10500000607840F00100607000BF5DE7C4000020E0
:1050100028A10008CC0D00202DE9F04706460F46D8
:1050200090469946DDF820A03078802802D00020F4
:10503000BDE8F0874021002002F091F904463CB31E
:10504000254685202C462870012068706F80A5F8C1
:105050000480A5F81090A5F812A0FE48E8604FF66D
:10506000E070E8804FF4784028814FF4FC6068815C
:1050700000202862E86129463046FFF73FFD28B14D
:105080002946002002F05BF90020D1E72846CFE74F
:105090000020CDE710B50378852B00D010BD402946
:1050A0001AD1ED4B1B78042B00DBF7E772B6EB4B04
:1050B0001B885B1CE94C23808261E74B1B780375DE
:1050C000437843F04003437023461B885B1E9BB22A
:1050D000238043B962B606E08261FF2303754378FB
:1050E00023F04003437000BFD8E70378852B00D03E
:1050F0007047C1610262437823F00103437000BF2F
:10510000F6E70278852A00D0704706291DD2DFE82D
:1051100001F01C03080D1217427822F001024270C0
:1051200014E0427842F0020242700FE0427822F02E
:10513000020242700AE0427842F00402427005E046
:10514000427822F00402427000E000BF00BF00BFBE
:10515000DAE72DE9FF41044665886088218A084422
:10516000401E87B2A688A088618A0844401E1FFAA4
:1051700080F8E069C0B12089E1881023A8F101021C
:1051800092B2A7F1010CCDE90023CDE902101FFA7C
:105190008CF306F1030C1FFA8CF205F1030C1FFAD5
:1051A0008CF1E06900F0EDFC228A002331462846AC
:1051B00000F0A0FE228A701C81B20023284600F075
:1051C00099FE228AB01C81B20023284600F092FE8C
:1051D000228A00234146284600F08CFE628A002382
:1051E0003146284600F0A3FE628A691C88B200237B
:1051F000314600F09CFE628AA91C88B20023314629
:1052000000F095FE628A00233146384600F08FFE9A
:10521000BDE8FF812DE9FF41044667886088218A47
:105220000844401E85B2B4F80480A088618A08440E
:10523000401E86B2E069B8B16089E1881023F21E91
:1052400092B2A5F1030CCDE90023CDE902101FFABB
:105250008CF308F1010C1FFA8CF207F1010C1FFA14
:105260008CF1206A00F08DFC228A002341463846EA
:1052700000F040FE228A701E81B20023384600F002
:1052800039FE228AB01E81B20023384600F032FE79
:10529000228A00233146384600F02CFE628A002321
:1052A0004146384600F043FE628AA91E88B20023B8
:1052B000414600F03CFE628A691E88B200234146E6
:1052C00000F035FE628A00234146284600F02FFE9A
:1052D000BDE8FF812DE9F0410446002528E00026C5
:1052E00021E045B1608A001FA84204DB1EB1208A7C
:1052F000001FB0420ADAA2882A4491B2628832447E
:1053000090B2574A5368002298470AE0554FFA88EE
:10531000A7882F44B9B267883744B8B2504F7B682A
:105320009847701C86B2208AB042DADC681C85B2CD
:10533000608AA842D3DCBDE8F08170B504462078CD
:10534000852800D070BD607800F00100002851D1A0
:105350006088218A0844B0F5A07F00DDF2E7A088CC
:10536000618A0844F02800DDECE7607800F0020074
:1053700018B12046FFF7AEFF0AE0607800F00400A5
:1053800018B12046FFF7E5FE02E02046FFF742FF96
:10539000607800F0800068B3324D6D884FF6FF767C
:1053A000731B228AA188608800F0A4FDA588668A04
:1053B00035446D1EA9B22B4D6D884FF6FF76731BD9
:1053C000228A608800F096FD264D6D88731B628AE4
:1053D000A188608800F0ABFD6588268A35446D1E83
:1053E000A8B2204D6D884FF6FF76731B628AA188A4
:1053F00000F09DFD607840F00100607000BFA1E703
:10540000417801F0020169B9417821F0040141704D
:10541000417821F0010141700021124A5172FF21AF
:105420001269D170704770B504460D46607800F07F
:105430000200002846D10B4880896188884241DDFE
:105440000848C089A18888423CDD6088218A0844D8
:10545000044909E0F4000020520000204C00002024
:10546000CC0D0020A40D0020898988422ADDA08867
:10547000618A08444049C989884223DD607840F048
:1054800004006070607820F0010060703A480069A4
:10549000C570002038494872691CC8B2FFF789F905
:1054A000A06908B9022070BD607800F0400028B102
:1054B000207D324BA1691A69904701E0A0698047BD
:1054C0000120F0E70020EEE710B50446607800F018
:1054D0000200C8B9607840F004006070607820F085
:1054E00001006070002024490872A06900B910BD55
:1054F000607800F0400028B1207D204BA1691A6936
:10550000904701E0A069804700BFF0E710B504466E
:10551000607800F0200010B92046FFF7D5FF10BDDD
:10552000417801F0020151B9417821F00401417044
:10553000417821F00101417000210F4A117270473A
:105540000178852900D07047417821F080014170B1
:10555000417821F00101417000BFF4E7017885290D
:1055600000D07047417841F080014170417821F0CE
:105570000101417000BFF4E7A40D00207C0500206C
:1055800010B59E48406918B101F05FFA00B110BD36
:105590009A480069083099490969C97850F821008A
:1055A0000078812806D0822805D0832804D0852859
:1055B0000ED102E00DE00CE00BE0904909690831E2
:1055C0008E4A1269D27851F82200FFF719FF00E0E5
:1055D00000BF00BF002089494872FF200969C870D8
:1055E00000BFD4E710B58548406918B101F051FA01
:1055F00000B110BD81480069083080490969C97847
:1056000050F821000078812806D0822805D0832810
:1056100004D0852813D102E012E011E010E0774AAF
:1056200012690832754B1B69DB7852F82300734A04
:105630001269D178FFF7F7FE00B1DAE700E000BFAA
:1056400000BF00BFD5E710B56C48406918B101F044
:1056500039FA00B110BD002420E068480069083024
:1056600050F824000078812806D0822805D08328AD
:1056700004D085280ED102E00DE00CE00BE05F497C
:105680000969083151F824002146FFF7CCFE00B12A
:10569000E0E700E000BF00BF601CC4B257480069EB
:1056A0004078A042D9DCFF2054490969C870002025
:1056B0005249487200BFCDE710B55048407A0128E2
:1056C00004D0022805D0042809D105E0FFF7BBFF6C
:1056D00006E0FFF787FF03E0FFF752FF00E000BF9F
:1056E00000BF10BD10B54648007805287FD2DFE81E
:1056F00000F0030B264C70004049086A804710B147
:1057000001203F49087076E03C49086A804778B13B
:105710003A4800F10E01C2690C3090470220384926
:10572000087000203749088001203449487205E09C
:105730000020334908700420304948725BE02F494B
:10574000086A8047B8B12F4801880088401C2D4A5C
:105750001080192918DB294800F10E01C2690C30AC
:10576000904703202649087000202649088002201F
:105770002249487208E0042021490870002021498C
:10578000088004201D49487235E01C49086A80479A
:10579000A0B11C4801880088401C1A4A10800A29C0
:1057A00015DB164800F10E01C2690C30904700204D
:1057B0001449088002201149487208E00420104969
:1057C000087000200F49088004200C49487212E03C
:1057D0000DE00C4800880A2805DA0A480088401CB9
:1057E0000849088002E000200549087003E0002015
:1057F0000349087000BF00BF10BD0000A40D0020C9
:10580000C8000020CA0000202DE9F84F82460E464D
:1058100017469B460B9CAAF1200021794843A178AA
:10582000A26800FB0129F748C16907208847A078D2
:105830003844401E83B220783044401E82B2F24881
:105840003946D0F800C03046E047EF49C868804785
:1058500000252FE02079684319F800008DF8030037
:1058600020796843401C19F800008DF80200207967
:105870006843801C19F800008DF801004FF0000803
:1058800013E0C8F11F010098C84000F0010020B1EA
:10589000DD4881685846884703E0DB4881680A98FC
:1058A000884708F101001FFA80F820784045E8DCBD
:1058B000681C85B2A078A842CCDCD349086980472F
:1058C000D048816907208847BDE8F88F2DE9FF4F50
:1058D00081B00746884691460F9CCA48C169072097
:1058E0008847A0784844401E83B260784044401EF8
:1058F00082B2C5484946D0F800C04046E047C24998
:10590000C86880474FF0000B46E06079A1784843B3
:10591000C01CE1680BFB001630783978884237D11B
:1059200070787978884233D100252DE0607968431A
:10593000C01C305C8DF8030060796843001D305C4A
:105940008DF8020060796843401D305C8DF80100DD
:105950004FF0000A13E0CAF11F010098C84000F0A0
:10596000010020B1A84881680498884703E0A64850
:1059700081680E9888470AF101001FFA80FA607862
:105980005045E8DC681C85B2A078A842CEDC06E071
:105990000BF101001FFA80FBBBF1200FB5DB00BF4C
:1059A000994908698047974881690720884705B069
:1059B000BDE8F08F0246002105E0505C08B90846BA
:1059C0007047481CC1B21429F7DB1420F8E72DE911
:1059D000F05F04460D4616461F46B44201DDBDE8A1
:1059E000F09FBD4200DDFAE7301B1FFA80FA781BFA
:1059F0001FFA80FB8348C1690720884782483B46DD
:105A000032462946D0F800C02046E0477E49C868A3
:105A100080474FF0000812E04FF0000907E07A4895
:105A200081680A98884709F101001FFA80F90BF193
:105A300001008145F3DB08F101001FFA80F80AF14B
:105A400001008045E8DB7049086980476D4881693D
:105A50000720884700BFC2E72DE9FF4F85B0884681
:105A600091469A46DDF848B0059CABEB0901481C0D
:105A7000C11700EB5171C1F3CF0103914046FFF70D
:105A800099FF05460398854200DD039DE068807814
:105A90005044401E80B204901398042804D0082873
:105AA0000ED0102837D118E04E46E08809EBC5012A
:105AB000009088B25A465146049BFFF788FF2BE0BE
:105AC000ABEBC500401C86B2E088009032465146E0
:105AD0004846049BFFF77BFF1EE009EB0B01481CC7
